{
  "address": "0x0165878A594ca255338adfa4d48449f69242Eb8F",
  "abi": [
    {
      "inputs": [
        {
          "internalType": "address",
          "name": "_factory",
          "type": "address"
        },
        {
          "internalType": "address",
          "name": "_WETH",
          "type": "address"
        }
      ],
      "stateMutability": "nonpayable",
      "type": "constructor"
    },
    {
      "inputs": [],
      "name": "WETH",
      "outputs": [
        {
          "internalType": "address",
          "name": "",
          "type": "address"
        }
      ],
      "stateMutability": "view",
      "type": "function"
    },
    {
      "inputs": [
        {
          "internalType": "address",
          "name": "tokenA",
          "type": "address"
        },
        {
          "internalType": "address",
          "name": "tokenB",
          "type": "address"
        },
        {
          "internalType": "uint256",
          "name": "amountADesired",
          "type": "uint256"
        },
        {
          "internalType": "uint256",
          "name": "amountBDesired",
          "type": "uint256"
        },
        {
          "internalType": "uint256",
          "name": "amountAMin",
          "type": "uint256"
        },
        {
          "internalType": "uint256",
          "name": "amountBMin",
          "type": "uint256"
        },
        {
          "internalType": "address",
          "name": "to",
          "type": "address"
        },
        {
          "internalType": "uint256",
          "name": "deadline",
          "type": "uint256"
        }
      ],
      "name": "addLiquidity",
      "outputs": [
        {
          "internalType": "uint256",
          "name": "amountA",
          "type": "uint256"
        },
        {
          "internalType": "uint256",
          "name": "amountB",
          "type": "uint256"
        },
        {
          "internalType": "uint256",
          "name": "liquidity",
          "type": "uint256"
        }
      ],
      "stateMutability": "nonpayable",
      "type": "function"
    },
    {
      "inputs": [
        {
          "internalType": "address",
          "name": "token",
          "type": "address"
        },
        {
          "internalType": "uint256",
          "name": "amountTokenDesired",
          "type": "uint256"
        },
        {
          "internalType": "uint256",
          "name": "amountTokenMin",
          "type": "uint256"
        },
        {
          "internalType": "uint256",
          "name": "amountETHMin",
          "type": "uint256"
        },
        {
          "internalType": "address",
          "name": "to",
          "type": "address"
        },
        {
          "internalType": "uint256",
          "name": "deadline",
          "type": "uint256"
        }
      ],
      "name": "addLiquidityETH",
      "outputs": [
        {
          "internalType": "uint256",
          "name": "amountToken",
          "type": "uint256"
        },
        {
          "internalType": "uint256",
          "name": "amountETH",
          "type": "uint256"
        },
        {
          "internalType": "uint256",
          "name": "liquidity",
          "type": "uint256"
        }
      ],
      "stateMutability": "payable",
      "type": "function"
    },
    {
      "inputs": [],
      "name": "factory",
      "outputs": [
        {
          "internalType": "address",
          "name": "",
          "type": "address"
        }
      ],
      "stateMutability": "view",
      "type": "function"
    },
    {
      "inputs": [
        {
          "internalType": "uint256",
          "name": "amountOut",
          "type": "uint256"
        },
        {
          "internalType": "uint256",
          "name": "reserveIn",
          "type": "uint256"
        },
        {
          "internalType": "uint256",
          "name": "reserveOut",
          "type": "uint256"
        }
      ],
      "name": "getAmountIn",
      "outputs": [
        {
          "internalType": "uint256",
          "name": "amountIn",
          "type": "uint256"
        }
      ],
      "stateMutability": "pure",
      "type": "function"
    },
    {
      "inputs": [
        {
          "internalType": "uint256",
          "name": "amountIn",
          "type": "uint256"
        },
        {
          "internalType": "uint256",
          "name": "reserveIn",
          "type": "uint256"
        },
        {
          "internalType": "uint256",
          "name": "reserveOut",
          "type": "uint256"
        }
      ],
      "name": "getAmountOut",
      "outputs": [
        {
          "internalType": "uint256",
          "name": "amountOut",
          "type": "uint256"
        }
      ],
      "stateMutability": "pure",
      "type": "function"
    },
    {
      "inputs": [
        {
          "internalType": "uint256",
          "name": "amountOut",
          "type": "uint256"
        },
        {
          "internalType": "address[]",
          "name": "path",
          "type": "address[]"
        }
      ],
      "name": "getAmountsIn",
      "outputs": [
        {
          "internalType": "uint256[]",
          "name": "amounts",
          "type": "uint256[]"
        }
      ],
      "stateMutability": "view",
      "type": "function"
    },
    {
      "inputs": [
        {
          "internalType": "uint256",
          "name": "amountIn",
          "type": "uint256"
        },
        {
          "internalType": "address[]",
          "name": "path",
          "type": "address[]"
        }
      ],
      "name": "getAmountsOut",
      "outputs": [
        {
          "internalType": "uint256[]",
          "name": "amounts",
          "type": "uint256[]"
        }
      ],
      "stateMutability": "view",
      "type": "function"
    },
    {
      "inputs": [],
      "name": "pairAddress",
      "outputs": [
        {
          "internalType": "address",
          "name": "",
          "type": "address"
        }
      ],
      "stateMutability": "view",
      "type": "function"
    },
    {
      "inputs": [
        {
          "internalType": "uint256",
          "name": "amountA",
          "type": "uint256"
        },
        {
          "internalType": "uint256",
          "name": "reserveA",
          "type": "uint256"
        },
        {
          "internalType": "uint256",
          "name": "reserveB",
          "type": "uint256"
        }
      ],
      "name": "quote",
      "outputs": [
        {
          "internalType": "uint256",
          "name": "amountB",
          "type": "uint256"
        }
      ],
      "stateMutability": "pure",
      "type": "function"
    },
    {
      "inputs": [
        {
          "internalType": "address",
          "name": "tokenA",
          "type": "address"
        },
        {
          "internalType": "address",
          "name": "tokenB",
          "type": "address"
        },
        {
          "internalType": "uint256",
          "name": "liquidity",
          "type": "uint256"
        },
        {
          "internalType": "uint256",
          "name": "amountAMin",
          "type": "uint256"
        },
        {
          "internalType": "uint256",
          "name": "amountBMin",
          "type": "uint256"
        },
        {
          "internalType": "address",
          "name": "to",
          "type": "address"
        },
        {
          "internalType": "uint256",
          "name": "deadline",
          "type": "uint256"
        }
      ],
      "name": "removeLiquidity",
      "outputs": [
        {
          "internalType": "uint256",
          "name": "amountA",
          "type": "uint256"
        },
        {
          "internalType": "uint256",
          "name": "amountB",
          "type": "uint256"
        }
      ],
      "stateMutability": "nonpayable",
      "type": "function"
    },
    {
      "inputs": [
        {
          "internalType": "address",
          "name": "token",
          "type": "address"
        },
        {
          "internalType": "uint256",
          "name": "liquidity",
          "type": "uint256"
        },
        {
          "internalType": "uint256",
          "name": "amountTokenMin",
          "type": "uint256"
        },
        {
          "internalType": "uint256",
          "name": "amountETHMin",
          "type": "uint256"
        },
        {
          "internalType": "address",
          "name": "to",
          "type": "address"
        },
        {
          "internalType": "uint256",
          "name": "deadline",
          "type": "uint256"
        }
      ],
      "name": "removeLiquidityETH",
      "outputs": [
        {
          "internalType": "uint256",
          "name": "amountToken",
          "type": "uint256"
        },
        {
          "internalType": "uint256",
          "name": "amountETH",
          "type": "uint256"
        }
      ],
      "stateMutability": "nonpayable",
      "type": "function"
    },
    {
      "inputs": [
        {
          "internalType": "address",
          "name": "token",
          "type": "address"
        },
        {
          "internalType": "uint256",
          "name": "liquidity",
          "type": "uint256"
        },
        {
          "internalType": "uint256",
          "name": "amountTokenMin",
          "type": "uint256"
        },
        {
          "internalType": "uint256",
          "name": "amountETHMin",
          "type": "uint256"
        },
        {
          "internalType": "address",
          "name": "to",
          "type": "address"
        },
        {
          "internalType": "uint256",
          "name": "deadline",
          "type": "uint256"
        }
      ],
      "name": "removeLiquidityETHSupportingFeeOnTransferTokens",
      "outputs": [
        {
          "internalType": "uint256",
          "name": "amountETH",
          "type": "uint256"
        }
      ],
      "stateMutability": "nonpayable",
      "type": "function"
    },
    {
      "inputs": [
        {
          "internalType": "address",
          "name": "token",
          "type": "address"
        },
        {
          "internalType": "uint256",
          "name": "liquidity",
          "type": "uint256"
        },
        {
          "internalType": "uint256",
          "name": "amountTokenMin",
          "type": "uint256"
        },
        {
          "internalType": "uint256",
          "name": "amountETHMin",
          "type": "uint256"
        },
        {
          "internalType": "address",
          "name": "to",
          "type": "address"
        },
        {
          "internalType": "uint256",
          "name": "deadline",
          "type": "uint256"
        },
        {
          "internalType": "bool",
          "name": "approveMax",
          "type": "bool"
        },
        {
          "internalType": "uint8",
          "name": "v",
          "type": "uint8"
        },
        {
          "internalType": "bytes32",
          "name": "r",
          "type": "bytes32"
        },
        {
          "internalType": "bytes32",
          "name": "s",
          "type": "bytes32"
        }
      ],
      "name": "removeLiquidityETHWithPermit",
      "outputs": [
        {
          "internalType": "uint256",
          "name": "amountToken",
          "type": "uint256"
        },
        {
          "internalType": "uint256",
          "name": "amountETH",
          "type": "uint256"
        }
      ],
      "stateMutability": "nonpayable",
      "type": "function"
    },
    {
      "inputs": [
        {
          "internalType": "address",
          "name": "token",
          "type": "address"
        },
        {
          "internalType": "uint256",
          "name": "liquidity",
          "type": "uint256"
        },
        {
          "internalType": "uint256",
          "name": "amountTokenMin",
          "type": "uint256"
        },
        {
          "internalType": "uint256",
          "name": "amountETHMin",
          "type": "uint256"
        },
        {
          "internalType": "address",
          "name": "to",
          "type": "address"
        },
        {
          "internalType": "uint256",
          "name": "deadline",
          "type": "uint256"
        },
        {
          "internalType": "bool",
          "name": "approveMax",
          "type": "bool"
        },
        {
          "internalType": "uint8",
          "name": "v",
          "type": "uint8"
        },
        {
          "internalType": "bytes32",
          "name": "r",
          "type": "bytes32"
        },
        {
          "internalType": "bytes32",
          "name": "s",
          "type": "bytes32"
        }
      ],
      "name": "removeLiquidityETHWithPermitSupportingFeeOnTransferTokens",
      "outputs": [
        {
          "internalType": "uint256",
          "name": "amountETH",
          "type": "uint256"
        }
      ],
      "stateMutability": "nonpayable",
      "type": "function"
    },
    {
      "inputs": [
        {
          "internalType": "address",
          "name": "tokenA",
          "type": "address"
        },
        {
          "internalType": "address",
          "name": "tokenB",
          "type": "address"
        },
        {
          "internalType": "uint256",
          "name": "liquidity",
          "type": "uint256"
        },
        {
          "internalType": "uint256",
          "name": "amountAMin",
          "type": "uint256"
        },
        {
          "internalType": "uint256",
          "name": "amountBMin",
          "type": "uint256"
        },
        {
          "internalType": "address",
          "name": "to",
          "type": "address"
        },
        {
          "internalType": "uint256",
          "name": "deadline",
          "type": "uint256"
        },
        {
          "internalType": "bool",
          "name": "approveMax",
          "type": "bool"
        },
        {
          "internalType": "uint8",
          "name": "v",
          "type": "uint8"
        },
        {
          "internalType": "bytes32",
          "name": "r",
          "type": "bytes32"
        },
        {
          "internalType": "bytes32",
          "name": "s",
          "type": "bytes32"
        }
      ],
      "name": "removeLiquidityWithPermit",
      "outputs": [
        {
          "internalType": "uint256",
          "name": "amountA",
          "type": "uint256"
        },
        {
          "internalType": "uint256",
          "name": "amountB",
          "type": "uint256"
        }
      ],
      "stateMutability": "nonpayable",
      "type": "function"
    },
    {
      "inputs": [
        {
          "internalType": "address",
          "name": "_pair",
          "type": "address"
        }
      ],
      "name": "setPairAddress",
      "outputs": [],
      "stateMutability": "nonpayable",
      "type": "function"
    },
    {
      "inputs": [
        {
          "internalType": "uint256",
          "name": "amountOut",
          "type": "uint256"
        },
        {
          "internalType": "address[]",
          "name": "path",
          "type": "address[]"
        },
        {
          "internalType": "address",
          "name": "to",
          "type": "address"
        },
        {
          "internalType": "uint256",
          "name": "deadline",
          "type": "uint256"
        }
      ],
      "name": "swapETHForExactTokens",
      "outputs": [
        {
          "internalType": "uint256[]",
          "name": "amounts",
          "type": "uint256[]"
        }
      ],
      "stateMutability": "payable",
      "type": "function"
    },
    {
      "inputs": [
        {
          "internalType": "uint256",
          "name": "amountOutMin",
          "type": "uint256"
        },
        {
          "internalType": "address[]",
          "name": "path",
          "type": "address[]"
        },
        {
          "internalType": "address",
          "name": "to",
          "type": "address"
        },
        {
          "internalType": "uint256",
          "name": "deadline",
          "type": "uint256"
        }
      ],
      "name": "swapExactETHForTokens",
      "outputs": [
        {
          "internalType": "uint256[]",
          "name": "amounts",
          "type": "uint256[]"
        }
      ],
      "stateMutability": "payable",
      "type": "function"
    },
    {
      "inputs": [
        {
          "internalType": "uint256",
          "name": "amountOutMin",
          "type": "uint256"
        },
        {
          "internalType": "address[]",
          "name": "path",
          "type": "address[]"
        },
        {
          "internalType": "address",
          "name": "to",
          "type": "address"
        },
        {
          "internalType": "uint256",
          "name": "deadline",
          "type": "uint256"
        }
      ],
      "name": "swapExactETHForTokensSupportingFeeOnTransferTokens",
      "outputs": [],
      "stateMutability": "payable",
      "type": "function"
    },
    {
      "inputs": [
        {
          "internalType": "uint256",
          "name": "amountIn",
          "type": "uint256"
        },
        {
          "internalType": "uint256",
          "name": "amountOutMin",
          "type": "uint256"
        },
        {
          "internalType": "address[]",
          "name": "path",
          "type": "address[]"
        },
        {
          "internalType": "address",
          "name": "to",
          "type": "address"
        },
        {
          "internalType": "uint256",
          "name": "deadline",
          "type": "uint256"
        }
      ],
      "name": "swapExactTokensForETH",
      "outputs": [
        {
          "internalType": "uint256[]",
          "name": "amounts",
          "type": "uint256[]"
        }
      ],
      "stateMutability": "nonpayable",
      "type": "function"
    },
    {
      "inputs": [
        {
          "internalType": "uint256",
          "name": "amountIn",
          "type": "uint256"
        },
        {
          "internalType": "uint256",
          "name": "amountOutMin",
          "type": "uint256"
        },
        {
          "internalType": "address[]",
          "name": "path",
          "type": "address[]"
        },
        {
          "internalType": "address",
          "name": "to",
          "type": "address"
        },
        {
          "internalType": "uint256",
          "name": "deadline",
          "type": "uint256"
        }
      ],
      "name": "swapExactTokensForETHSupportingFeeOnTransferTokens",
      "outputs": [],
      "stateMutability": "nonpayable",
      "type": "function"
    },
    {
      "inputs": [
        {
          "internalType": "uint256",
          "name": "amountIn",
          "type": "uint256"
        },
        {
          "internalType": "uint256",
          "name": "amountOutMin",
          "type": "uint256"
        },
        {
          "internalType": "address[]",
          "name": "path",
          "type": "address[]"
        },
        {
          "internalType": "address",
          "name": "to",
          "type": "address"
        },
        {
          "internalType": "uint256",
          "name": "deadline",
          "type": "uint256"
        }
      ],
      "name": "swapExactTokensForTokens",
      "outputs": [
        {
          "internalType": "uint256[]",
          "name": "amounts",
          "type": "uint256[]"
        }
      ],
      "stateMutability": "nonpayable",
      "type": "function"
    },
    {
      "inputs": [
        {
          "internalType": "uint256",
          "name": "amountIn",
          "type": "uint256"
        },
        {
          "internalType": "uint256",
          "name": "amountOutMin",
          "type": "uint256"
        },
        {
          "internalType": "address[]",
          "name": "path",
          "type": "address[]"
        },
        {
          "internalType": "address",
          "name": "to",
          "type": "address"
        },
        {
          "internalType": "uint256",
          "name": "deadline",
          "type": "uint256"
        }
      ],
      "name": "swapExactTokensForTokensSupportingFeeOnTransferTokens",
      "outputs": [],
      "stateMutability": "nonpayable",
      "type": "function"
    },
    {
      "inputs": [
        {
          "internalType": "uint256",
          "name": "amountOut",
          "type": "uint256"
        },
        {
          "internalType": "uint256",
          "name": "amountInMax",
          "type": "uint256"
        },
        {
          "internalType": "address[]",
          "name": "path",
          "type": "address[]"
        },
        {
          "internalType": "address",
          "name": "to",
          "type": "address"
        },
        {
          "internalType": "uint256",
          "name": "deadline",
          "type": "uint256"
        }
      ],
      "name": "swapTokensForExactETH",
      "outputs": [
        {
          "internalType": "uint256[]",
          "name": "amounts",
          "type": "uint256[]"
        }
      ],
      "stateMutability": "nonpayable",
      "type": "function"
    },
    {
      "inputs": [
        {
          "internalType": "uint256",
          "name": "amountOut",
          "type": "uint256"
        },
        {
          "internalType": "uint256",
          "name": "amountInMax",
          "type": "uint256"
        },
        {
          "internalType": "address[]",
          "name": "path",
          "type": "address[]"
        },
        {
          "internalType": "address",
          "name": "to",
          "type": "address"
        },
        {
          "internalType": "uint256",
          "name": "deadline",
          "type": "uint256"
        }
      ],
      "name": "swapTokensForExactTokens",
      "outputs": [
        {
          "internalType": "uint256[]",
          "name": "amounts",
          "type": "uint256[]"
        }
      ],
      "stateMutability": "nonpayable",
      "type": "function"
    },
    {
      "stateMutability": "payable",
      "type": "receive"
    }
  ],
  "transactionHash": "0x40b6bb1d75e3a61a3e6d590d86813866791bc6e10ddf255686a083f66c7eda03",
  "args": [
    "0xDc64a140Aa3E981100a9becA4E685f962f0cF6C9",
    "0x0000000000000000000000000000000000000000"
  ],
  "numDeployments": 1,
  "solcInputHash": "faa73b224782ff5bfc697994c803d222",
  "bytecode": "0x60c06040523480156200001157600080fd5b5060405162006f6e38038062006f6e833981810160405260408110156200003757600080fd5b8101908080519060200190929190805190602001909291905050508173ffffffffffffffffffffffffffffffffffffffff1660808173ffffffffffffffffffffffffffffffffffffffff1660601b815250508073ffffffffffffffffffffffffffffffffffffffff1660a08173ffffffffffffffffffffffffffffffffffffffff1660601b81525050505060805160601c60a05160601c616d65620002096000398061018c5280611652528061169052806117c05280611a9e528061201252806122ed52806123e352806129835280612b705280612ca35280612dbb5280612f83528061301852806134d4528061358b528061367e52806137955280613884528061390552806140fc528061449a52806144f3528061452752806145a852806147e852806149ad5280614a425250806118b252806119be5280611b715280611ba95280611da25280611eae5280612104528061220d52806123c152806125fd5280612aa35280612ea852806130575280613278528061338152806139445280613d77528061407952806140a252806140da528061430c52806144d152806148d55280614a81528061566352806156a75280615a1c5280615c835280616274528061639c52806164b25250616d656000f3fe6080604052600436106101855760003560e01c8063a22d4832116100d1578063baa2abde1161008a578063ded9382a11610064578063ded9382a1461125a578063e8e337001461133c578063f305d71914611422578063fb3bdb41146114d0576101e1565b8063baa2abde1461100b578063c45a0155146110df578063d06ca61f14611136576101e1565b8063a22d483214610d4f578063a8b0898214610da0578063ad5c464814610df7578063ad615dec14610e4e578063af2979eb14610eb1578063b6f9de9514610f5e576101e1565b80634a25d94a1161013e578063791ac94711610118578063791ac94714610a0d5780637ff36ab514610ad157806385f8c25914610bd35780638803dbee14610c36576101e1565b80634a25d94a146107555780635b0d59841461086e5780635c11d79514610949576101e1565b806302751cec146101e6578063054d50d41461029a57806318cbafe5146102fd5780631f00ca74146104165780632195995c1461053a57806338ed17391461063c576101e1565b366101e1577f000000000000000000000000000000000000000000000000000000000000000073ffffffffffffffffffffffffffffffffffffffff163373ffffffffffffffffffffffffffffffffffffffff16146101df57fe5b005b600080fd5b3480156101f257600080fd5b5061027d600480360360c081101561020957600080fd5b81019080803573ffffffffffffffffffffffffffffffffffffffff169060200190929190803590602001909291908035906020019092919080359060200190929190803573ffffffffffffffffffffffffffffffffffffffff169060200190929190803590602001909291905050506115d2565b604051808381526020018281526020019250505060405180910390f35b3480156102a657600080fd5b506102e7600480360360608110156102bd57600080fd5b8101908080359060200190929190803590602001909291908035906020019092919050505061172f565b6040518082815260200191505060405180910390f35b34801561030957600080fd5b506103bf600480360360a081101561032057600080fd5b8101908080359060200190929190803590602001909291908035906020019064010000000081111561035157600080fd5b82018360208201111561036357600080fd5b8035906020019184602083028401116401000000008311171561038557600080fd5b9091929391929390803573ffffffffffffffffffffffffffffffffffffffff16906020019092919080359060200190929190505050611745565b6040518080602001828103825283818151815260200191508051906020019060200280838360005b838110156104025780820151818401526020810190506103e7565b505050509050019250505060405180910390f35b34801561042257600080fd5b506104e36004803603604081101561043957600080fd5b81019080803590602001909291908035906020019064010000000081111561046057600080fd5b82018360208201111561047257600080fd5b8035906020019184602083028401116401000000008311171561049457600080fd5b919080806020026020016040519081016040528093929190818152602001838360200280828437600081840152601f19601f820116905080830192505050505050509192919290505050611b6a565b6040518080602001828103825283818151815260200191508051906020019060200280838360005b8381101561052657808201518184015260208101905061050b565b505050509050019250505060405180910390f35b34801561054657600080fd5b5061061f600480360361016081101561055e57600080fd5b81019080803573ffffffffffffffffffffffffffffffffffffffff169060200190929190803573ffffffffffffffffffffffffffffffffffffffff169060200190929190803590602001909291908035906020019092919080359060200190929190803573ffffffffffffffffffffffffffffffffffffffff16906020019092919080359060200190929190803515159060200190929190803560ff1690602001909291908035906020019092919080359060200190929190505050611b9f565b604051808381526020018281526020019250505060405180910390f35b34801561064857600080fd5b506106fe600480360360a081101561065f57600080fd5b8101908080359060200190929190803590602001909291908035906020019064010000000081111561069057600080fd5b8201836020820111156106a257600080fd5b803590602001918460208302840111640100000000831117156106c457600080fd5b9091929391929390803573ffffffffffffffffffffffffffffffffffffffff16906020019092919080359060200190929190505050611d24565b6040518080602001828103825283818151815260200191508051906020019060200280838360005b83811015610741578082015181840152602081019050610726565b505050509050019250505060405180910390f35b34801561076157600080fd5b50610817600480360360a081101561077857600080fd5b810190808035906020019092919080359060200190929190803590602001906401000000008111156107a957600080fd5b8201836020820111156107bb57600080fd5b803590602001918460208302840111640100000000831117156107dd57600080fd5b9091929391929390803573ffffffffffffffffffffffffffffffffffffffff16906020019092919080359060200190929190505050611f97565b6040518080602001828103825283818151815260200191508051906020019060200280838360005b8381101561085a57808201518184015260208101905061083f565b505050509050019250505060405180910390f35b34801561087a57600080fd5b50610933600480360361014081101561089257600080fd5b81019080803573ffffffffffffffffffffffffffffffffffffffff169060200190929190803590602001909291908035906020019092919080359060200190929190803573ffffffffffffffffffffffffffffffffffffffff16906020019092919080359060200190929190803515159060200190929190803560ff16906020019092919080359060200190929190803590602001909291905050506123b9565b6040518082815260200191505060405180910390f35b34801561095557600080fd5b50610a0b600480360360a081101561096c57600080fd5b8101908080359060200190929190803590602001909291908035906020019064010000000081111561099d57600080fd5b8201836020820111156109af57600080fd5b803590602001918460208302840111640100000000831117156109d157600080fd5b9091929391929390803573ffffffffffffffffffffffffffffffffffffffff16906020019092919080359060200190929190505050612553565b005b348015610a1957600080fd5b50610acf600480360360a0811015610a3057600080fd5b81019080803590602001909291908035906020019092919080359060200190640100000000811115610a6157600080fd5b820183602082011115610a7357600080fd5b80359060200191846020830284011164010000000083111715610a9557600080fd5b9091929391929390803573ffffffffffffffffffffffffffffffffffffffff1690602001909291908035906020019092919050505061290a565b005b610b7c60048036036080811015610ae757600080fd5b810190808035906020019092919080359060200190640100000000811115610b0e57600080fd5b820183602082011115610b2057600080fd5b80359060200191846020830284011164010000000083111715610b4257600080fd5b9091929391929390803573ffffffffffffffffffffffffffffffffffffffff16906020019092919080359060200190929190505050612d40565b6040518080602001828103825283818151815260200191508051906020019060200280838360005b83811015610bbf578082015181840152602081019050610ba4565b505050509050019250505060405180910390f35b348015610bdf57600080fd5b50610c2060048036036060811015610bf657600080fd5b810190808035906020019092919080359060200190929190803590602001909291905050506131e4565b6040518082815260200191505060405180910390f35b348015610c4257600080fd5b50610cf8600480360360a0811015610c5957600080fd5b81019080803590602001909291908035906020019092919080359060200190640100000000811115610c8a57600080fd5b820183602082011115610c9c57600080fd5b80359060200191846020830284011164010000000083111715610cbe57600080fd5b9091929391929390803573ffffffffffffffffffffffffffffffffffffffff169060200190929190803590602001909291905050506131fa565b6040518080602001828103825283818151815260200191508051906020019060200280838360005b83811015610d3b578082015181840152602081019050610d20565b505050509050019250505060405180910390f35b348015610d5b57600080fd5b50610d9e60048036036020811015610d7257600080fd5b81019080803573ffffffffffffffffffffffffffffffffffffffff16906020019092919050505061346a565b005b348015610dac57600080fd5b50610db56134ad565b604051808273ffffffffffffffffffffffffffffffffffffffff1673ffffffffffffffffffffffffffffffffffffffff16815260200191505060405180910390f35b348015610e0357600080fd5b50610e0c6134d2565b604051808273ffffffffffffffffffffffffffffffffffffffff1673ffffffffffffffffffffffffffffffffffffffff16815260200191505060405180910390f35b348015610e5a57600080fd5b50610e9b60048036036060811015610e7157600080fd5b810190808035906020019092919080359060200190929190803590602001909291905050506134f6565b6040518082815260200191505060405180910390f35b348015610ebd57600080fd5b50610f48600480360360c0811015610ed457600080fd5b81019080803573ffffffffffffffffffffffffffffffffffffffff169060200190929190803590602001909291908035906020019092919080359060200190929190803573ffffffffffffffffffffffffffffffffffffffff1690602001909291908035906020019092919050505061350c565b6040518082815260200191505060405180910390f35b61100960048036036080811015610f7457600080fd5b810190808035906020019092919080359060200190640100000000811115610f9b57600080fd5b820183602082011115610fad57600080fd5b80359060200191846020830284011164010000000083111715610fcf57600080fd5b9091929391929390803573ffffffffffffffffffffffffffffffffffffffff1690602001909291908035906020019092919050505061371c565b005b34801561101757600080fd5b506110c2600480360360e081101561102e57600080fd5b81019080803573ffffffffffffffffffffffffffffffffffffffff169060200190929190803573ffffffffffffffffffffffffffffffffffffffff169060200190929190803590602001909291908035906020019092919080359060200190929190803573ffffffffffffffffffffffffffffffffffffffff16906020019092919080359060200190929190505050613cf6565b604051808381526020018281526020019250505060405180910390f35b3480156110eb57600080fd5b506110f4614077565b604051808273ffffffffffffffffffffffffffffffffffffffff1673ffffffffffffffffffffffffffffffffffffffff16815260200191505060405180910390f35b34801561114257600080fd5b506112036004803603604081101561115957600080fd5b81019080803590602001909291908035906020019064010000000081111561118057600080fd5b82018360208201111561119257600080fd5b803590602001918460208302840111640100000000831117156111b457600080fd5b919080806020026020016040519081016040528093929190818152602001838360200280828437600081840152601f19601f82011690508083019250505050505050919291929050505061409b565b6040518080602001828103825283818151815260200191508051906020019060200280838360005b8381101561124657808201518184015260208101905061122b565b505050509050019250505060405180910390f35b34801561126657600080fd5b5061131f600480360361014081101561127e57600080fd5b81019080803573ffffffffffffffffffffffffffffffffffffffff169060200190929190803590602001909291908035906020019092919080359060200190929190803573ffffffffffffffffffffffffffffffffffffffff16906020019092919080359060200190929190803515159060200190929190803560ff16906020019092919080359060200190929190803590602001909291905050506140d0565b604051808381526020018281526020019250505060405180910390f35b34801561134857600080fd5b506113fe600480360361010081101561136057600080fd5b81019080803573ffffffffffffffffffffffffffffffffffffffff169060200190929190803573ffffffffffffffffffffffffffffffffffffffff16906020019092919080359060200190929190803590602001909291908035906020019092919080359060200190929190803573ffffffffffffffffffffffffffffffffffffffff16906020019092919080359060200190929190505050614273565b60405180848152602001838152602001828152602001935050505060405180910390f35b6114ac600480360360c081101561143857600080fd5b81019080803573ffffffffffffffffffffffffffffffffffffffff169060200190929190803590602001909291908035906020019092919080359060200190929190803573ffffffffffffffffffffffffffffffffffffffff16906020019092919080359060200190929190505050614418565b60405180848152602001838152602001828152602001935050505060405180910390f35b61157b600480360360808110156114e657600080fd5b81019080803590602001909291908035906020019064010000000081111561150d57600080fd5b82018360208201111561151f57600080fd5b8035906020019184602083028401116401000000008311171561154157600080fd5b9091929391929390803573ffffffffffffffffffffffffffffffffffffffff1690602001909291908035906020019092919050505061476d565b6040518080602001828103825283818151815260200191508051906020019060200280838360005b838110156115be5780820151818401526020810190506115a3565b505050509050019250505060405180910390f35b600080824281101561164c576040517f08c379a00000000000000000000000000000000000000000000000000000000081526004018080602001828103825260168152602001807f50616e63616b65526f757465723a20455850495245440000000000000000000081525060200191505060405180910390fd5b61167b897f00000000000000000000000000000000000000000000000000000000000000008a8a8a308a613cf6565b809350819450505061168e898685614c4b565b7f000000000000000000000000000000000000000000000000000000000000000073ffffffffffffffffffffffffffffffffffffffff16632e1a7d4d836040518263ffffffff1660e01b815260040180828152602001915050600060405180830381600087803b15801561170157600080fd5b505af1158015611715573d6000803e3d6000fd5b505050506117238583614e27565b50965096945050505050565b600061173c848484614f86565b90509392505050565b606081428110156117be576040517f08c379a00000000000000000000000000000000000000000000000000000000081526004018080602001828103825260168152602001807f50616e63616b65526f757465723a20455850495245440000000000000000000081525060200191505060405180910390fd5b7f000000000000000000000000000000000000000000000000000000000000000073ffffffffffffffffffffffffffffffffffffffff1686866001898990500381811061180757fe5b9050602002013573ffffffffffffffffffffffffffffffffffffffff1673ffffffffffffffffffffffffffffffffffffffff16146118ad576040517f08c379a000000000000000000000000000000000000000000000000000000000815260040180806020018281038252601b8152602001807f50616e63616b65526f757465723a20494e56414c49445f50415448000000000081525060200191505060405180910390fd5b6119197f000000000000000000000000000000000000000000000000000000000000000089888880806020026020016040519081016040528093929190818152602001838360200280828437600081840152601f19601f820116905080830192505050505050506150b6565b9150868260018451038151811061192c57fe5b6020026020010151101561198b576040517f08c379a0000000000000000000000000000000000000000000000000000000008152600401808060200182810382526029815260200180616c016029913960400191505060405180910390fd5b611a508686600081811061199b57fe5b9050602002013573ffffffffffffffffffffffffffffffffffffffff1633611a367f00000000000000000000000000000000000000000000000000000000000000008a8a60008181106119ea57fe5b9050602002013573ffffffffffffffffffffffffffffffffffffffff168b8b6001818110611a1457fe5b9050602002013573ffffffffffffffffffffffffffffffffffffffff1661522e565b85600081518110611a4357fe5b6020026020010151615389565b611a9c82878780806020026020016040519081016040528093929190818152602001838360200280828437600081840152601f19601f820116905080830192505050505050503061559a565b7f000000000000000000000000000000000000000000000000000000000000000073ffffffffffffffffffffffffffffffffffffffff16632e1a7d4d83600185510381518110611ae857fe5b60200260200101516040518263ffffffff1660e01b815260040180828152602001915050600060405180830381600087803b158015611b2657600080fd5b505af1158015611b3a573d6000803e3d6000fd5b50505050611b5f8483600185510381518110611b5257fe5b6020026020010151614e27565b509695505050505050565b6060611b977f00000000000000000000000000000000000000000000000000000000000000008484615845565b905092915050565b6000806000611bcf7f00000000000000000000000000000000000000000000000000000000000000008f8f61522e565b9050600087611bde578c611c00565b7fffffffffffffffffffffffffffffffffffffffffffffffffffffffffffffffff5b90508173ffffffffffffffffffffffffffffffffffffffff1663d505accf3330848d8c8c8c6040518863ffffffff1660e01b8152600401808873ffffffffffffffffffffffffffffffffffffffff1673ffffffffffffffffffffffffffffffffffffffff1681526020018773ffffffffffffffffffffffffffffffffffffffff1673ffffffffffffffffffffffffffffffffffffffff1681526020018681526020018581526020018460ff1660ff168152602001838152602001828152602001975050505050505050600060405180830381600087803b158015611ce357600080fd5b505af1158015611cf7573d6000803e3d6000fd5b50505050611d0a8f8f8f8f8f8f8f613cf6565b809450819550505050509b509b9950505050505050505050565b60608142811015611d9d576040517f08c379a00000000000000000000000000000000000000000000000000000000081526004018080602001828103825260168152602001807f50616e63616b65526f757465723a20455850495245440000000000000000000081525060200191505060405180910390fd5b611e097f000000000000000000000000000000000000000000000000000000000000000089888880806020026020016040519081016040528093929190818152602001838360200280828437600081840152601f19601f820116905080830192505050505050506150b6565b91508682600184510381518110611e1c57fe5b60200260200101511015611e7b576040517f08c379a0000000000000000000000000000000000000000000000000000000008152600401808060200182810382526029815260200180616c016029913960400191505060405180910390fd5b611f4086866000818110611e8b57fe5b9050602002013573ffffffffffffffffffffffffffffffffffffffff1633611f267f00000000000000000000000000000000000000000000000000000000000000008a8a6000818110611eda57fe5b9050602002013573ffffffffffffffffffffffffffffffffffffffff168b8b6001818110611f0457fe5b9050602002013573ffffffffffffffffffffffffffffffffffffffff1661522e565b85600081518110611f3357fe5b6020026020010151615389565b611f8c82878780806020026020016040519081016040528093929190818152602001838360200280828437600081840152601f19601f820116905080830192505050505050508661559a565b509695505050505050565b60608142811015612010576040517f08c379a00000000000000000000000000000000000000000000000000000000081526004018080602001828103825260168152602001807f50616e63616b65526f757465723a20455850495245440000000000000000000081525060200191505060405180910390fd5b7f000000000000000000000000000000000000000000000000000000000000000073ffffffffffffffffffffffffffffffffffffffff1686866001898990500381811061205957fe5b9050602002013573ffffffffffffffffffffffffffffffffffffffff1673ffffffffffffffffffffffffffffffffffffffff16146120ff576040517f08c379a000000000000000000000000000000000000000000000000000000000815260040180806020018281038252601b8152602001807f50616e63616b65526f757465723a20494e56414c49445f50415448000000000081525060200191505060405180910390fd5b61216b7f000000000000000000000000000000000000000000000000000000000000000089888880806020026020016040519081016040528093929190818152602001838360200280828437600081840152601f19601f82011690508083019250505050505050615845565b9150868260008151811061217b57fe5b602002602001015111156121da576040517f08c379a0000000000000000000000000000000000000000000000000000000008152600401808060200182810382526025815260200180616cc16025913960400191505060405180910390fd5b61229f868660008181106121ea57fe5b9050602002013573ffffffffffffffffffffffffffffffffffffffff16336122857f00000000000000000000000000000000000000000000000000000000000000008a8a600081811061223957fe5b9050602002013573ffffffffffffffffffffffffffffffffffffffff168b8b600181811061226357fe5b9050602002013573ffffffffffffffffffffffffffffffffffffffff1661522e565b8560008151811061229257fe5b6020026020010151615389565b6122eb82878780806020026020016040519081016040528093929190818152602001838360200280828437600081840152601f19601f820116905080830192505050505050503061559a565b7f000000000000000000000000000000000000000000000000000000000000000073ffffffffffffffffffffffffffffffffffffffff16632e1a7d4d8360018551038151811061233757fe5b60200260200101516040518263ffffffff1660e01b815260040180828152602001915050600060405180830381600087803b15801561237557600080fd5b505af1158015612389573d6000803e3d6000fd5b505050506123ae84836001855103815181106123a157fe5b6020026020010151614e27565b509695505050505050565b6000806124077f00000000000000000000000000000000000000000000000000000000000000008d7f000000000000000000000000000000000000000000000000000000000000000061522e565b9050600086612416578b612438565b7fffffffffffffffffffffffffffffffffffffffffffffffffffffffffffffffff5b90508173ffffffffffffffffffffffffffffffffffffffff1663d505accf3330848c8b8b8b6040518863ffffffff1660e01b8152600401808873ffffffffffffffffffffffffffffffffffffffff1673ffffffffffffffffffffffffffffffffffffffff1681526020018773ffffffffffffffffffffffffffffffffffffffff1673ffffffffffffffffffffffffffffffffffffffff1681526020018681526020018581526020018460ff1660ff168152602001838152602001828152602001975050505050505050600060405180830381600087803b15801561251b57600080fd5b505af115801561252f573d6000803e3d6000fd5b505050506125418d8d8d8d8d8d61350c565b925050509a9950505050505050505050565b80428110156125ca576040517f08c379a00000000000000000000000000000000000000000000000000000000081526004018080602001828103825260168152602001807f50616e63616b65526f757465723a20455850495245440000000000000000000081525060200191505060405180910390fd5b61267b858560008181106125da57fe5b9050602002013573ffffffffffffffffffffffffffffffffffffffff16336126757f00000000000000000000000000000000000000000000000000000000000000008989600081811061262957fe5b9050602002013573ffffffffffffffffffffffffffffffffffffffff168a8a600181811061265357fe5b9050602002013573ffffffffffffffffffffffffffffffffffffffff1661522e565b8a615389565b600085856001888890500381811061268f57fe5b9050602002013573ffffffffffffffffffffffffffffffffffffffff1673ffffffffffffffffffffffffffffffffffffffff166370a08231856040518263ffffffff1660e01b8152600401808273ffffffffffffffffffffffffffffffffffffffff1673ffffffffffffffffffffffffffffffffffffffff16815260200191505060206040518083038186803b15801561272857600080fd5b505afa15801561273c573d6000803e3d6000fd5b505050506040513d602081101561275257600080fd5b810190808051906020019092919050505090506127b0868680806020026020016040519081016040528093929190818152602001838360200280828437600081840152601f19601f82011690508083019250505050505050856159c5565b866128a982888860018b8b9050038181106127c757fe5b9050602002013573ffffffffffffffffffffffffffffffffffffffff1673ffffffffffffffffffffffffffffffffffffffff166370a08231886040518263ffffffff1660e01b8152600401808273ffffffffffffffffffffffffffffffffffffffff1673ffffffffffffffffffffffffffffffffffffffff16815260200191505060206040518083038186803b15801561286057600080fd5b505afa158015612874573d6000803e3d6000fd5b505050506040513d602081101561288a57600080fd5b8101908080519060200190929190505050615e3c90919063ffffffff16565b1015612900576040517f08c379a0000000000000000000000000000000000000000000000000000000008152600401808060200182810382526029815260200180616c016029913960400191505060405180910390fd5b5050505050505050565b8042811015612981576040517f08c379a00000000000000000000000000000000000000000000000000000000081526004018080602001828103825260168152602001807f50616e63616b65526f757465723a20455850495245440000000000000000000081525060200191505060405180910390fd5b7f000000000000000000000000000000000000000000000000000000000000000073ffffffffffffffffffffffffffffffffffffffff168585600188889050038181106129ca57fe5b9050602002013573ffffffffffffffffffffffffffffffffffffffff1673ffffffffffffffffffffffffffffffffffffffff1614612a70576040517f08c379a000000000000000000000000000000000000000000000000000000000815260040180806020018281038252601b8152602001807f50616e63616b65526f757465723a20494e56414c49445f50415448000000000081525060200191505060405180910390fd5b612b2185856000818110612a8057fe5b9050602002013573ffffffffffffffffffffffffffffffffffffffff1633612b1b7f000000000000000000000000000000000000000000000000000000000000000089896000818110612acf57fe5b9050602002013573ffffffffffffffffffffffffffffffffffffffff168a8a6001818110612af957fe5b9050602002013573ffffffffffffffffffffffffffffffffffffffff1661522e565b8a615389565b612b6c858580806020026020016040519081016040528093929190818152602001838360200280828437600081840152601f19601f82011690508083019250505050505050306159c5565b60007f000000000000000000000000000000000000000000000000000000000000000073ffffffffffffffffffffffffffffffffffffffff166370a08231306040518263ffffffff1660e01b8152600401808273ffffffffffffffffffffffffffffffffffffffff1673ffffffffffffffffffffffffffffffffffffffff16815260200191505060206040518083038186803b158015612c0b57600080fd5b505afa158015612c1f573d6000803e3d6000fd5b505050506040513d6020811015612c3557600080fd5b8101908080519060200190929190505050905086811015612ca1576040517f08c379a0000000000000000000000000000000000000000000000000000000008152600401808060200182810382526029815260200180616c016029913960400191505060405180910390fd5b7f000000000000000000000000000000000000000000000000000000000000000073ffffffffffffffffffffffffffffffffffffffff16632e1a7d4d826040518263ffffffff1660e01b815260040180828152602001915050600060405180830381600087803b158015612d1457600080fd5b505af1158015612d28573d6000803e3d6000fd5b50505050612d368482614e27565b5050505050505050565b60608142811015612db9576040517f08c379a00000000000000000000000000000000000000000000000000000000081526004018080602001828103825260168152602001807f50616e63616b65526f757465723a20455850495245440000000000000000000081525060200191505060405180910390fd5b7f000000000000000000000000000000000000000000000000000000000000000073ffffffffffffffffffffffffffffffffffffffff1686866000818110612dfd57fe5b9050602002013573ffffffffffffffffffffffffffffffffffffffff1673ffffffffffffffffffffffffffffffffffffffff1614612ea3576040517f08c379a000000000000000000000000000000000000000000000000000000000815260040180806020018281038252601b8152602001807f50616e63616b65526f757465723a20494e56414c49445f50415448000000000081525060200191505060405180910390fd5b612f0f7f000000000000000000000000000000000000000000000000000000000000000034888880806020026020016040519081016040528093929190818152602001838360200280828437600081840152601f19601f820116905080830192505050505050506150b6565b91508682600184510381518110612f2257fe5b60200260200101511015612f81576040517f08c379a0000000000000000000000000000000000000000000000000000000008152600401808060200182810382526029815260200180616c016029913960400191505060405180910390fd5b7f000000000000000000000000000000000000000000000000000000000000000073ffffffffffffffffffffffffffffffffffffffff1663d0e30db083600081518110612fca57fe5b60200260200101516040518263ffffffff1660e01b81526004016000604051808303818588803b158015612ffd57600080fd5b505af1158015613011573d6000803e3d6000fd5b50505050507f000000000000000000000000000000000000000000000000000000000000000073ffffffffffffffffffffffffffffffffffffffff1663a9059cbb6130cf7f00000000000000000000000000000000000000000000000000000000000000008989600081811061308357fe5b9050602002013573ffffffffffffffffffffffffffffffffffffffff168a8a60018181106130ad57fe5b9050602002013573ffffffffffffffffffffffffffffffffffffffff1661522e565b846000815181106130dc57fe5b60200260200101516040518363ffffffff1660e01b8152600401808373ffffffffffffffffffffffffffffffffffffffff1673ffffffffffffffffffffffffffffffffffffffff16815260200182815260200192505050602060405180830381600087803b15801561314d57600080fd5b505af1158015613161573d6000803e3d6000fd5b505050506040513d602081101561317757600080fd5b810190808051906020019092919050505061318e57fe5b6131da82878780806020026020016040519081016040528093929190818152602001838360200280828437600081840152601f19601f820116905080830192505050505050508661559a565b5095945050505050565b60006131f1848484615ebf565b90509392505050565b60608142811015613273576040517f08c379a00000000000000000000000000000000000000000000000000000000081526004018080602001828103825260168152602001807f50616e63616b65526f757465723a20455850495245440000000000000000000081525060200191505060405180910390fd5b6132df7f000000000000000000000000000000000000000000000000000000000000000089888880806020026020016040519081016040528093929190818152602001838360200280828437600081840152601f19601f82011690508083019250505050505050615845565b915086826000815181106132ef57fe5b6020026020010151111561334e576040517f08c379a0000000000000000000000000000000000000000000000000000000008152600401808060200182810382526025815260200180616cc16025913960400191505060405180910390fd5b6134138686600081811061335e57fe5b9050602002013573ffffffffffffffffffffffffffffffffffffffff16336133f97f00000000000000000000000000000000000000000000000000000000000000008a8a60008181106133ad57fe5b9050602002013573ffffffffffffffffffffffffffffffffffffffff168b8b60018181106133d757fe5b9050602002013573ffffffffffffffffffffffffffffffffffffffff1661522e565b8560008151811061340657fe5b6020026020010151615389565b61345f82878780806020026020016040519081016040528093929190818152602001838360200280828437600081840152601f19601f820116905080830192505050505050508661559a565b509695505050505050565b806000806101000a81548173ffffffffffffffffffffffffffffffffffffffff021916908373ffffffffffffffffffffffffffffffffffffffff16021790555050565b6000809054906101000a900473ffffffffffffffffffffffffffffffffffffffff1681565b7f000000000000000000000000000000000000000000000000000000000000000081565b6000613503848484615ffc565b90509392505050565b60008142811015613585576040517f08c379a00000000000000000000000000000000000000000000000000000000081526004018080602001828103825260168152602001807f50616e63616b65526f757465723a20455850495245440000000000000000000081525060200191505060405180910390fd5b6135b4887f00000000000000000000000000000000000000000000000000000000000000008989893089613cf6565b90508092505061367c88858a73ffffffffffffffffffffffffffffffffffffffff166370a08231306040518263ffffffff1660e01b8152600401808273ffffffffffffffffffffffffffffffffffffffff1673ffffffffffffffffffffffffffffffffffffffff16815260200191505060206040518083038186803b15801561363c57600080fd5b505afa158015613650573d6000803e3d6000fd5b505050506040513d602081101561366657600080fd5b8101908080519060200190929190505050614c4b565b7f000000000000000000000000000000000000000000000000000000000000000073ffffffffffffffffffffffffffffffffffffffff16632e1a7d4d836040518263ffffffff1660e01b815260040180828152602001915050600060405180830381600087803b1580156136ef57600080fd5b505af1158015613703573d6000803e3d6000fd5b505050506137118483614e27565b509695505050505050565b8042811015613793576040517f08c379a00000000000000000000000000000000000000000000000000000000081526004018080602001828103825260168152602001807f50616e63616b65526f757465723a20455850495245440000000000000000000081525060200191505060405180910390fd5b7f000000000000000000000000000000000000000000000000000000000000000073ffffffffffffffffffffffffffffffffffffffff16858560008181106137d757fe5b9050602002013573ffffffffffffffffffffffffffffffffffffffff1673ffffffffffffffffffffffffffffffffffffffff161461387d576040517f08c379a000000000000000000000000000000000000000000000000000000000815260040180806020018281038252601b8152602001807f50616e63616b65526f757465723a20494e56414c49445f50415448000000000081525060200191505060405180910390fd5b60003490507f000000000000000000000000000000000000000000000000000000000000000073ffffffffffffffffffffffffffffffffffffffff1663d0e30db0826040518263ffffffff1660e01b81526004016000604051808303818588803b1580156138ea57600080fd5b505af11580156138fe573d6000803e3d6000fd5b50505050507f000000000000000000000000000000000000000000000000000000000000000073ffffffffffffffffffffffffffffffffffffffff1663a9059cbb6139bc7f00000000000000000000000000000000000000000000000000000000000000008989600081811061397057fe5b9050602002013573ffffffffffffffffffffffffffffffffffffffff168a8a600181811061399a57fe5b9050602002013573ffffffffffffffffffffffffffffffffffffffff1661522e565b836040518363ffffffff1660e01b8152600401808373ffffffffffffffffffffffffffffffffffffffff1673ffffffffffffffffffffffffffffffffffffffff16815260200182815260200192505050602060405180830381600087803b158015613a2657600080fd5b505af1158015613a3a573d6000803e3d6000fd5b505050506040513d6020811015613a5057600080fd5b8101908080519060200190929190505050613a6757fe5b6000868660018989905003818110613a7b57fe5b9050602002013573ffffffffffffffffffffffffffffffffffffffff1673ffffffffffffffffffffffffffffffffffffffff166370a08231866040518263ffffffff1660e01b8152600401808273ffffffffffffffffffffffffffffffffffffffff1673ffffffffffffffffffffffffffffffffffffffff16815260200191505060206040518083038186803b158015613b1457600080fd5b505afa158015613b28573d6000803e3d6000fd5b505050506040513d6020811015613b3e57600080fd5b81019080805190602001909291905050509050613b9c878780806020026020016040519081016040528093929190818152602001838360200280828437600081840152601f19601f82011690508083019250505050505050866159c5565b87613c9582898960018c8c905003818110613bb357fe5b9050602002013573ffffffffffffffffffffffffffffffffffffffff1673ffffffffffffffffffffffffffffffffffffffff166370a08231896040518263ffffffff1660e01b8152600401808273ffffffffffffffffffffffffffffffffffffffff1673ffffffffffffffffffffffffffffffffffffffff16815260200191505060206040518083038186803b158015613c4c57600080fd5b505afa158015613c60573d6000803e3d6000fd5b505050506040513d6020811015613c7657600080fd5b8101908080519060200190929190505050615e3c90919063ffffffff16565b1015613cec576040517f08c379a0000000000000000000000000000000000000000000000000000000008152600401808060200182810382526029815260200180616c016029913960400191505060405180910390fd5b5050505050505050565b6000808242811015613d70576040517f08c379a00000000000000000000000000000000000000000000000000000000081526004018080602001828103825260168152602001807f50616e63616b65526f757465723a20455850495245440000000000000000000081525060200191505060405180910390fd5b6000613d9d7f00000000000000000000000000000000000000000000000000000000000000008c8c61522e565b90508073ffffffffffffffffffffffffffffffffffffffff166323b872dd33838c6040518463ffffffff1660e01b8152600401808473ffffffffffffffffffffffffffffffffffffffff1673ffffffffffffffffffffffffffffffffffffffff1681526020018373ffffffffffffffffffffffffffffffffffffffff1673ffffffffffffffffffffffffffffffffffffffff1681526020018281526020019350505050602060405180830381600087803b158015613e5a57600080fd5b505af1158015613e6e573d6000803e3d6000fd5b505050506040513d6020811015613e8457600080fd5b8101908080519060200190929190505050506000808273ffffffffffffffffffffffffffffffffffffffff166389afcb44896040518263ffffffff1660e01b8152600401808273ffffffffffffffffffffffffffffffffffffffff1673ffffffffffffffffffffffffffffffffffffffff1681526020019150506040805180830381600087803b158015613f1757600080fd5b505af1158015613f2b573d6000803e3d6000fd5b505050506040513d6040811015613f4157600080fd5b810190808051906020019092919080519060200190929190505050915091506000613f6c8e8e6160e0565b5090508073ffffffffffffffffffffffffffffffffffffffff168e73ffffffffffffffffffffffffffffffffffffffff1614613fa9578183613fac565b82825b80975081985050508a87101561400d576040517f08c379a0000000000000000000000000000000000000000000000000000000008152600401808060200182810382526024815260200180616c4d6024913960400191505060405180910390fd5b89861015614066576040517f08c379a0000000000000000000000000000000000000000000000000000000008152600401808060200182810382526024815260200180616d0c6024913960400191505060405180910390fd5b505050505097509795505050505050565b7f000000000000000000000000000000000000000000000000000000000000000081565b60606140c87f000000000000000000000000000000000000000000000000000000000000000084846150b6565b905092915050565b60008060006141207f00000000000000000000000000000000000000000000000000000000000000008e7f000000000000000000000000000000000000000000000000000000000000000061522e565b905060008761412f578c614151565b7fffffffffffffffffffffffffffffffffffffffffffffffffffffffffffffffff5b90508173ffffffffffffffffffffffffffffffffffffffff1663d505accf3330848d8c8c8c6040518863ffffffff1660e01b8152600401808873ffffffffffffffffffffffffffffffffffffffff1673ffffffffffffffffffffffffffffffffffffffff1681526020018773ffffffffffffffffffffffffffffffffffffffff1673ffffffffffffffffffffffffffffffffffffffff1681526020018681526020018581526020018460ff1660ff168152602001838152602001828152602001975050505050505050600060405180830381600087803b15801561423457600080fd5b505af1158015614248573d6000803e3d6000fd5b5050505061425a8e8e8e8e8e8e6115d2565b809450819550505050509a509a98505050505050505050565b600080600083428110156142ef576040517f08c379a00000000000000000000000000000000000000000000000000000000081526004018080602001828103825260168152602001807f50616e63616b65526f757465723a20455850495245440000000000000000000081525060200191505060405180910390fd5b6142fd8c8c8c8c8c8c616257565b809450819550505060006143327f00000000000000000000000000000000000000000000000000000000000000008e8e61522e565b90506143408d338388615389565b61434c8c338387615389565b8073ffffffffffffffffffffffffffffffffffffffff16636a627842886040518263ffffffff1660e01b8152600401808273ffffffffffffffffffffffffffffffffffffffff1673ffffffffffffffffffffffffffffffffffffffff168152602001915050602060405180830381600087803b1580156143cb57600080fd5b505af11580156143df573d6000803e3d6000fd5b505050506040513d60208110156143f557600080fd5b810190808051906020019092919050505092505050985098509895505050505050565b60008060008342811015614494576040517f08c379a00000000000000000000000000000000000000000000000000000000081526004018080602001828103825260168152602001807f50616e63616b65526f757465723a20455850495245440000000000000000000081525060200191505060405180910390fd5b6144c28a7f00000000000000000000000000000000000000000000000000000000000000008b348c8c616257565b809450819550505060006145177f00000000000000000000000000000000000000000000000000000000000000008c7f000000000000000000000000000000000000000000000000000000000000000061522e565b90506145258b338388615389565b7f000000000000000000000000000000000000000000000000000000000000000073ffffffffffffffffffffffffffffffffffffffff1663d0e30db0856040518263ffffffff1660e01b81526004016000604051808303818588803b15801561458d57600080fd5b505af11580156145a1573d6000803e3d6000fd5b50505050507f000000000000000000000000000000000000000000000000000000000000000073ffffffffffffffffffffffffffffffffffffffff1663a9059cbb82866040518363ffffffff1660e01b8152600401808373ffffffffffffffffffffffffffffffffffffffff1673ffffffffffffffffffffffffffffffffffffffff16815260200182815260200192505050602060405180830381600087803b15801561464d57600080fd5b505af1158015614661573d6000803e3d6000fd5b505050506040513d602081101561467757600080fd5b810190808051906020019092919050505061468e57fe5b8073ffffffffffffffffffffffffffffffffffffffff16636a627842886040518263ffffffff1660e01b8152600401808273ffffffffffffffffffffffffffffffffffffffff1673ffffffffffffffffffffffffffffffffffffffff168152602001915050602060405180830381600087803b15801561470d57600080fd5b505af1158015614721573d6000803e3d6000fd5b505050506040513d602081101561473757600080fd5b810190808051906020019092919050505092508334111561475f5761475e33853403614e27565b5b505096509650969350505050565b606081428110156147e6576040517f08c379a00000000000000000000000000000000000000000000000000000000081526004018080602001828103825260168152602001807f50616e63616b65526f757465723a20455850495245440000000000000000000081525060200191505060405180910390fd5b7f000000000000000000000000000000000000000000000000000000000000000073ffffffffffffffffffffffffffffffffffffffff168686600081811061482a57fe5b9050602002013573ffffffffffffffffffffffffffffffffffffffff1673ffffffffffffffffffffffffffffffffffffffff16146148d0576040517f08c379a000000000000000000000000000000000000000000000000000000000815260040180806020018281038252601b8152602001807f50616e63616b65526f757465723a20494e56414c49445f50415448000000000081525060200191505060405180910390fd5b61493c7f000000000000000000000000000000000000000000000000000000000000000088888880806020026020016040519081016040528093929190818152602001838360200280828437600081840152601f19601f82011690508083019250505050505050615845565b9150348260008151811061494c57fe5b602002602001015111156149ab576040517f08c379a0000000000000000000000000000000000000000000000000000000008152600401808060200182810382526025815260200180616cc16025913960400191505060405180910390fd5b7f000000000000000000000000000000000000000000000000000000000000000073ffffffffffffffffffffffffffffffffffffffff1663d0e30db0836000815181106149f457fe5b60200260200101516040518263ffffffff1660e01b81526004016000604051808303818588803b158015614a2757600080fd5b505af1158015614a3b573d6000803e3d6000fd5b50505050507f000000000000000000000000000000000000000000000000000000000000000073ffffffffffffffffffffffffffffffffffffffff1663a9059cbb614af97f000000000000000000000000000000000000000000000000000000000000000089896000818110614aad57fe5b9050602002013573ffffffffffffffffffffffffffffffffffffffff168a8a6001818110614ad757fe5b9050602002013573ffffffffffffffffffffffffffffffffffffffff1661522e565b84600081518110614b0657fe5b60200260200101516040518363ffffffff1660e01b8152600401808373ffffffffffffffffffffffffffffffffffffffff1673ffffffffffffffffffffffffffffffffffffffff16815260200182815260200192505050602060405180830381600087803b158015614b7757600080fd5b505af1158015614b8b573d6000803e3d6000fd5b505050506040513d6020811015614ba157600080fd5b8101908080519060200190929190505050614bb857fe5b614c0482878780806020026020016040519081016040528093929190818152602001838360200280828437600081840152601f19601f820116905080830192505050505050508661559a565b81600081518110614c1157fe5b6020026020010151341115614c4157614c403383600081518110614c3157fe5b60200260200101513403614e27565b5b5095945050505050565b600060608473ffffffffffffffffffffffffffffffffffffffff1663a9059cbb8585604051602401808373ffffffffffffffffffffffffffffffffffffffff1673ffffffffffffffffffffffffffffffffffffffff168152602001828152602001925050506040516020818303038152906040529060e01b6020820180517bffffffffffffffffffffffffffffffffffffffffffffffffffffffff83818316178352505050506040518082805190602001908083835b60208310614d245780518252602082019150602081019050602083039250614d01565b6001836020036101000a0380198251168184511680821785525050505050509050019150506000604051808303816000865af19150503d8060008114614d86576040519150601f19603f3d011682016040523d82523d6000602084013e614d8b565b606091505b5091509150818015614dcb5750600081511480614dca5750808060200190516020811015614db857600080fd5b81019080805190602001909291905050505b5b614e20576040517f08c379a000000000000000000000000000000000000000000000000000000000815260040180806020018281038252602d815260200180616c94602d913960400191505060405180910390fd5b5050505050565b60008273ffffffffffffffffffffffffffffffffffffffff1682600067ffffffffffffffff81118015614e5957600080fd5b506040519080825280601f01601f191660200182016040528015614e8c5781602001600182028036833780820191505090505b506040518082805190602001908083835b60208310614ec05780518252602082019150602081019050602083039250614e9d565b6001836020036101000a03801982511681845116808217855250505050505090500191505060006040518083038185875af1925050503d8060008114614f22576040519150601f19603f3d011682016040523d82523d6000602084013e614f27565b606091505b5050905080614f81576040517f08c379a0000000000000000000000000000000000000000000000000000000008152600401808060200182810382526034815260200180616bcd6034913960400191505060405180910390fd5b505050565b6000808411614fe0576040517f08c379a0000000000000000000000000000000000000000000000000000000008152600401808060200182810382526029815260200180616b496029913960400191505060405180910390fd5b600083118015614ff05750600082115b615045576040517f08c379a0000000000000000000000000000000000000000000000000000000008152600401808060200182810382526026815260200180616ce66026913960400191505060405180910390fd5b600061505c6126f78661660b90919063ffffffff16565b90506000615073848361660b90919063ffffffff16565b9050600061509e836150906127108961660b90919063ffffffff16565b6166a090919063ffffffff16565b90508082816150a957fe5b0493505050509392505050565b6060600282511015615130576040517f08c379a000000000000000000000000000000000000000000000000000000000815260040180806020018281038252601c8152602001807f50616e63616b654c6962726172793a20494e56414c49445f504154480000000081525060200191505060405180910390fd5b815167ffffffffffffffff8111801561514857600080fd5b506040519080825280602002602001820160405280156151775781602001602082028036833780820191505090505b509050828160008151811061518857fe5b60200260200101818152505060005b6001835103811015615226576000806151da878685815181106151b657fe5b60200260200101518760018701815181106151cd57fe5b6020026020010151616723565b915091506151fc8484815181106151ed57fe5b60200260200101518383614f86565b84600185018151811061520b57fe5b60200260200101818152505050508080600101915050615197565b509392505050565b600080600061523d85856160e0565b91509150858282604051602001808373ffffffffffffffffffffffffffffffffffffffff1673ffffffffffffffffffffffffffffffffffffffff1660601b81526014018273ffffffffffffffffffffffffffffffffffffffff1673ffffffffffffffffffffffffffffffffffffffff1660601b8152601401925050506040516020818303038152906040528051906020012060405160200180807fff000000000000000000000000000000000000000000000000000000000000008152506001018373ffffffffffffffffffffffffffffffffffffffff1673ffffffffffffffffffffffffffffffffffffffff1660601b8152601401828152602001807f295e3a9806e1c742fa923111c7ad15a89cbd839dd5f32fbae63647a4a57726c2815250602001925050506040516020818303038152906040528051906020012060001c925050509392505050565b600060608573ffffffffffffffffffffffffffffffffffffffff166323b872dd868686604051602401808473ffffffffffffffffffffffffffffffffffffffff1673ffffffffffffffffffffffffffffffffffffffff1681526020018373ffffffffffffffffffffffffffffffffffffffff1673ffffffffffffffffffffffffffffffffffffffff16815260200182815260200193505050506040516020818303038152906040529060e01b6020820180517bffffffffffffffffffffffffffffffffffffffffffffffffffffffff83818316178352505050506040518082805190602001908083835b602083106154965780518252602082019150602081019050602083039250615473565b6001836020036101000a0380198251168184511680821785525050505050509050019150506000604051808303816000865af19150503d80600081146154f8576040519150601f19603f3d011682016040523d82523d6000602084013e6154fd565b606091505b509150915081801561553d575060008151148061553c575080806020019051602081101561552a57600080fd5b81019080805190602001909291905050505b5b615592576040517f08c379a0000000000000000000000000000000000000000000000000000000008152600401808060200182810382526031815260200180616b9c6031913960400191505060405180910390fd5b505050505050565b60005b600183510381101561583f576000808483815181106155b857fe5b60200260200101518560018501815181106155cf57fe5b60200260200101519150915060006155e783836160e0565b50905060008760018601815181106155fb57fe5b602002602001015190506000808373ffffffffffffffffffffffffffffffffffffffff168673ffffffffffffffffffffffffffffffffffffffff161461564357826000615647565b6000835b91509150600060028a5103881061565e57886156a0565b61569f7f0000000000000000000000000000000000000000000000000000000000000000878c60028c018151811061569257fe5b602002602001015161522e565b5b90506156cd7f0000000000000000000000000000000000000000000000000000000000000000888861522e565b73ffffffffffffffffffffffffffffffffffffffff1663022c0d9f848484600067ffffffffffffffff8111801561570357600080fd5b506040519080825280601f01601f1916602001820160405280156157365781602001600182028036833780820191505090505b506040518563ffffffff1660e01b8152600401808581526020018481526020018373ffffffffffffffffffffffffffffffffffffffff1673ffffffffffffffffffffffffffffffffffffffff16815260200180602001828103825283818151815260200191508051906020019080838360005b838110156157c45780820151818401526020810190506157a9565b50505050905090810190601f1680156157f15780820380516001836020036101000a031916815260200191505b5095505050505050600060405180830381600087803b15801561581357600080fd5b505af1158015615827573d6000803e3d6000fd5b5050505050505050505050808060010191505061559d565b50505050565b60606002825110156158bf576040517f08c379a000000000000000000000000000000000000000000000000000000000815260040180806020018281038252601c8152602001807f50616e63616b654c6962726172793a20494e56414c49445f504154480000000081525060200191505060405180910390fd5b815167ffffffffffffffff811180156158d757600080fd5b506040519080825280602002602001820160405280156159065781602001602082028036833780820191505090505b509050828160018351038151811061591a57fe5b6020026020010181815250506000600183510390505b60008111156159bd576000806159708786600186038151811061594f57fe5b602002602001015187868151811061596357fe5b6020026020010151616723565b9150915061599284848151811061598357fe5b60200260200101518383615ebf565b8460018503815181106159a157fe5b6020026020010181815250505050808060019003915050615930565b509392505050565b60005b6001835103811015615e37576000808483815181106159e357fe5b60200260200101518560018501815181106159fa57fe5b6020026020010151915091506000615a1283836160e0565b5090506000615a427f0000000000000000000000000000000000000000000000000000000000000000858561522e565b90506000806000808473ffffffffffffffffffffffffffffffffffffffff16630902f1ac6040518163ffffffff1660e01b815260040160606040518083038186803b158015615a9057600080fd5b505afa158015615aa4573d6000803e3d6000fd5b505050506040513d6060811015615aba57600080fd5b81019080805190602001909291908051906020019092919080519060200190929190505050506dffffffffffffffffffffffffffff1691506dffffffffffffffffffffffffffff1691506000808773ffffffffffffffffffffffffffffffffffffffff168a73ffffffffffffffffffffffffffffffffffffffff1614615b41578284615b44565b83835b91509150615c12828b73ffffffffffffffffffffffffffffffffffffffff166370a082318a6040518263ffffffff1660e01b8152600401808273ffffffffffffffffffffffffffffffffffffffff1673ffffffffffffffffffffffffffffffffffffffff16815260200191505060206040518083038186803b158015615bc957600080fd5b505afa158015615bdd573d6000803e3d6000fd5b505050506040513d6020811015615bf357600080fd5b8101908080519060200190929190505050615e3c90919063ffffffff16565b9550615c1f868383614f86565b9450505050506000808573ffffffffffffffffffffffffffffffffffffffff168873ffffffffffffffffffffffffffffffffffffffff1614615c6357826000615c67565b6000835b91509150600060028c51038a10615c7e578a615cc0565b615cbf7f0000000000000000000000000000000000000000000000000000000000000000898e60028e0181518110615cb257fe5b602002602001015161522e565b5b90508573ffffffffffffffffffffffffffffffffffffffff1663022c0d9f848484600067ffffffffffffffff81118015615cf957600080fd5b506040519080825280601f01601f191660200182016040528015615d2c5781602001600182028036833780820191505090505b506040518563ffffffff1660e01b8152600401808581526020018481526020018373ffffffffffffffffffffffffffffffffffffffff1673ffffffffffffffffffffffffffffffffffffffff16815260200180602001828103825283818151815260200191508051906020019080838360005b83811015615dba578082015181840152602081019050615d9f565b50505050905090810190601f168015615de75780820380516001836020036101000a031916815260200191505b5095505050505050600060405180830381600087803b158015615e0957600080fd5b505af1158015615e1d573d6000803e3d6000fd5b5050505050505050505050505080806001019150506159c8565b505050565b6000828284039150811115615eb9576040517f08c379a00000000000000000000000000000000000000000000000000000000081526004018080602001828103825260158152602001807f64732d6d6174682d7375622d756e646572666c6f77000000000000000000000081525060200191505060405180910390fd5b92915050565b6000808411615f19576040517f08c379a000000000000000000000000000000000000000000000000000000000815260040180806020018281038252602a815260200180616b72602a913960400191505060405180910390fd5b600083118015615f295750600082115b615f7e576040517f08c379a0000000000000000000000000000000000000000000000000000000008152600401808060200182810382526026815260200180616ce66026913960400191505060405180910390fd5b6000615fa7612710615f99878761660b90919063ffffffff16565b61660b90919063ffffffff16565b90506000615fd26126f7615fc48887615e3c90919063ffffffff16565b61660b90919063ffffffff16565b9050615ff16001828481615fe257fe5b046166a090919063ffffffff16565b925050509392505050565b6000808411616056576040517f08c379a0000000000000000000000000000000000000000000000000000000008152600401808060200182810382526023815260200180616c716023913960400191505060405180910390fd5b6000831180156160665750600082115b6160bb576040517f08c379a0000000000000000000000000000000000000000000000000000000008152600401808060200182810382526026815260200180616ce66026913960400191505060405180910390fd5b826160cf838661660b90919063ffffffff16565b816160d657fe5b0490509392505050565b6000808273ffffffffffffffffffffffffffffffffffffffff168473ffffffffffffffffffffffffffffffffffffffff161415616168576040517f08c379a0000000000000000000000000000000000000000000000000000000008152600401808060200182810382526023815260200180616c2a6023913960400191505060405180910390fd5b8273ffffffffffffffffffffffffffffffffffffffff168473ffffffffffffffffffffffffffffffffffffffff16106161a25782846161a5565b83835b8092508193505050600073ffffffffffffffffffffffffffffffffffffffff168273ffffffffffffffffffffffffffffffffffffffff161415616250576040517f08c379a000000000000000000000000000000000000000000000000000000000815260040180806020018281038252601c8152602001807f50616e63616b654c6962726172793a205a45524f5f414444524553530000000081525060200191505060405180910390fd5b9250929050565b600080600073ffffffffffffffffffffffffffffffffffffffff167f000000000000000000000000000000000000000000000000000000000000000073ffffffffffffffffffffffffffffffffffffffff1663e6a439058a8a6040518363ffffffff1660e01b8152600401808373ffffffffffffffffffffffffffffffffffffffff1673ffffffffffffffffffffffffffffffffffffffff1681526020018273ffffffffffffffffffffffffffffffffffffffff1673ffffffffffffffffffffffffffffffffffffffff1681526020019250505060206040518083038186803b15801561634357600080fd5b505afa158015616357573d6000803e3d6000fd5b505050506040513d602081101561636d57600080fd5b810190808051906020019092919050505073ffffffffffffffffffffffffffffffffffffffff1614156164aa577f000000000000000000000000000000000000000000000000000000000000000073ffffffffffffffffffffffffffffffffffffffff1663c9c6539689896040518363ffffffff1660e01b8152600401808373ffffffffffffffffffffffffffffffffffffffff1673ffffffffffffffffffffffffffffffffffffffff1681526020018273ffffffffffffffffffffffffffffffffffffffff1673ffffffffffffffffffffffffffffffffffffffff16815260200192505050602060405180830381600087803b15801561646d57600080fd5b505af1158015616481573d6000803e3d6000fd5b505050506040513d602081101561649757600080fd5b8101908080519060200190929190505050505b6000806164d87f00000000000000000000000000000000000000000000000000000000000000008b8b616723565b915091506000821480156164ec5750600081145b1561650057878780945081955050506165fe565b600061650d898484615ffc565b905087811161657e578581101561656f576040517f08c379a0000000000000000000000000000000000000000000000000000000008152600401808060200182810382526024815260200180616d0c6024913960400191505060405180910390fd5b888180955081965050506165fc565b600061658b898486615ffc565b90508981111561659757fe5b878110156165f0576040517f08c379a0000000000000000000000000000000000000000000000000000000008152600401808060200182810382526024815260200180616c4d6024913960400191505060405180910390fd5b80898096508197505050505b505b5050965096945050505050565b600080821480616628575082828385029250828161662557fe5b04145b61669a576040517f08c379a00000000000000000000000000000000000000000000000000000000081526004018080602001828103825260148152602001807f64732d6d6174682d6d756c2d6f766572666c6f7700000000000000000000000081525060200191505060405180910390fd5b92915050565b600082828401915081101561671d576040517f08c379a00000000000000000000000000000000000000000000000000000000081526004018080602001828103825260148152602001807f64732d6d6174682d6164642d6f766572666c6f7700000000000000000000000081525060200191505060405180910390fd5b92915050565b600080600061673285856160e0565b50905061674086868661522e565b5061674a866168c3565b616753856168c3565b61675c846168c3565b60008061676a88888861522e565b73ffffffffffffffffffffffffffffffffffffffff16630902f1ac6040518163ffffffff1660e01b815260040160606040518083038186803b1580156167af57600080fd5b505afa1580156167c3573d6000803e3d6000fd5b505050506040513d60608110156167d957600080fd5b81019080805190602001909291908051906020019092919080519060200190929190505050506dffffffffffffffffffffffffffff1691506dffffffffffffffffffffffffffff1691508273ffffffffffffffffffffffffffffffffffffffff168773ffffffffffffffffffffffffffffffffffffffff161461685d578082616860565b81815b80955081965050506168a66040518060400160405280600981526020017f52657365727665733a0000000000000000000000000000000000000000000000815250616988565b6168af85616a86565b6168b884616a86565b505050935093915050565b61698581604051602401808273ffffffffffffffffffffffffffffffffffffffff1673ffffffffffffffffffffffffffffffffffffffff1681526020019150506040516020818303038152906040527f2c2ecbc2000000000000000000000000000000000000000000000000000000007bffffffffffffffffffffffffffffffffffffffffffffffffffffffff19166020820180517bffffffffffffffffffffffffffffffffffffffffffffffffffffffff8381831617835250505050616b1f565b50565b616a83816040516024018080602001828103825283818151815260200191508051906020019080838360005b838110156169cf5780820151818401526020810190506169b4565b50505050905090810190601f1680156169fc5780820380516001836020036101000a031916815260200191505b50925050506040516020818303038152906040527f41304fac000000000000000000000000000000000000000000000000000000007bffffffffffffffffffffffffffffffffffffffffffffffffffffffff19166020820180517bffffffffffffffffffffffffffffffffffffffffffffffffffffffff8381831617835250505050616b1f565b50565b616b1c81604051602401808281526020019150506040516020818303038152906040527ff5b1bba9000000000000000000000000000000000000000000000000000000007bffffffffffffffffffffffffffffffffffffffffffffffffffffffff19166020820180517bffffffffffffffffffffffffffffffffffffffffffffffffffffffff8381831617835250505050616b1f565b50565b60008151905060006a636f6e736f6c652e6c6f679050602083016000808483855afa505050505056fe50616e63616b654c6962726172793a20494e53554646494349454e545f494e5055545f414d4f554e5450616e63616b654c6962726172793a20494e53554646494349454e545f4f55545055545f414d4f554e545472616e7366657248656c7065723a3a7472616e7366657246726f6d3a207472616e7366657246726f6d206661696c65645472616e7366657248656c7065723a3a736166655472616e736665724554483a20455448207472616e73666572206661696c656450616e63616b65526f757465723a20494e53554646494349454e545f4f55545055545f414d4f554e5450616e63616b654c6962726172793a204944454e544943414c5f41444452455353455350616e63616b65526f757465723a20494e53554646494349454e545f415f414d4f554e5450616e63616b654c6962726172793a20494e53554646494349454e545f414d4f554e545472616e7366657248656c7065723a3a736166655472616e736665723a207472616e73666572206661696c656450616e63616b65526f757465723a204558434553534956455f494e5055545f414d4f554e5450616e63616b654c6962726172793a20494e53554646494349454e545f4c495155494449545950616e63616b65526f757465723a20494e53554646494349454e545f425f414d4f554e54a264697066735822122067ca7477d6de27d8be451fe4eafddf8eeda5cca948616c4aab12c79caa23b49a64736f6c63430006060033",
  "devdoc": {
    "methods": {}
  },
  "userdoc": {
    "methods": {}
  },
  "storageLayout": {
    "storage": [
      {
        "astId": 2233,
        "contract": "contracts/PancakeRouter_mod.sol:PancakeRouter_mod",
        "label": "pairAddress",
        "offset": 0,
        "slot": "0",
        "type": "t_address"
      }
    ],
    "types": {
      "t_address": {
        "encoding": "inplace",
        "label": "address",
        "numberOfBytes": "20"
      }
    }
  }
}