{
  "address": "0xa513E6E4b8f2a923D98304ec87F64353C4D5C853",
  "abi": [
    {
      "inputs": [
        {
          "internalType": "address",
          "name": "_factory",
          "type": "address"
        },
        {
          "internalType": "address",
          "name": "_WETH",
          "type": "address"
        },
        {
          "internalType": "address",
          "name": "_LSRAddress",
          "type": "address"
        }
      ],
      "stateMutability": "nonpayable",
      "type": "constructor"
    },
    {
      "anonymous": false,
      "inputs": [
        {
          "indexed": true,
          "internalType": "uint256",
          "name": "amountA",
          "type": "uint256"
        },
        {
          "indexed": true,
          "internalType": "uint256",
          "name": "amountB",
          "type": "uint256"
        }
      ],
      "name": "AddLiquidity",
      "type": "event"
    },
    {
      "anonymous": false,
      "inputs": [
        {
          "indexed": true,
          "internalType": "address",
          "name": "_token",
          "type": "address"
        },
        {
          "indexed": true,
          "internalType": "uint256",
          "name": "_fee",
          "type": "uint256"
        }
      ],
      "name": "FeeCharged",
      "type": "event"
    },
    {
      "anonymous": false,
      "inputs": [
        {
          "indexed": true,
          "internalType": "address",
          "name": "previousOwner",
          "type": "address"
        },
        {
          "indexed": true,
          "internalType": "address",
          "name": "newOwner",
          "type": "address"
        }
      ],
      "name": "OwnershipTransferred",
      "type": "event"
    },
    {
      "anonymous": false,
      "inputs": [
        {
          "indexed": true,
          "internalType": "bytes32",
          "name": "role",
          "type": "bytes32"
        },
        {
          "indexed": true,
          "internalType": "bytes32",
          "name": "previousAdminRole",
          "type": "bytes32"
        },
        {
          "indexed": true,
          "internalType": "bytes32",
          "name": "newAdminRole",
          "type": "bytes32"
        }
      ],
      "name": "RoleAdminChanged",
      "type": "event"
    },
    {
      "anonymous": false,
      "inputs": [
        {
          "indexed": true,
          "internalType": "bytes32",
          "name": "role",
          "type": "bytes32"
        },
        {
          "indexed": true,
          "internalType": "address",
          "name": "account",
          "type": "address"
        },
        {
          "indexed": true,
          "internalType": "address",
          "name": "sender",
          "type": "address"
        }
      ],
      "name": "RoleGranted",
      "type": "event"
    },
    {
      "anonymous": false,
      "inputs": [
        {
          "indexed": true,
          "internalType": "bytes32",
          "name": "role",
          "type": "bytes32"
        },
        {
          "indexed": true,
          "internalType": "address",
          "name": "account",
          "type": "address"
        },
        {
          "indexed": true,
          "internalType": "address",
          "name": "sender",
          "type": "address"
        }
      ],
      "name": "RoleRevoked",
      "type": "event"
    },
    {
      "anonymous": false,
      "inputs": [
        {
          "indexed": true,
          "internalType": "uint256",
          "name": "_lsrMinBalance",
          "type": "uint256"
        }
      ],
      "name": "SetLsrMinBalance",
      "type": "event"
    },
    {
      "anonymous": false,
      "inputs": [
        {
          "indexed": true,
          "internalType": "uint256",
          "name": "_swapFee",
          "type": "uint256"
        }
      ],
      "name": "SetSwapFee",
      "type": "event"
    },
    {
      "anonymous": false,
      "inputs": [
        {
          "indexed": true,
          "internalType": "address",
          "name": "_token",
          "type": "address"
        },
        {
          "indexed": false,
          "internalType": "uint256",
          "name": "_totalBalance",
          "type": "uint256"
        }
      ],
      "name": "WithdrawFees",
      "type": "event"
    },
    {
      "inputs": [],
      "name": "ADMIN_ROLE",
      "outputs": [
        {
          "internalType": "bytes32",
          "name": "",
          "type": "bytes32"
        }
      ],
      "stateMutability": "view",
      "type": "function"
    },
    {
      "inputs": [],
      "name": "DEFAULT_ADMIN_ROLE",
      "outputs": [
        {
          "internalType": "bytes32",
          "name": "",
          "type": "bytes32"
        }
      ],
      "stateMutability": "view",
      "type": "function"
    },
    {
      "inputs": [],
      "name": "OWNER_ROLE",
      "outputs": [
        {
          "internalType": "bytes32",
          "name": "",
          "type": "bytes32"
        }
      ],
      "stateMutability": "view",
      "type": "function"
    },
    {
      "inputs": [],
      "name": "WETH",
      "outputs": [
        {
          "internalType": "address",
          "name": "",
          "type": "address"
        }
      ],
      "stateMutability": "view",
      "type": "function"
    },
    {
      "inputs": [
        {
          "internalType": "address",
          "name": "tokenA",
          "type": "address"
        },
        {
          "internalType": "address",
          "name": "tokenB",
          "type": "address"
        },
        {
          "internalType": "uint256",
          "name": "amountADesired",
          "type": "uint256"
        },
        {
          "internalType": "uint256",
          "name": "amountBDesired",
          "type": "uint256"
        },
        {
          "internalType": "uint256",
          "name": "amountAMin",
          "type": "uint256"
        },
        {
          "internalType": "uint256",
          "name": "amountBMin",
          "type": "uint256"
        },
        {
          "internalType": "address",
          "name": "to",
          "type": "address"
        },
        {
          "internalType": "uint256",
          "name": "deadline",
          "type": "uint256"
        }
      ],
      "name": "addLiquidity",
      "outputs": [
        {
          "internalType": "uint256",
          "name": "amountA",
          "type": "uint256"
        },
        {
          "internalType": "uint256",
          "name": "amountB",
          "type": "uint256"
        },
        {
          "internalType": "uint256",
          "name": "liquidity",
          "type": "uint256"
        }
      ],
      "stateMutability": "nonpayable",
      "type": "function"
    },
    {
      "inputs": [],
      "name": "factory",
      "outputs": [
        {
          "internalType": "address",
          "name": "",
          "type": "address"
        }
      ],
      "stateMutability": "view",
      "type": "function"
    },
    {
      "inputs": [],
      "name": "getAdminAddress",
      "outputs": [
        {
          "internalType": "address",
          "name": "",
          "type": "address"
        }
      ],
      "stateMutability": "view",
      "type": "function"
    },
    {
      "inputs": [
        {
          "internalType": "uint256",
          "name": "amountOut",
          "type": "uint256"
        },
        {
          "internalType": "uint256",
          "name": "reserveIn",
          "type": "uint256"
        },
        {
          "internalType": "uint256",
          "name": "reserveOut",
          "type": "uint256"
        }
      ],
      "name": "getAmountIn",
      "outputs": [
        {
          "internalType": "uint256",
          "name": "amountIn",
          "type": "uint256"
        }
      ],
      "stateMutability": "pure",
      "type": "function"
    },
    {
      "inputs": [
        {
          "internalType": "uint256",
          "name": "amountIn",
          "type": "uint256"
        },
        {
          "internalType": "uint256",
          "name": "reserveIn",
          "type": "uint256"
        },
        {
          "internalType": "uint256",
          "name": "reserveOut",
          "type": "uint256"
        }
      ],
      "name": "getAmountOut",
      "outputs": [
        {
          "internalType": "uint256",
          "name": "amountOut",
          "type": "uint256"
        }
      ],
      "stateMutability": "pure",
      "type": "function"
    },
    {
      "inputs": [
        {
          "internalType": "uint256",
          "name": "amountOut",
          "type": "uint256"
        },
        {
          "internalType": "address[]",
          "name": "path",
          "type": "address[]"
        }
      ],
      "name": "getAmountsIn",
      "outputs": [
        {
          "internalType": "uint256[]",
          "name": "amounts",
          "type": "uint256[]"
        }
      ],
      "stateMutability": "view",
      "type": "function"
    },
    {
      "inputs": [
        {
          "internalType": "uint256",
          "name": "amountIn",
          "type": "uint256"
        },
        {
          "internalType": "address[]",
          "name": "path",
          "type": "address[]"
        }
      ],
      "name": "getAmountsOut",
      "outputs": [
        {
          "internalType": "uint256[]",
          "name": "amounts",
          "type": "uint256[]"
        }
      ],
      "stateMutability": "view",
      "type": "function"
    },
    {
      "inputs": [],
      "name": "getLsrMinBalance",
      "outputs": [
        {
          "internalType": "uint256",
          "name": "",
          "type": "uint256"
        }
      ],
      "stateMutability": "view",
      "type": "function"
    },
    {
      "inputs": [
        {
          "internalType": "bytes32",
          "name": "role",
          "type": "bytes32"
        }
      ],
      "name": "getRoleAdmin",
      "outputs": [
        {
          "internalType": "bytes32",
          "name": "",
          "type": "bytes32"
        }
      ],
      "stateMutability": "view",
      "type": "function"
    },
    {
      "inputs": [],
      "name": "getSwapFee",
      "outputs": [
        {
          "internalType": "uint256",
          "name": "",
          "type": "uint256"
        }
      ],
      "stateMutability": "view",
      "type": "function"
    },
    {
      "inputs": [
        {
          "internalType": "bytes32",
          "name": "role",
          "type": "bytes32"
        },
        {
          "internalType": "address",
          "name": "account",
          "type": "address"
        }
      ],
      "name": "grantRole",
      "outputs": [],
      "stateMutability": "nonpayable",
      "type": "function"
    },
    {
      "inputs": [
        {
          "internalType": "bytes32",
          "name": "role",
          "type": "bytes32"
        },
        {
          "internalType": "address",
          "name": "account",
          "type": "address"
        }
      ],
      "name": "hasRole",
      "outputs": [
        {
          "internalType": "bool",
          "name": "",
          "type": "bool"
        }
      ],
      "stateMutability": "view",
      "type": "function"
    },
    {
      "inputs": [],
      "name": "owner",
      "outputs": [
        {
          "internalType": "address",
          "name": "",
          "type": "address"
        }
      ],
      "stateMutability": "view",
      "type": "function"
    },
    {
      "inputs": [
        {
          "internalType": "uint256",
          "name": "amountA",
          "type": "uint256"
        },
        {
          "internalType": "uint256",
          "name": "reserveA",
          "type": "uint256"
        },
        {
          "internalType": "uint256",
          "name": "reserveB",
          "type": "uint256"
        }
      ],
      "name": "quote",
      "outputs": [
        {
          "internalType": "uint256",
          "name": "amountB",
          "type": "uint256"
        }
      ],
      "stateMutability": "pure",
      "type": "function"
    },
    {
      "inputs": [
        {
          "internalType": "address",
          "name": "tokenA",
          "type": "address"
        },
        {
          "internalType": "address",
          "name": "tokenB",
          "type": "address"
        },
        {
          "internalType": "uint256",
          "name": "liquidity",
          "type": "uint256"
        },
        {
          "internalType": "uint256",
          "name": "amountAMin",
          "type": "uint256"
        },
        {
          "internalType": "uint256",
          "name": "amountBMin",
          "type": "uint256"
        },
        {
          "internalType": "address",
          "name": "to",
          "type": "address"
        },
        {
          "internalType": "uint256",
          "name": "deadline",
          "type": "uint256"
        }
      ],
      "name": "removeLiquidity",
      "outputs": [
        {
          "internalType": "uint256",
          "name": "amountA",
          "type": "uint256"
        },
        {
          "internalType": "uint256",
          "name": "amountB",
          "type": "uint256"
        }
      ],
      "stateMutability": "nonpayable",
      "type": "function"
    },
    {
      "inputs": [
        {
          "internalType": "address",
          "name": "tokenA",
          "type": "address"
        },
        {
          "internalType": "address",
          "name": "tokenB",
          "type": "address"
        },
        {
          "internalType": "uint256",
          "name": "liquidity",
          "type": "uint256"
        },
        {
          "internalType": "uint256",
          "name": "amountAMin",
          "type": "uint256"
        },
        {
          "internalType": "uint256",
          "name": "amountBMin",
          "type": "uint256"
        },
        {
          "internalType": "address",
          "name": "to",
          "type": "address"
        },
        {
          "internalType": "uint256",
          "name": "deadline",
          "type": "uint256"
        },
        {
          "internalType": "bool",
          "name": "approveMax",
          "type": "bool"
        },
        {
          "internalType": "uint8",
          "name": "v",
          "type": "uint8"
        },
        {
          "internalType": "bytes32",
          "name": "r",
          "type": "bytes32"
        },
        {
          "internalType": "bytes32",
          "name": "s",
          "type": "bytes32"
        }
      ],
      "name": "removeLiquidityWithPermit",
      "outputs": [
        {
          "internalType": "uint256",
          "name": "amountA",
          "type": "uint256"
        },
        {
          "internalType": "uint256",
          "name": "amountB",
          "type": "uint256"
        }
      ],
      "stateMutability": "nonpayable",
      "type": "function"
    },
    {
      "inputs": [],
      "name": "renounceOwnership",
      "outputs": [],
      "stateMutability": "nonpayable",
      "type": "function"
    },
    {
      "inputs": [
        {
          "internalType": "bytes32",
          "name": "role",
          "type": "bytes32"
        },
        {
          "internalType": "address",
          "name": "account",
          "type": "address"
        }
      ],
      "name": "renounceRole",
      "outputs": [],
      "stateMutability": "nonpayable",
      "type": "function"
    },
    {
      "inputs": [
        {
          "internalType": "bytes32",
          "name": "role",
          "type": "bytes32"
        },
        {
          "internalType": "address",
          "name": "account",
          "type": "address"
        }
      ],
      "name": "revokeRole",
      "outputs": [],
      "stateMutability": "nonpayable",
      "type": "function"
    },
    {
      "inputs": [
        {
          "internalType": "address",
          "name": "_adminAddress",
          "type": "address"
        }
      ],
      "name": "setAdminAddress",
      "outputs": [],
      "stateMutability": "nonpayable",
      "type": "function"
    },
    {
      "inputs": [
        {
          "internalType": "uint256",
          "name": "_lsrMinBalance",
          "type": "uint256"
        }
      ],
      "name": "setLsrMinBalance",
      "outputs": [],
      "stateMutability": "nonpayable",
      "type": "function"
    },
    {
      "inputs": [
        {
          "internalType": "uint256",
          "name": "_swapFee",
          "type": "uint256"
        }
      ],
      "name": "setSwapFee",
      "outputs": [],
      "stateMutability": "nonpayable",
      "type": "function"
    },
    {
      "inputs": [
        {
          "internalType": "uint256",
          "name": "amountIn",
          "type": "uint256"
        },
        {
          "internalType": "uint256",
          "name": "amountOutMin",
          "type": "uint256"
        },
        {
          "internalType": "address[]",
          "name": "path",
          "type": "address[]"
        },
        {
          "internalType": "address",
          "name": "to",
          "type": "address"
        },
        {
          "internalType": "uint256",
          "name": "deadline",
          "type": "uint256"
        }
      ],
      "name": "swapExactTokensForTokens",
      "outputs": [
        {
          "internalType": "uint256[]",
          "name": "amounts",
          "type": "uint256[]"
        }
      ],
      "stateMutability": "payable",
      "type": "function"
    },
    {
      "inputs": [
        {
          "internalType": "uint256",
          "name": "amountIn",
          "type": "uint256"
        },
        {
          "internalType": "uint256",
          "name": "amountOutMin",
          "type": "uint256"
        },
        {
          "internalType": "address[]",
          "name": "path",
          "type": "address[]"
        },
        {
          "internalType": "address",
          "name": "to",
          "type": "address"
        },
        {
          "internalType": "uint256",
          "name": "deadline",
          "type": "uint256"
        }
      ],
      "name": "swapExactTokensForTokensSupportingFeeOnTransferTokens",
      "outputs": [],
      "stateMutability": "payable",
      "type": "function"
    },
    {
      "inputs": [
        {
          "internalType": "uint256",
          "name": "amountOut",
          "type": "uint256"
        },
        {
          "internalType": "uint256",
          "name": "amountInMax",
          "type": "uint256"
        },
        {
          "internalType": "address[]",
          "name": "path",
          "type": "address[]"
        },
        {
          "internalType": "address",
          "name": "to",
          "type": "address"
        },
        {
          "internalType": "uint256",
          "name": "deadline",
          "type": "uint256"
        }
      ],
      "name": "swapTokensForExactTokens",
      "outputs": [
        {
          "internalType": "uint256[]",
          "name": "amounts",
          "type": "uint256[]"
        }
      ],
      "stateMutability": "nonpayable",
      "type": "function"
    },
    {
      "inputs": [
        {
          "internalType": "address",
          "name": "newOwner",
          "type": "address"
        }
      ],
      "name": "transferOwnership",
      "outputs": [],
      "stateMutability": "nonpayable",
      "type": "function"
    },
    {
      "inputs": [
        {
          "internalType": "address",
          "name": "_token",
          "type": "address"
        }
      ],
      "name": "withdrawFees",
      "outputs": [],
      "stateMutability": "nonpayable",
      "type": "function"
    },
    {
      "stateMutability": "payable",
      "type": "receive"
    }
  ],
  "transactionHash": "0xc8c7395a5fe14dbb858d827fff738b8a9747d2cbeda01e3d826d18c4ba64bb75",
  "args": [
    "0x5FC8d32690cc91D4c39d9d3abcBD16989F875707",
    "0x0000000000000000000000000000000000000000",
    "0xe7f1725E7734CE288F8367e1Bb143E90bb3F0512"
  ],
  "numDeployments": 1,
  "solcInputHash": "1aff78acfc08e3d134bb5c9d79451aa7",
  "bytecode": "0x60c0604052600a60035560646004553480156200001b57600080fd5b5060405162005a6238038062005a62833981810160405260608110156200004157600080fd5b81019080805190602001909291908051906020019092919080519060200190929190505050620000866200007a6200027560201b60201c565b6200027d60201b60201c565b8273ffffffffffffffffffffffffffffffffffffffff1660808173ffffffffffffffffffffffffffffffffffffffff1660601b815250508173ffffffffffffffffffffffffffffffffffffffff1660a08173ffffffffffffffffffffffffffffffffffffffff1660601b8152505080600560006101000a81548173ffffffffffffffffffffffffffffffffffffffff021916908373ffffffffffffffffffffffffffffffffffffffff16021790555033600260006101000a81548173ffffffffffffffffffffffffffffffffffffffff021916908373ffffffffffffffffffffffffffffffffffffffff160217905550620001ce60405160200180807f4f574e4552000000000000000000000000000000000000000000000000000000815250600501905060405160208183030381529060405280519060200120336200034160201b60201c565b6200026c60405160200180807f41444d494e00000000000000000000000000000000000000000000000000000081525060050190506040516020818303038152906040528051906020012060405160200180807f4f574e45520000000000000000000000000000000000000000000000000000008152506005019050604051602081830303815290604052805190602001206200035760201b60201c565b50505062000537565b600033905090565b60008060009054906101000a900473ffffffffffffffffffffffffffffffffffffffff169050816000806101000a81548173ffffffffffffffffffffffffffffffffffffffff021916908373ffffffffffffffffffffffffffffffffffffffff1602179055508173ffffffffffffffffffffffffffffffffffffffff168173ffffffffffffffffffffffffffffffffffffffff167f8be0079c531659141344cd1fd0a4f28419497f9722a3daafe3b4186f6b6457e060405160405180910390a35050565b620003538282620003bb60201b60201c565b5050565b60006200036a83620004ac60201b60201c565b90508160016000858152602001908152602001600020600101819055508181847fbd79b86ffe0ab8e8776151514217cd7cacd52c909f66475c3af44e129f0b00ff60405160405180910390a4505050565b620003cd8282620004cc60201b60201c565b620004a857600180600084815260200190815260200160002060000160008373ffffffffffffffffffffffffffffffffffffffff1673ffffffffffffffffffffffffffffffffffffffff16815260200190815260200160002060006101000a81548160ff0219169083151502179055506200044d6200027560201b60201c565b73ffffffffffffffffffffffffffffffffffffffff168173ffffffffffffffffffffffffffffffffffffffff16837f2f8788117e7eff1d82e926ec794901d17c78024a50270940304540a733656f0d60405160405180910390a45b5050565b600060016000838152602001908152602001600020600101549050919050565b60006001600084815260200190815260200160002060000160008373ffffffffffffffffffffffffffffffffffffffff1673ffffffffffffffffffffffffffffffffffffffff16815260200190815260200160002060009054906101000a900460ff16905092915050565b60805160601c60a05160601c6154a2620005c0600039806101e352806124ab5250806112c152806112f952806118735280611b3b5280611c475280611e135280612212528061231b528061258e528061289052806128b952806129f5528061397f52806139c35280613bb85280613e1f52806144d452806145fc528061471252506154a26000f3fe6080604052600436106101dc5760003560e01c80638803dbee11610102578063baa2abde11610095578063d547741f11610064578063d547741f14610f0f578063e58378bb14610f6a578063e8e3370014610f95578063f2fde38b1461107b57610238565b8063baa2abde14610c95578063c45a015514610d69578063d06ca61f14610dc0578063d4cadf6814610ee457610238565b8063a47d7fbf116100d1578063a47d7fbf14610b59578063ad5c464814610b84578063ad615dec14610bdb578063b2e6b91214610c3e57610238565b80638803dbee1461094b5780638da5cb5b14610a6457806391d1485414610abb578063a217fddf14610b2e57610238565b806334e199071161017a5780635c11d795116101495780635c11d795146107ef578063715018a6146108a657806375b238fc146108bd57806385f8c259146108e857610238565b806334e199071461061257806336568abe1461064d57806338ed1739146106a857806339c7ddcc146107b457610238565b80632195995c116101b65780632195995c14610415578063248a9ca3146105175780632c1e816d146105665780632f2ff15d146105b757610238565b8063054d50d41461023d578063164e68de146102a05780631f00ca74146102f157610238565b36610238577f000000000000000000000000000000000000000000000000000000000000000073ffffffffffffffffffffffffffffffffffffffff163373ffffffffffffffffffffffffffffffffffffffff161461023657fe5b005b600080fd5b34801561024957600080fd5b5061028a6004803603606081101561026057600080fd5b810190808035906020019092919080359060200190929190803590602001909291905050506110cc565b6040518082815260200191505060405180910390f35b3480156102ac57600080fd5b506102ef600480360360208110156102c357600080fd5b81019080803573ffffffffffffffffffffffffffffffffffffffff1690602001909291905050506110e2565b005b3480156102fd57600080fd5b506103be6004803603604081101561031457600080fd5b81019080803590602001909291908035906020019064010000000081111561033b57600080fd5b82018360208201111561034d57600080fd5b8035906020019184602083028401116401000000008311171561036f57600080fd5b919080806020026020016040519081016040528093929190818152602001838360200280828437600081840152601f19601f8201169050808301925050505050505091929192905050506112ba565b6040518080602001828103825283818151815260200191508051906020019060200280838360005b838110156104015780820151818401526020810190506103e6565b505050509050019250505060405180910390f35b34801561042157600080fd5b506104fa600480360361016081101561043957600080fd5b81019080803573ffffffffffffffffffffffffffffffffffffffff169060200190929190803573ffffffffffffffffffffffffffffffffffffffff169060200190929190803590602001909291908035906020019092919080359060200190929190803573ffffffffffffffffffffffffffffffffffffffff16906020019092919080359060200190929190803515159060200190929190803560ff16906020019092919080359060200190929190803590602001909291905050506112ef565b604051808381526020018281526020019250505060405180910390f35b34801561052357600080fd5b506105506004803603602081101561053a57600080fd5b8101908080359060200190929190505050611474565b6040518082815260200191505060405180910390f35b34801561057257600080fd5b506105b56004803603602081101561058957600080fd5b81019080803573ffffffffffffffffffffffffffffffffffffffff169060200190929190505050611494565b005b3480156105c357600080fd5b50610610600480360360408110156105da57600080fd5b8101908080359060200190929190803573ffffffffffffffffffffffffffffffffffffffff169060200190929190505050611642565b005b34801561061e57600080fd5b5061064b6004803603602081101561063557600080fd5b8101908080359060200190929190505050611663565b005b34801561065957600080fd5b506106a66004803603604081101561067057600080fd5b8101908080359060200190929190803573ffffffffffffffffffffffffffffffffffffffff16906020019092919050505061175c565b005b61075d600480360360a08110156106be57600080fd5b810190808035906020019092919080359060200190929190803590602001906401000000008111156106ef57600080fd5b82018360208201111561070157600080fd5b8035906020019184602083028401116401000000008311171561072357600080fd5b9091929391929390803573ffffffffffffffffffffffffffffffffffffffff169060200190929190803590602001909291905050506117f5565b6040518080602001828103825283818151815260200191508051906020019060200280838360005b838110156107a0578082015181840152602081019050610785565b505050509050019250505060405180910390f35b3480156107c057600080fd5b506107ed600480360360208110156107d757600080fd5b8101908080359060200190929190505050611d32565b005b6108a4600480360360a081101561080557600080fd5b8101908080359060200190929190803590602001909291908035906020019064010000000081111561083657600080fd5b82018360208201111561084857600080fd5b8035906020019184602083028401116401000000008311171561086a57600080fd5b9091929391929390803573ffffffffffffffffffffffffffffffffffffffff16906020019092919080359060200190929190505050611d69565b005b3480156108b257600080fd5b506108bb612120565b005b3480156108c957600080fd5b506108d2612134565b6040518082815260200191505060405180910390f35b3480156108f457600080fd5b506109356004803603606081101561090b57600080fd5b8101908080359060200190929190803590602001909291908035906020019092919050505061217e565b6040518082815260200191505060405180910390f35b34801561095757600080fd5b50610a0d600480360360a081101561096e57600080fd5b8101908080359060200190929190803590602001909291908035906020019064010000000081111561099f57600080fd5b8201836020820111156109b157600080fd5b803590602001918460208302840111640100000000831117156109d357600080fd5b9091929391929390803573ffffffffffffffffffffffffffffffffffffffff16906020019092919080359060200190929190505050612194565b6040518080602001828103825283818151815260200191508051906020019060200280838360005b83811015610a50578082015181840152602081019050610a35565b505050509050019250505060405180910390f35b348015610a7057600080fd5b50610a79612404565b604051808273ffffffffffffffffffffffffffffffffffffffff1673ffffffffffffffffffffffffffffffffffffffff16815260200191505060405180910390f35b348015610ac757600080fd5b50610b1460048036036040811015610ade57600080fd5b8101908080359060200190929190803573ffffffffffffffffffffffffffffffffffffffff16906020019092919050505061242d565b604051808215151515815260200191505060405180910390f35b348015610b3a57600080fd5b50610b43612498565b6040518082815260200191505060405180910390f35b348015610b6557600080fd5b50610b6e61249f565b6040518082815260200191505060405180910390f35b348015610b9057600080fd5b50610b996124a9565b604051808273ffffffffffffffffffffffffffffffffffffffff1673ffffffffffffffffffffffffffffffffffffffff16815260200191505060405180910390f35b348015610be757600080fd5b50610c2860048036036060811015610bfe57600080fd5b810190808035906020019092919080359060200190929190803590602001909291905050506124cd565b6040518082815260200191505060405180910390f35b348015610c4a57600080fd5b50610c536124e3565b604051808273ffffffffffffffffffffffffffffffffffffffff1673ffffffffffffffffffffffffffffffffffffffff16815260200191505060405180910390f35b348015610ca157600080fd5b50610d4c600480360360e0811015610cb857600080fd5b81019080803573ffffffffffffffffffffffffffffffffffffffff169060200190929190803573ffffffffffffffffffffffffffffffffffffffff169060200190929190803590602001909291908035906020019092919080359060200190929190803573ffffffffffffffffffffffffffffffffffffffff1690602001909291908035906020019092919050505061250d565b604051808381526020018281526020019250505060405180910390f35b348015610d7557600080fd5b50610d7e61288e565b604051808273ffffffffffffffffffffffffffffffffffffffff1673ffffffffffffffffffffffffffffffffffffffff16815260200191505060405180910390f35b348015610dcc57600080fd5b50610e8d60048036036040811015610de357600080fd5b810190808035906020019092919080359060200190640100000000811115610e0a57600080fd5b820183602082011115610e1c57600080fd5b80359060200191846020830284011164010000000083111715610e3e57600080fd5b919080806020026020016040519081016040528093929190818152602001838360200280828437600081840152601f19601f8201169050808301925050505050505091929192905050506128b2565b6040518080602001828103825283818151815260200191508051906020019060200280838360005b83811015610ed0578082015181840152602081019050610eb5565b505050509050019250505060405180910390f35b348015610ef057600080fd5b50610ef96128e7565b6040518082815260200191505060405180910390f35b348015610f1b57600080fd5b50610f6860048036036040811015610f3257600080fd5b8101908080359060200190929190803573ffffffffffffffffffffffffffffffffffffffff1690602001909291905050506128f1565b005b348015610f7657600080fd5b50610f7f612912565b6040518082815260200191505060405180910390f35b348015610fa157600080fd5b506110576004803603610100811015610fb957600080fd5b81019080803573ffffffffffffffffffffffffffffffffffffffff169060200190929190803573ffffffffffffffffffffffffffffffffffffffff16906020019092919080359060200190929190803590602001909291908035906020019092919080359060200190929190803573ffffffffffffffffffffffffffffffffffffffff1690602001909291908035906020019092919050505061295c565b60405180848152602001838152602001828152602001935050505060405180910390f35b34801561108757600080fd5b506110ca6004803603602081101561109e57600080fd5b81019080803573ffffffffffffffffffffffffffffffffffffffff169060200190929190505050612b01565b005b60006110d9848484612b9b565b90509392505050565b60008173ffffffffffffffffffffffffffffffffffffffff166370a08231306040518263ffffffff1660e01b8152600401808273ffffffffffffffffffffffffffffffffffffffff1673ffffffffffffffffffffffffffffffffffffffff16815260200191505060206040518083038186803b15801561116157600080fd5b505afa158015611175573d6000803e3d6000fd5b505050506040513d602081101561118b57600080fd5b810190808051906020019092919050505090508173ffffffffffffffffffffffffffffffffffffffff1663a9059cbb6111c2612404565b836040518363ffffffff1660e01b8152600401808373ffffffffffffffffffffffffffffffffffffffff1673ffffffffffffffffffffffffffffffffffffffff16815260200182815260200192505050602060405180830381600087803b15801561122c57600080fd5b505af1158015611240573d6000803e3d6000fd5b505050506040513d602081101561125657600080fd5b8101908080519060200190929190505050508173ffffffffffffffffffffffffffffffffffffffff167f9bba815921f12cb7b1408e14b5ade745234397d39623ae5e7c82d693cb45815f826040518082815260200191505060405180910390a25050565b60606112e77f00000000000000000000000000000000000000000000000000000000000000008484612ccb565b905092915050565b600080600061131f7f00000000000000000000000000000000000000000000000000000000000000008f8f612e4b565b905060008761132e578c611350565b7fffffffffffffffffffffffffffffffffffffffffffffffffffffffffffffffff5b90508173ffffffffffffffffffffffffffffffffffffffff1663d505accf3330848d8c8c8c6040518863ffffffff1660e01b8152600401808873ffffffffffffffffffffffffffffffffffffffff1673ffffffffffffffffffffffffffffffffffffffff1681526020018773ffffffffffffffffffffffffffffffffffffffff1673ffffffffffffffffffffffffffffffffffffffff1681526020018681526020018581526020018460ff1660ff168152602001838152602001828152602001975050505050505050600060405180830381600087803b15801561143357600080fd5b505af1158015611447573d6000803e3d6000fd5b5050505061145a8f8f8f8f8f8f8f61250d565b809450819550505050509b509b9950505050505050505050565b600060016000838152602001908152602001600020600101549050919050565b61149c612f42565b6114fd6040518060400160405280600a81526020017f4f6c642061646d696e2000000000000000000000000000000000000000000000815250600260009054906101000a900473ffffffffffffffffffffffffffffffffffffffff16612ff3565b61156f60405160200180807f41444d494e000000000000000000000000000000000000000000000000000000815250600501905060405160208183030381529060405280519060200120600260009054906101000a900473ffffffffffffffffffffffffffffffffffffffff166128f1565b6115bf60405160200180807f41444d494e00000000000000000000000000000000000000000000000000000081525060050190506040516020818303038152906040528051906020012082611642565b80600260006101000a81548173ffffffffffffffffffffffffffffffffffffffff021916908373ffffffffffffffffffffffffffffffffffffffff16021790555061163f6040518060400160405280600a81526020017f4e65772061646d696e200000000000000000000000000000000000000000000081525082612ff3565b50565b61164b82611474565b61165481613126565b61165e838361313a565b505050565b6116b360405160200180807f41444d494e0000000000000000000000000000000000000000000000000000008152506005019050604051602081830303815290604052805190602001203361242d565b611725576040517f08c379a00000000000000000000000000000000000000000000000000000000081526004018080602001828103825260198152602001807f50726f6869626974656420666f72206e6f6e2061646d696e730000000000000081525060200191505060405180910390fd5b80600381905550807fcda74150def0ede554aff5f677be9df0e226fddff9bd9ceddf732b9673b1c92d60405160405180910390a250565b61176461321a565b73ffffffffffffffffffffffffffffffffffffffff168173ffffffffffffffffffffffffffffffffffffffff16146117e7576040517f08c379a000000000000000000000000000000000000000000000000000000000815260040180806020018281038252602f81526020018061543e602f913960400191505060405180910390fd5b6117f18282613222565b5050565b6060814281101561186e576040517f08c379a00000000000000000000000000000000000000000000000000000000081526004018080602001828103825260168152602001807f50616e63616b65526f757465723a20455850495245440000000000000000000081525060200191505060405180910390fd5b6118da7f000000000000000000000000000000000000000000000000000000000000000089888880806020026020016040519081016040528093929190818152602001838360200280828437600081840152601f19601f82011690508083019250505050505050613304565b91506000600560009054906101000a900473ffffffffffffffffffffffffffffffffffffffff1673ffffffffffffffffffffffffffffffffffffffff166370a08231336040518263ffffffff1660e01b8152600401808273ffffffffffffffffffffffffffffffffffffffff1673ffffffffffffffffffffffffffffffffffffffff16815260200191505060206040518083038186803b15801561197d57600080fd5b505afa158015611991573d6000803e3d6000fd5b505050506040513d60208110156119a757600080fd5b81019080805190602001909291905050509050600060045482106119ce5760009050611a83565b6127106003548b02816119dd57fe5b049050611a15888860008181106119f057fe5b9050602002013573ffffffffffffffffffffffffffffffffffffffff1633308461347c565b8088886000818110611a2357fe5b9050602002013573ffffffffffffffffffffffffffffffffffffffff1673ffffffffffffffffffffffffffffffffffffffff167f55bb3cade9d43b798a4fe5ffdd05024b2d7870df53920673bfc7e68047cd0ab160405160405180910390a35b611ac16040518060400160405280600681526020017f646267656e6400000000000000000000000000000000000000000000000000008152506137b8565b808a0399508884600186510381518110611ad757fe5b60200260200101511015611b36576040517f08c379a000000000000000000000000000000000000000000000000000000000815260040180806020018281038252602981526020018061533c6029913960400191505060405180910390fd5b611ba27f00000000000000000000000000000000000000000000000000000000000000008b8a8a80806020026020016040519081016040528093929190818152602001838360200280828437600081840152601f19601f82011690508083019250505050505050613304565b93508884600186510381518110611bb557fe5b60200260200101511015611c14576040517f08c379a000000000000000000000000000000000000000000000000000000000815260040180806020018281038252602981526020018061533c6029913960400191505060405180910390fd5b611cd988886000818110611c2457fe5b9050602002013573ffffffffffffffffffffffffffffffffffffffff1633611cbf7f00000000000000000000000000000000000000000000000000000000000000008c8c6000818110611c7357fe5b9050602002013573ffffffffffffffffffffffffffffffffffffffff168d8d6001818110611c9d57fe5b9050602002013573ffffffffffffffffffffffffffffffffffffffff16612e4b565b87600081518110611ccc57fe5b602002602001015161347c565b611d2584898980806020026020016040519081016040528093929190818152602001838360200280828437600081840152601f19601f82011690508083019250505050505050886138b6565b5050509695505050505050565b80600481905550807f7b1ffeb7108f18e57b8afd7a064966095b5c7cef1212c4e31d5cf6fee2cb1aa260405160405180910390a250565b8042811015611de0576040517f08c379a00000000000000000000000000000000000000000000000000000000081526004018080602001828103825260168152602001807f50616e63616b65526f757465723a20455850495245440000000000000000000081525060200191505060405180910390fd5b611e9185856000818110611df057fe5b9050602002013573ffffffffffffffffffffffffffffffffffffffff1633611e8b7f000000000000000000000000000000000000000000000000000000000000000089896000818110611e3f57fe5b9050602002013573ffffffffffffffffffffffffffffffffffffffff168a8a6001818110611e6957fe5b9050602002013573ffffffffffffffffffffffffffffffffffffffff16612e4b565b8a61347c565b6000858560018888905003818110611ea557fe5b9050602002013573ffffffffffffffffffffffffffffffffffffffff1673ffffffffffffffffffffffffffffffffffffffff166370a08231856040518263ffffffff1660e01b8152600401808273ffffffffffffffffffffffffffffffffffffffff1673ffffffffffffffffffffffffffffffffffffffff16815260200191505060206040518083038186803b158015611f3e57600080fd5b505afa158015611f52573d6000803e3d6000fd5b505050506040513d6020811015611f6857600080fd5b81019080805190602001909291905050509050611fc6868680806020026020016040519081016040528093929190818152602001838360200280828437600081840152601f19601f8201169050808301925050505050505085613b61565b866120bf82888860018b8b905003818110611fdd57fe5b9050602002013573ffffffffffffffffffffffffffffffffffffffff1673ffffffffffffffffffffffffffffffffffffffff166370a08231886040518263ffffffff1660e01b8152600401808273ffffffffffffffffffffffffffffffffffffffff1673ffffffffffffffffffffffffffffffffffffffff16815260200191505060206040518083038186803b15801561207657600080fd5b505afa15801561208a573d6000803e3d6000fd5b505050506040513d60208110156120a057600080fd5b8101908080519060200190929190505050613fd890919063ffffffff16565b1015612116576040517f08c379a000000000000000000000000000000000000000000000000000000000815260040180806020018281038252602981526020018061533c6029913960400191505060405180910390fd5b5050505050505050565b612128612f42565b612132600061405b565b565b60405160200180807f41444d494e00000000000000000000000000000000000000000000000000000081525060050190506040516020818303038152906040528051906020012081565b600061218b84848461411f565b90509392505050565b6060814281101561220d576040517f08c379a00000000000000000000000000000000000000000000000000000000081526004018080602001828103825260168152602001807f50616e63616b65526f757465723a20455850495245440000000000000000000081525060200191505060405180910390fd5b6122797f000000000000000000000000000000000000000000000000000000000000000089888880806020026020016040519081016040528093929190818152602001838360200280828437600081840152601f19601f82011690508083019250505050505050612ccb565b9150868260008151811061228957fe5b602002602001015111156122e8576040517f08c379a00000000000000000000000000000000000000000000000000000000081526004018080602001828103825260258152602001806153cf6025913960400191505060405180910390fd5b6123ad868660008181106122f857fe5b9050602002013573ffffffffffffffffffffffffffffffffffffffff16336123937f00000000000000000000000000000000000000000000000000000000000000008a8a600081811061234757fe5b9050602002013573ffffffffffffffffffffffffffffffffffffffff168b8b600181811061237157fe5b9050602002013573ffffffffffffffffffffffffffffffffffffffff16612e4b565b856000815181106123a057fe5b602002602001015161347c565b6123f982878780806020026020016040519081016040528093929190818152602001838360200280828437600081840152601f19601f82011690508083019250505050505050866138b6565b509695505050505050565b60008060009054906101000a900473ffffffffffffffffffffffffffffffffffffffff16905090565b60006001600084815260200190815260200160002060000160008373ffffffffffffffffffffffffffffffffffffffff1673ffffffffffffffffffffffffffffffffffffffff16815260200190815260200160002060009054906101000a900460ff16905092915050565b6000801b81565b6000600454905090565b7f000000000000000000000000000000000000000000000000000000000000000081565b60006124da84848461425c565b90509392505050565b6000600260009054906101000a900473ffffffffffffffffffffffffffffffffffffffff16905090565b6000808242811015612587576040517f08c379a00000000000000000000000000000000000000000000000000000000081526004018080602001828103825260168152602001807f50616e63616b65526f757465723a20455850495245440000000000000000000081525060200191505060405180910390fd5b60006125b47f00000000000000000000000000000000000000000000000000000000000000008c8c612e4b565b90508073ffffffffffffffffffffffffffffffffffffffff166323b872dd33838c6040518463ffffffff1660e01b8152600401808473ffffffffffffffffffffffffffffffffffffffff1673ffffffffffffffffffffffffffffffffffffffff1681526020018373ffffffffffffffffffffffffffffffffffffffff1673ffffffffffffffffffffffffffffffffffffffff1681526020018281526020019350505050602060405180830381600087803b15801561267157600080fd5b505af1158015612685573d6000803e3d6000fd5b505050506040513d602081101561269b57600080fd5b8101908080519060200190929190505050506000808273ffffffffffffffffffffffffffffffffffffffff166389afcb44896040518263ffffffff1660e01b8152600401808273ffffffffffffffffffffffffffffffffffffffff1673ffffffffffffffffffffffffffffffffffffffff1681526020019150506040805180830381600087803b15801561272e57600080fd5b505af1158015612742573d6000803e3d6000fd5b505050506040513d604081101561275857600080fd5b8101908080519060200190929190805190602001909291905050509150915060006127838e8e614340565b5090508073ffffffffffffffffffffffffffffffffffffffff168e73ffffffffffffffffffffffffffffffffffffffff16146127c05781836127c3565b82825b80975081985050508a871015612824576040517f08c379a00000000000000000000000000000000000000000000000000000000081526004018080602001828103825260248152602001806153886024913960400191505060405180910390fd5b8986101561287d576040517f08c379a000000000000000000000000000000000000000000000000000000000815260040180806020018281038252602481526020018061541a6024913960400191505060405180910390fd5b505050505097509795505050505050565b7f000000000000000000000000000000000000000000000000000000000000000081565b60606128df7f00000000000000000000000000000000000000000000000000000000000000008484613304565b905092915050565b6000600354905090565b6128fa82611474565b61290381613126565b61290d8383613222565b505050565b60405160200180807f4f574e455200000000000000000000000000000000000000000000000000000081525060050190506040516020818303038152906040528051906020012081565b600080600083428110156129d8576040517f08c379a00000000000000000000000000000000000000000000000000000000081526004018080602001828103825260168152602001807f50616e63616b65526f757465723a20455850495245440000000000000000000081525060200191505060405180910390fd5b6129e68c8c8c8c8c8c6144b7565b80945081955050506000612a1b7f00000000000000000000000000000000000000000000000000000000000000008e8e612e4b565b9050612a298d33838861347c565b612a358c33838761347c565b8073ffffffffffffffffffffffffffffffffffffffff16636a627842886040518263ffffffff1660e01b8152600401808273ffffffffffffffffffffffffffffffffffffffff1673ffffffffffffffffffffffffffffffffffffffff168152602001915050602060405180830381600087803b158015612ab457600080fd5b505af1158015612ac8573d6000803e3d6000fd5b505050506040513d6020811015612ade57600080fd5b810190808051906020019092919050505092505050985098509895505050505050565b612b09612f42565b600073ffffffffffffffffffffffffffffffffffffffff168173ffffffffffffffffffffffffffffffffffffffff161415612b8f576040517f08c379a00000000000000000000000000000000000000000000000000000000081526004018080602001828103825260268152602001806152bb6026913960400191505060405180910390fd5b612b988161405b565b50565b6000808411612bf5576040517f08c379a00000000000000000000000000000000000000000000000000000000081526004018080602001828103825260298152602001806152926029913960400191505060405180910390fd5b600083118015612c055750600082115b612c5a576040517f08c379a00000000000000000000000000000000000000000000000000000000081526004018080602001828103825260268152602001806153f46026913960400191505060405180910390fd5b6000612c716126f78661489990919063ffffffff16565b90506000612c88848361489990919063ffffffff16565b90506000612cb383612ca56127108961489990919063ffffffff16565b61492e90919063ffffffff16565b9050808281612cbe57fe5b0493505050509392505050565b6060600282511015612d45576040517f08c379a000000000000000000000000000000000000000000000000000000000815260040180806020018281038252601c8152602001807f50616e63616b654c6962726172793a20494e56414c49445f504154480000000081525060200191505060405180910390fd5b815167ffffffffffffffff81118015612d5d57600080fd5b50604051908082528060200260200182016040528015612d8c5781602001602082028036833780820191505090505b5090508281600183510381518110612da057fe5b6020026020010181815250506000600183510390505b6000811115612e4357600080612df687866001860381518110612dd557fe5b6020026020010151878681518110612de957fe5b60200260200101516149b1565b91509150612e18848481518110612e0957fe5b6020026020010151838361411f565b846001850381518110612e2757fe5b6020026020010181815250505050808060019003915050612db6565b509392505050565b60008373ffffffffffffffffffffffffffffffffffffffff1663e6a4390584846040518363ffffffff1660e01b8152600401808373ffffffffffffffffffffffffffffffffffffffff1673ffffffffffffffffffffffffffffffffffffffff1681526020018273ffffffffffffffffffffffffffffffffffffffff1673ffffffffffffffffffffffffffffffffffffffff1681526020019250505060206040518083038186803b158015612efe57600080fd5b505afa158015612f12573d6000803e3d6000fd5b505050506040513d6020811015612f2857600080fd5b810190808051906020019092919050505090509392505050565b612f4a61321a565b73ffffffffffffffffffffffffffffffffffffffff16612f68612404565b73ffffffffffffffffffffffffffffffffffffffff1614612ff1576040517f08c379a00000000000000000000000000000000000000000000000000000000081526004018080602001828103825260208152602001807f4f776e61626c653a2063616c6c6572206973206e6f7420746865206f776e657281525060200191505060405180910390fd5b565b613122828260405160240180806020018373ffffffffffffffffffffffffffffffffffffffff1673ffffffffffffffffffffffffffffffffffffffff168152602001828103825284818151815260200191508051906020019080838360005b8381101561306d578082015181840152602081019050613052565b50505050905090810190601f16801561309a5780820380516001836020036101000a031916815260200191505b5093505050506040516020818303038152906040527f319af333000000000000000000000000000000000000000000000000000000007bffffffffffffffffffffffffffffffffffffffffffffffffffffffff19166020820180517bffffffffffffffffffffffffffffffffffffffffffffffffffffffff8381831617835250505050614ae6565b5050565b6131378161313261321a565b614b0f565b50565b613144828261242d565b61321657600180600084815260200190815260200160002060000160008373ffffffffffffffffffffffffffffffffffffffff1673ffffffffffffffffffffffffffffffffffffffff16815260200190815260200160002060006101000a81548160ff0219169083151502179055506131bb61321a565b73ffffffffffffffffffffffffffffffffffffffff168173ffffffffffffffffffffffffffffffffffffffff16837f2f8788117e7eff1d82e926ec794901d17c78024a50270940304540a733656f0d60405160405180910390a45b5050565b600033905090565b61322c828261242d565b156133005760006001600084815260200190815260200160002060000160008373ffffffffffffffffffffffffffffffffffffffff1673ffffffffffffffffffffffffffffffffffffffff16815260200190815260200160002060006101000a81548160ff0219169083151502179055506132a561321a565b73ffffffffffffffffffffffffffffffffffffffff168173ffffffffffffffffffffffffffffffffffffffff16837ff6391f5c32d9c69d2a47ea670b442974b53935d1edc7fd64eb21e047a839171b60405160405180910390a45b5050565b606060028251101561337e576040517f08c379a000000000000000000000000000000000000000000000000000000000815260040180806020018281038252601c8152602001807f50616e63616b654c6962726172793a20494e56414c49445f504154480000000081525060200191505060405180910390fd5b815167ffffffffffffffff8111801561339657600080fd5b506040519080825280602002602001820160405280156133c55781602001602082028036833780820191505090505b50905082816000815181106133d657fe5b60200260200101818152505060005b6001835103811015613474576000806134288786858151811061340457fe5b602002602001015187600187018151811061341b57fe5b60200260200101516149b1565b9150915061344a84848151811061343b57fe5b60200260200101518383612b9b565b84600185018151811061345957fe5b602002602001018181525050505080806001019150506133e5565b509392505050565b600060608573ffffffffffffffffffffffffffffffffffffffff166323b872dd868686604051602401808473ffffffffffffffffffffffffffffffffffffffff1673ffffffffffffffffffffffffffffffffffffffff1681526020018373ffffffffffffffffffffffffffffffffffffffff1673ffffffffffffffffffffffffffffffffffffffff16815260200182815260200193505050506040516020818303038152906040529060e01b6020820180517bffffffffffffffffffffffffffffffffffffffffffffffffffffffff83818316178352505050506040518082805190602001908083835b602083106135895780518252602082019150602081019050602083039250613566565b6001836020036101000a0380198251168184511680821785525050505050509050019150506000604051808303816000865af19150503d80600081146135eb576040519150601f19603f3d011682016040523d82523d6000602084013e6135f0565b606091505b50915091506136346040518060400160405280600681526020017f746f6b656e20000000000000000000000000000000000000000000000000000081525087612ff3565b6136aa6040518060400160405280600581526020017f66726f6d20000000000000000000000000000000000000000000000000000000815250866040518060400160405280600381526020017f746f20000000000000000000000000000000000000000000000000000000000081525087614ce5565b6137206040518060400160405280600681526020017f76616c7565200000000000000000000000000000000000000000000000000000815250846040518060400160405280600881526020017f737563636573732000000000000000000000000000000000000000000000000081525085614ebb565b81801561375b575060008151148061375a575080806020019051602081101561374857600080fd5b81019080805190602001909291905050505b5b6137b0576040517f08c379a000000000000000000000000000000000000000000000000000000000815260040180806020018281038252603181526020018061530b6031913960400191505060405180910390fd5b505050505050565b6138b3816040516024018080602001828103825283818151815260200191508051906020019080838360005b838110156137ff5780820151818401526020810190506137e4565b50505050905090810190601f16801561382c5780820380516001836020036101000a031916815260200191505b50925050506040516020818303038152906040527f41304fac000000000000000000000000000000000000000000000000000000007bffffffffffffffffffffffffffffffffffffffffffffffffffffffff19166020820180517bffffffffffffffffffffffffffffffffffffffffffffffffffffffff8381831617835250505050614ae6565b50565b60005b6001835103811015613b5b576000808483815181106138d457fe5b60200260200101518560018501815181106138eb57fe5b60200260200101519150915060006139038383614340565b509050600087600186018151811061391757fe5b602002602001015190506000808373ffffffffffffffffffffffffffffffffffffffff168673ffffffffffffffffffffffffffffffffffffffff161461395f57826000613963565b6000835b91509150600060028a5103881061397a57886139bc565b6139bb7f0000000000000000000000000000000000000000000000000000000000000000878c60028c01815181106139ae57fe5b6020026020010151612e4b565b5b90506139e97f00000000000000000000000000000000000000000000000000000000000000008888612e4b565b73ffffffffffffffffffffffffffffffffffffffff1663022c0d9f848484600067ffffffffffffffff81118015613a1f57600080fd5b506040519080825280601f01601f191660200182016040528015613a525781602001600182028036833780820191505090505b506040518563ffffffff1660e01b8152600401808581526020018481526020018373ffffffffffffffffffffffffffffffffffffffff1673ffffffffffffffffffffffffffffffffffffffff16815260200180602001828103825283818151815260200191508051906020019080838360005b83811015613ae0578082015181840152602081019050613ac5565b50505050905090810190601f168015613b0d5780820380516001836020036101000a031916815260200191505b5095505050505050600060405180830381600087803b158015613b2f57600080fd5b505af1158015613b43573d6000803e3d6000fd5b505050505050505050505080806001019150506138b9565b50505050565b60005b6001835103811015613fd357600080848381518110613b7f57fe5b6020026020010151856001850181518110613b9657fe5b6020026020010151915091506000613bae8383614340565b5090506000613bde7f00000000000000000000000000000000000000000000000000000000000000008585612e4b565b90506000806000808473ffffffffffffffffffffffffffffffffffffffff16630902f1ac6040518163ffffffff1660e01b815260040160606040518083038186803b158015613c2c57600080fd5b505afa158015613c40573d6000803e3d6000fd5b505050506040513d6060811015613c5657600080fd5b81019080805190602001909291908051906020019092919080519060200190929190505050506dffffffffffffffffffffffffffff1691506dffffffffffffffffffffffffffff1691506000808773ffffffffffffffffffffffffffffffffffffffff168a73ffffffffffffffffffffffffffffffffffffffff1614613cdd578284613ce0565b83835b91509150613dae828b73ffffffffffffffffffffffffffffffffffffffff166370a082318a6040518263ffffffff1660e01b8152600401808273ffffffffffffffffffffffffffffffffffffffff1673ffffffffffffffffffffffffffffffffffffffff16815260200191505060206040518083038186803b158015613d6557600080fd5b505afa158015613d79573d6000803e3d6000fd5b505050506040513d6020811015613d8f57600080fd5b8101908080519060200190929190505050613fd890919063ffffffff16565b9550613dbb868383612b9b565b9450505050506000808573ffffffffffffffffffffffffffffffffffffffff168873ffffffffffffffffffffffffffffffffffffffff1614613dff57826000613e03565b6000835b91509150600060028c51038a10613e1a578a613e5c565b613e5b7f0000000000000000000000000000000000000000000000000000000000000000898e60028e0181518110613e4e57fe5b6020026020010151612e4b565b5b90508573ffffffffffffffffffffffffffffffffffffffff1663022c0d9f848484600067ffffffffffffffff81118015613e9557600080fd5b506040519080825280601f01601f191660200182016040528015613ec85781602001600182028036833780820191505090505b506040518563ffffffff1660e01b8152600401808581526020018481526020018373ffffffffffffffffffffffffffffffffffffffff1673ffffffffffffffffffffffffffffffffffffffff16815260200180602001828103825283818151815260200191508051906020019080838360005b83811015613f56578082015181840152602081019050613f3b565b50505050905090810190601f168015613f835780820380516001836020036101000a031916815260200191505b5095505050505050600060405180830381600087803b158015613fa557600080fd5b505af1158015613fb9573d6000803e3d6000fd5b505050505050505050505050508080600101915050613b64565b505050565b6000828284039150811115614055576040517f08c379a00000000000000000000000000000000000000000000000000000000081526004018080602001828103825260158152602001807f64732d6d6174682d7375622d756e646572666c6f77000000000000000000000081525060200191505060405180910390fd5b92915050565b60008060009054906101000a900473ffffffffffffffffffffffffffffffffffffffff169050816000806101000a81548173ffffffffffffffffffffffffffffffffffffffff021916908373ffffffffffffffffffffffffffffffffffffffff1602179055508173ffffffffffffffffffffffffffffffffffffffff168173ffffffffffffffffffffffffffffffffffffffff167f8be0079c531659141344cd1fd0a4f28419497f9722a3daafe3b4186f6b6457e060405160405180910390a35050565b6000808411614179576040517f08c379a000000000000000000000000000000000000000000000000000000000815260040180806020018281038252602a8152602001806152e1602a913960400191505060405180910390fd5b6000831180156141895750600082115b6141de576040517f08c379a00000000000000000000000000000000000000000000000000000000081526004018080602001828103825260268152602001806153f46026913960400191505060405180910390fd5b60006142076127106141f9878761489990919063ffffffff16565b61489990919063ffffffff16565b905060006142326126f76142248887613fd890919063ffffffff16565b61489990919063ffffffff16565b9050614251600182848161424257fe5b0461492e90919063ffffffff16565b925050509392505050565b60008084116142b6576040517f08c379a00000000000000000000000000000000000000000000000000000000081526004018080602001828103825260238152602001806153ac6023913960400191505060405180910390fd5b6000831180156142c65750600082115b61431b576040517f08c379a00000000000000000000000000000000000000000000000000000000081526004018080602001828103825260268152602001806153f46026913960400191505060405180910390fd5b8261432f838661489990919063ffffffff16565b8161433657fe5b0490509392505050565b6000808273ffffffffffffffffffffffffffffffffffffffff168473ffffffffffffffffffffffffffffffffffffffff1614156143c8576040517f08c379a00000000000000000000000000000000000000000000000000000000081526004018080602001828103825260238152602001806153656023913960400191505060405180910390fd5b8273ffffffffffffffffffffffffffffffffffffffff168473ffffffffffffffffffffffffffffffffffffffff1610614402578284614405565b83835b8092508193505050600073ffffffffffffffffffffffffffffffffffffffff168273ffffffffffffffffffffffffffffffffffffffff1614156144b0576040517f08c379a000000000000000000000000000000000000000000000000000000000815260040180806020018281038252601c8152602001807f50616e63616b654c6962726172793a205a45524f5f414444524553530000000081525060200191505060405180910390fd5b9250929050565b600080600073ffffffffffffffffffffffffffffffffffffffff167f000000000000000000000000000000000000000000000000000000000000000073ffffffffffffffffffffffffffffffffffffffff1663e6a439058a8a6040518363ffffffff1660e01b8152600401808373ffffffffffffffffffffffffffffffffffffffff1673ffffffffffffffffffffffffffffffffffffffff1681526020018273ffffffffffffffffffffffffffffffffffffffff1673ffffffffffffffffffffffffffffffffffffffff1681526020019250505060206040518083038186803b1580156145a357600080fd5b505afa1580156145b7573d6000803e3d6000fd5b505050506040513d60208110156145cd57600080fd5b810190808051906020019092919050505073ffffffffffffffffffffffffffffffffffffffff16141561470a577f000000000000000000000000000000000000000000000000000000000000000073ffffffffffffffffffffffffffffffffffffffff1663c9c6539689896040518363ffffffff1660e01b8152600401808373ffffffffffffffffffffffffffffffffffffffff1673ffffffffffffffffffffffffffffffffffffffff1681526020018273ffffffffffffffffffffffffffffffffffffffff1673ffffffffffffffffffffffffffffffffffffffff16815260200192505050602060405180830381600087803b1580156146cd57600080fd5b505af11580156146e1573d6000803e3d6000fd5b505050506040513d60208110156146f757600080fd5b8101908080519060200190929190505050505b6000806147387f00000000000000000000000000000000000000000000000000000000000000008b8b6149b1565b9150915060008214801561474c5750600081145b15614760578787809450819550505061488c565b600061476d89848461425c565b90508781116147de57858110156147cf576040517f08c379a000000000000000000000000000000000000000000000000000000000815260040180806020018281038252602481526020018061541a6024913960400191505060405180910390fd5b8881809550819650505061488a565b60006147eb89848661425c565b9050898111156147f757fe5b87811015614850576040517f08c379a00000000000000000000000000000000000000000000000000000000081526004018080602001828103825260248152602001806153886024913960400191505060405180910390fd5b8089809650819750505084867fcb1652de9aeec38545fc281847b3dbfc89aab56dfa907b1ab68466f602c36fb460405160405180910390a3505b505b5050965096945050505050565b6000808214806148b657508282838502925082816148b357fe5b04145b614928576040517f08c379a00000000000000000000000000000000000000000000000000000000081526004018080602001828103825260148152602001807f64732d6d6174682d6d756c2d6f766572666c6f7700000000000000000000000081525060200191505060405180910390fd5b92915050565b60008282840191508110156149ab576040517f08c379a00000000000000000000000000000000000000000000000000000000081526004018080602001828103825260148152602001807f64732d6d6174682d6164642d6f766572666c6f7700000000000000000000000081525060200191505060405180910390fd5b92915050565b60008060006149c08585614340565b5090506149ce868686612e4b565b506000806149dd888888612e4b565b73ffffffffffffffffffffffffffffffffffffffff16630902f1ac6040518163ffffffff1660e01b815260040160606040518083038186803b158015614a2257600080fd5b505afa158015614a36573d6000803e3d6000fd5b505050506040513d6060811015614a4c57600080fd5b81019080805190602001909291908051906020019092919080519060200190929190505050506dffffffffffffffffffffffffffff1691506dffffffffffffffffffffffffffff1691508273ffffffffffffffffffffffffffffffffffffffff168773ffffffffffffffffffffffffffffffffffffffff1614614ad0578082614ad3565b81815b8095508196505050505050935093915050565b60008151905060006a636f6e736f6c652e6c6f679050602083016000808483855afa5050505050565b614b19828261242d565b614ce157614b268161503d565b614b348360001c602061506a565b60405160200180807f416363657373436f6e74726f6c3a206163636f756e742000000000000000000081525060170183805190602001908083835b60208310614b925780518252602082019150602081019050602083039250614b6f565b6001836020036101000a038019825116818451168082178552505050505050905001807f206973206d697373696e6720726f6c652000000000000000000000000000000081525060110182805190602001908083835b60208310614c0b5780518252602082019150602081019050602083039250614be8565b6001836020036101000a038019825116818451168082178552505050505050905001925050506040516020818303038152906040526040517f08c379a00000000000000000000000000000000000000000000000000000000081526004018080602001828103825283818151815260200191508051906020019080838360005b83811015614ca6578082015181840152602081019050614c8b565b50505050905090810190601f168015614cd35780820380516001836020036101000a031916815260200191505b509250505060405180910390fd5b5050565b614eb58484848460405160240180806020018573ffffffffffffffffffffffffffffffffffffffff1673ffffffffffffffffffffffffffffffffffffffff168152602001806020018473ffffffffffffffffffffffffffffffffffffffff1673ffffffffffffffffffffffffffffffffffffffff168152602001838103835287818151815260200191508051906020019080838360005b83811015614d97578082015181840152602081019050614d7c565b50505050905090810190601f168015614dc45780820380516001836020036101000a031916815260200191505b50838103825285818151815260200191508051906020019080838360005b83811015614dfd578082015181840152602081019050614de2565b50505050905090810190601f168015614e2a5780820380516001836020036101000a031916815260200191505b5096505050505050506040516020818303038152906040527faabc9a31000000000000000000000000000000000000000000000000000000007bffffffffffffffffffffffffffffffffffffffffffffffffffffffff19166020820180517bffffffffffffffffffffffffffffffffffffffffffffffffffffffff8381831617835250505050614ae6565b50505050565b6150378484848460405160240180806020018581526020018060200184151515158152602001838103835287818151815260200191508051906020019080838360005b83811015614f19578082015181840152602081019050614efe565b50505050905090810190601f168015614f465780820380516001836020036101000a031916815260200191505b50838103825285818151815260200191508051906020019080838360005b83811015614f7f578082015181840152602081019050614f64565b50505050905090810190601f168015614fac5780820380516001836020036101000a031916815260200191505b5096505050505050506040516020818303038152906040527fe99f82cf000000000000000000000000000000000000000000000000000000007bffffffffffffffffffffffffffffffffffffffffffffffffffffffff19166020820180517bffffffffffffffffffffffffffffffffffffffffffffffffffffffff8381831617835250505050614ae6565b50505050565b60606150638273ffffffffffffffffffffffffffffffffffffffff16601460ff1661506a565b9050919050565b6060806002836002020167ffffffffffffffff8111801561508a57600080fd5b506040519080825280601f01601f1916602001820160405280156150bd5781602001600182028036833780820191505090505b5090507f3000000000000000000000000000000000000000000000000000000000000000816000815181106150ee57fe5b60200101907effffffffffffffffffffffffffffffffffffffffffffffffffffffffffffff1916908160001a9053507f78000000000000000000000000000000000000000000000000000000000000008160018151811061514b57fe5b60200101907effffffffffffffffffffffffffffffffffffffffffffffffffffffffffffff1916908160001a90535060006001846002020190505b6001811115615210577f3031323334353637383961626364656600000000000000000000000000000000600f8616601081106151be57fe5b1a60f81b8282815181106151ce57fe5b60200101907effffffffffffffffffffffffffffffffffffffffffffffffffffffffffffff1916908160001a905350600485901c945080600190039050615186565b5060008414615287576040517f08c379a00000000000000000000000000000000000000000000000000000000081526004018080602001828103825260208152602001807f537472696e67733a20686578206c656e67746820696e73756666696369656e7481525060200191505060405180910390fd5b809150509291505056fe50616e63616b654c6962726172793a20494e53554646494349454e545f494e5055545f414d4f554e544f776e61626c653a206e6577206f776e657220697320746865207a65726f206164647265737350616e63616b654c6962726172793a20494e53554646494349454e545f4f55545055545f414d4f554e545472616e7366657248656c7065723a3a7472616e7366657246726f6d3a207472616e7366657246726f6d206661696c656450616e63616b65526f757465723a20494e53554646494349454e545f4f55545055545f414d4f554e5450616e63616b654c6962726172793a204944454e544943414c5f41444452455353455350616e63616b65526f757465723a20494e53554646494349454e545f415f414d4f554e5450616e63616b654c6962726172793a20494e53554646494349454e545f414d4f554e5450616e63616b65526f757465723a204558434553534956455f494e5055545f414d4f554e5450616e63616b654c6962726172793a20494e53554646494349454e545f4c495155494449545950616e63616b65526f757465723a20494e53554646494349454e545f425f414d4f554e54416363657373436f6e74726f6c3a2063616e206f6e6c792072656e6f756e636520726f6c657320666f722073656c66a2646970667358221220b9443e2a47fbe1f1ae705a8ad179801bcad322b716b20c08b7d66d495d4c67fc64736f6c63430006060033",
  "devdoc": {
    "methods": {
      "getRoleAdmin(bytes32)": {
        "details": "Returns the admin role that controls `role`. See {grantRole} and {revokeRole}.     * To change a role's admin, use {_setRoleAdmin}."
      },
      "grantRole(bytes32,address)": {
        "details": "Grants `role` to `account`.     * If `account` had not been already granted `role`, emits a {RoleGranted} event.     * Requirements:     * - the caller must have ``role``'s admin role.     * May emit a {RoleGranted} event."
      },
      "hasRole(bytes32,address)": {
        "details": "Returns `true` if `account` has been granted `role`."
      },
      "owner()": {
        "details": "Returns the address of the current owner."
      },
      "renounceOwnership()": {
        "details": "Leaves the contract without owner. It will not be possible to call `onlyOwner` functions anymore. Can only be called by the current owner.     * NOTE: Renouncing ownership will leave the contract without an owner, thereby removing any functionality that is only available to the owner."
      },
      "renounceRole(bytes32,address)": {
        "details": "Revokes `role` from the calling account.     * Roles are often managed via {grantRole} and {revokeRole}: this function's purpose is to provide a mechanism for accounts to lose their privileges if they are compromised (such as when a trusted device is misplaced).     * If the calling account had been revoked `role`, emits a {RoleRevoked} event.     * Requirements:     * - the caller must be `account`.     * May emit a {RoleRevoked} event."
      },
      "revokeRole(bytes32,address)": {
        "details": "Revokes `role` from `account`.     * If `account` had been granted `role`, emits a {RoleRevoked} event.     * Requirements:     * - the caller must have ``role``'s admin role.     * May emit a {RoleRevoked} event."
      },
      "transferOwnership(address)": {
        "details": "Transfers ownership of the contract to a new account (`newOwner`). Can only be called by the current owner."
      }
    }
  },
  "userdoc": {
    "methods": {}
  },
  "storageLayout": {
    "storage": [
      {
        "astId": 2552,
        "contract": "contracts/PancakeRouter_mod.sol:PancakeRouter_mod",
        "label": "_owner",
        "offset": 0,
        "slot": "0",
        "type": "t_address"
      },
      {
        "astId": 2202,
        "contract": "contracts/PancakeRouter_mod.sol:PancakeRouter_mod",
        "label": "_roles",
        "offset": 0,
        "slot": "1",
        "type": "t_mapping(t_bytes32,t_struct(RoleData)2198_storage)"
      },
      {
        "astId": 856,
        "contract": "contracts/PancakeRouter_mod.sol:PancakeRouter_mod",
        "label": "adminAddress",
        "offset": 0,
        "slot": "2",
        "type": "t_address"
      },
      {
        "astId": 859,
        "contract": "contracts/PancakeRouter_mod.sol:PancakeRouter_mod",
        "label": "swapFee",
        "offset": 0,
        "slot": "3",
        "type": "t_uint256"
      },
      {
        "astId": 862,
        "contract": "contracts/PancakeRouter_mod.sol:PancakeRouter_mod",
        "label": "lsrMinBalance",
        "offset": 0,
        "slot": "4",
        "type": "t_uint256"
      },
      {
        "astId": 864,
        "contract": "contracts/PancakeRouter_mod.sol:PancakeRouter_mod",
        "label": "lsr",
        "offset": 0,
        "slot": "5",
        "type": "t_contract(ERC20LSR)803"
      }
    ],
    "types": {
      "t_address": {
        "encoding": "inplace",
        "label": "address",
        "numberOfBytes": "20"
      },
      "t_bool": {
        "encoding": "inplace",
        "label": "bool",
        "numberOfBytes": "1"
      },
      "t_bytes32": {
        "encoding": "inplace",
        "label": "bytes32",
        "numberOfBytes": "32"
      },
      "t_contract(ERC20LSR)803": {
        "encoding": "inplace",
        "label": "contract ERC20LSR",
        "numberOfBytes": "20"
      },
      "t_mapping(t_address,t_bool)": {
        "encoding": "mapping",
        "key": "t_address",
        "label": "mapping(address => bool)",
        "numberOfBytes": "32",
        "value": "t_bool"
      },
      "t_mapping(t_bytes32,t_struct(RoleData)2198_storage)": {
        "encoding": "mapping",
        "key": "t_bytes32",
        "label": "mapping(bytes32 => struct AccessControl.RoleData)",
        "numberOfBytes": "32",
        "value": "t_struct(RoleData)2198_storage"
      },
      "t_struct(RoleData)2198_storage": {
        "encoding": "inplace",
        "label": "struct AccessControl.RoleData",
        "members": [
          {
            "astId": 2195,
            "contract": "contracts/PancakeRouter_mod.sol:PancakeRouter_mod",
            "label": "members",
            "offset": 0,
            "slot": "0",
            "type": "t_mapping(t_address,t_bool)"
          },
          {
            "astId": 2197,
            "contract": "contracts/PancakeRouter_mod.sol:PancakeRouter_mod",
            "label": "adminRole",
            "offset": 0,
            "slot": "1",
            "type": "t_bytes32"
          }
        ],
        "numberOfBytes": "64"
      },
      "t_uint256": {
        "encoding": "inplace",
        "label": "uint256",
        "numberOfBytes": "32"
      }
    }
  }
}