{
  "address": "0xa513E6E4b8f2a923D98304ec87F64353C4D5C853",
  "abi": [
    {
      "inputs": [
        {
          "internalType": "address",
          "name": "_factory",
          "type": "address"
        },
        {
          "internalType": "address",
          "name": "_WETH",
          "type": "address"
        },
        {
          "internalType": "address",
          "name": "_LSRAddress",
          "type": "address"
        }
      ],
      "stateMutability": "nonpayable",
      "type": "constructor"
    },
    {
      "anonymous": false,
      "inputs": [
        {
          "indexed": true,
          "internalType": "uint256",
          "name": "amountA",
          "type": "uint256"
        },
        {
          "indexed": true,
          "internalType": "uint256",
          "name": "amountB",
          "type": "uint256"
        }
      ],
      "name": "AddLiquidity",
      "type": "event"
    },
    {
      "anonymous": false,
      "inputs": [
        {
          "indexed": true,
          "internalType": "address",
          "name": "_token",
          "type": "address"
        },
        {
          "indexed": true,
          "internalType": "uint256",
          "name": "_fee",
          "type": "uint256"
        }
      ],
      "name": "FeeCharged",
      "type": "event"
    },
    {
      "anonymous": false,
      "inputs": [
        {
          "indexed": true,
          "internalType": "bytes32",
          "name": "role",
          "type": "bytes32"
        },
        {
          "indexed": true,
          "internalType": "bytes32",
          "name": "previousAdminRole",
          "type": "bytes32"
        },
        {
          "indexed": true,
          "internalType": "bytes32",
          "name": "newAdminRole",
          "type": "bytes32"
        }
      ],
      "name": "RoleAdminChanged",
      "type": "event"
    },
    {
      "anonymous": false,
      "inputs": [
        {
          "indexed": true,
          "internalType": "bytes32",
          "name": "role",
          "type": "bytes32"
        },
        {
          "indexed": true,
          "internalType": "address",
          "name": "account",
          "type": "address"
        },
        {
          "indexed": true,
          "internalType": "address",
          "name": "sender",
          "type": "address"
        }
      ],
      "name": "RoleGranted",
      "type": "event"
    },
    {
      "anonymous": false,
      "inputs": [
        {
          "indexed": true,
          "internalType": "bytes32",
          "name": "role",
          "type": "bytes32"
        },
        {
          "indexed": true,
          "internalType": "address",
          "name": "account",
          "type": "address"
        },
        {
          "indexed": true,
          "internalType": "address",
          "name": "sender",
          "type": "address"
        }
      ],
      "name": "RoleRevoked",
      "type": "event"
    },
    {
      "anonymous": false,
      "inputs": [
        {
          "indexed": true,
          "internalType": "uint256",
          "name": "_lsrMinBalance",
          "type": "uint256"
        }
      ],
      "name": "SetLsrMinBalance",
      "type": "event"
    },
    {
      "anonymous": false,
      "inputs": [
        {
          "indexed": true,
          "internalType": "uint256",
          "name": "_swapFee",
          "type": "uint256"
        }
      ],
      "name": "SetSwapFee",
      "type": "event"
    },
    {
      "anonymous": false,
      "inputs": [
        {
          "indexed": true,
          "internalType": "address",
          "name": "_token",
          "type": "address"
        },
        {
          "indexed": false,
          "internalType": "uint256",
          "name": "amount",
          "type": "uint256"
        }
      ],
      "name": "WithdrawFees",
      "type": "event"
    },
    {
      "inputs": [],
      "name": "ADMIN_ROLE",
      "outputs": [
        {
          "internalType": "bytes32",
          "name": "",
          "type": "bytes32"
        }
      ],
      "stateMutability": "view",
      "type": "function"
    },
    {
      "inputs": [],
      "name": "DEFAULT_ADMIN_ROLE",
      "outputs": [
        {
          "internalType": "bytes32",
          "name": "",
          "type": "bytes32"
        }
      ],
      "stateMutability": "view",
      "type": "function"
    },
    {
      "inputs": [],
      "name": "OWNER_ROLE",
      "outputs": [
        {
          "internalType": "bytes32",
          "name": "",
          "type": "bytes32"
        }
      ],
      "stateMutability": "view",
      "type": "function"
    },
    {
      "inputs": [],
      "name": "WETH",
      "outputs": [
        {
          "internalType": "address",
          "name": "",
          "type": "address"
        }
      ],
      "stateMutability": "view",
      "type": "function"
    },
    {
      "inputs": [
        {
          "internalType": "address",
          "name": "_adminAddress",
          "type": "address"
        }
      ],
      "name": "addAdminAddress",
      "outputs": [],
      "stateMutability": "nonpayable",
      "type": "function"
    },
    {
      "inputs": [
        {
          "internalType": "address",
          "name": "tokenA",
          "type": "address"
        },
        {
          "internalType": "address",
          "name": "tokenB",
          "type": "address"
        },
        {
          "internalType": "uint256",
          "name": "amountADesired",
          "type": "uint256"
        },
        {
          "internalType": "uint256",
          "name": "amountBDesired",
          "type": "uint256"
        },
        {
          "internalType": "uint256",
          "name": "amountAMin",
          "type": "uint256"
        },
        {
          "internalType": "uint256",
          "name": "amountBMin",
          "type": "uint256"
        },
        {
          "internalType": "address",
          "name": "to",
          "type": "address"
        },
        {
          "internalType": "uint256",
          "name": "deadline",
          "type": "uint256"
        }
      ],
      "name": "addLiquidity",
      "outputs": [
        {
          "internalType": "uint256",
          "name": "amountA",
          "type": "uint256"
        },
        {
          "internalType": "uint256",
          "name": "amountB",
          "type": "uint256"
        },
        {
          "internalType": "uint256",
          "name": "liquidity",
          "type": "uint256"
        }
      ],
      "stateMutability": "nonpayable",
      "type": "function"
    },
    {
      "inputs": [],
      "name": "factory",
      "outputs": [
        {
          "internalType": "address",
          "name": "",
          "type": "address"
        }
      ],
      "stateMutability": "view",
      "type": "function"
    },
    {
      "inputs": [
        {
          "internalType": "uint256",
          "name": "amountOut",
          "type": "uint256"
        },
        {
          "internalType": "uint256",
          "name": "reserveIn",
          "type": "uint256"
        },
        {
          "internalType": "uint256",
          "name": "reserveOut",
          "type": "uint256"
        }
      ],
      "name": "getAmountIn",
      "outputs": [
        {
          "internalType": "uint256",
          "name": "amountIn",
          "type": "uint256"
        }
      ],
      "stateMutability": "pure",
      "type": "function"
    },
    {
      "inputs": [
        {
          "internalType": "uint256",
          "name": "amountIn",
          "type": "uint256"
        },
        {
          "internalType": "uint256",
          "name": "reserveIn",
          "type": "uint256"
        },
        {
          "internalType": "uint256",
          "name": "reserveOut",
          "type": "uint256"
        }
      ],
      "name": "getAmountOut",
      "outputs": [
        {
          "internalType": "uint256",
          "name": "amountOut",
          "type": "uint256"
        }
      ],
      "stateMutability": "pure",
      "type": "function"
    },
    {
      "inputs": [
        {
          "internalType": "uint256",
          "name": "amountOut",
          "type": "uint256"
        },
        {
          "internalType": "address[]",
          "name": "path",
          "type": "address[]"
        }
      ],
      "name": "getAmountsIn",
      "outputs": [
        {
          "internalType": "uint256[]",
          "name": "amounts",
          "type": "uint256[]"
        }
      ],
      "stateMutability": "view",
      "type": "function"
    },
    {
      "inputs": [
        {
          "internalType": "uint256",
          "name": "amountIn",
          "type": "uint256"
        },
        {
          "internalType": "address[]",
          "name": "path",
          "type": "address[]"
        }
      ],
      "name": "getAmountsOut",
      "outputs": [
        {
          "internalType": "uint256[]",
          "name": "amounts",
          "type": "uint256[]"
        }
      ],
      "stateMutability": "view",
      "type": "function"
    },
    {
      "inputs": [],
      "name": "getLsrMinBalance",
      "outputs": [
        {
          "internalType": "uint256",
          "name": "",
          "type": "uint256"
        }
      ],
      "stateMutability": "view",
      "type": "function"
    },
    {
      "inputs": [],
      "name": "getOwnerAddress",
      "outputs": [
        {
          "internalType": "address",
          "name": "",
          "type": "address"
        }
      ],
      "stateMutability": "view",
      "type": "function"
    },
    {
      "inputs": [
        {
          "internalType": "bytes32",
          "name": "role",
          "type": "bytes32"
        }
      ],
      "name": "getRoleAdmin",
      "outputs": [
        {
          "internalType": "bytes32",
          "name": "",
          "type": "bytes32"
        }
      ],
      "stateMutability": "view",
      "type": "function"
    },
    {
      "inputs": [
        {
          "internalType": "bytes32",
          "name": "role",
          "type": "bytes32"
        },
        {
          "internalType": "uint256",
          "name": "index",
          "type": "uint256"
        }
      ],
      "name": "getRoleMember",
      "outputs": [
        {
          "internalType": "address",
          "name": "",
          "type": "address"
        }
      ],
      "stateMutability": "view",
      "type": "function"
    },
    {
      "inputs": [
        {
          "internalType": "bytes32",
          "name": "role",
          "type": "bytes32"
        }
      ],
      "name": "getRoleMemberCount",
      "outputs": [
        {
          "internalType": "uint256",
          "name": "",
          "type": "uint256"
        }
      ],
      "stateMutability": "view",
      "type": "function"
    },
    {
      "inputs": [],
      "name": "getSwapFee",
      "outputs": [
        {
          "internalType": "uint256",
          "name": "",
          "type": "uint256"
        }
      ],
      "stateMutability": "view",
      "type": "function"
    },
    {
      "inputs": [
        {
          "internalType": "bytes32",
          "name": "role",
          "type": "bytes32"
        },
        {
          "internalType": "address",
          "name": "account",
          "type": "address"
        }
      ],
      "name": "grantRole",
      "outputs": [],
      "stateMutability": "nonpayable",
      "type": "function"
    },
    {
      "inputs": [
        {
          "internalType": "bytes32",
          "name": "role",
          "type": "bytes32"
        },
        {
          "internalType": "address",
          "name": "account",
          "type": "address"
        }
      ],
      "name": "hasRole",
      "outputs": [
        {
          "internalType": "bool",
          "name": "",
          "type": "bool"
        }
      ],
      "stateMutability": "view",
      "type": "function"
    },
    {
      "inputs": [
        {
          "internalType": "address",
          "name": "",
          "type": "address"
        }
      ],
      "name": "isAdmin",
      "outputs": [
        {
          "internalType": "bool",
          "name": "",
          "type": "bool"
        }
      ],
      "stateMutability": "view",
      "type": "function"
    },
    {
      "inputs": [
        {
          "internalType": "uint256",
          "name": "amountA",
          "type": "uint256"
        },
        {
          "internalType": "uint256",
          "name": "reserveA",
          "type": "uint256"
        },
        {
          "internalType": "uint256",
          "name": "reserveB",
          "type": "uint256"
        }
      ],
      "name": "quote",
      "outputs": [
        {
          "internalType": "uint256",
          "name": "amountB",
          "type": "uint256"
        }
      ],
      "stateMutability": "pure",
      "type": "function"
    },
    {
      "inputs": [
        {
          "internalType": "address",
          "name": "tokenA",
          "type": "address"
        },
        {
          "internalType": "address",
          "name": "tokenB",
          "type": "address"
        },
        {
          "internalType": "uint256",
          "name": "liquidity",
          "type": "uint256"
        },
        {
          "internalType": "uint256",
          "name": "amountAMin",
          "type": "uint256"
        },
        {
          "internalType": "uint256",
          "name": "amountBMin",
          "type": "uint256"
        },
        {
          "internalType": "address",
          "name": "to",
          "type": "address"
        },
        {
          "internalType": "uint256",
          "name": "deadline",
          "type": "uint256"
        }
      ],
      "name": "removeLiquidity",
      "outputs": [
        {
          "internalType": "uint256",
          "name": "amountA",
          "type": "uint256"
        },
        {
          "internalType": "uint256",
          "name": "amountB",
          "type": "uint256"
        }
      ],
      "stateMutability": "nonpayable",
      "type": "function"
    },
    {
      "inputs": [
        {
          "internalType": "address",
          "name": "tokenA",
          "type": "address"
        },
        {
          "internalType": "address",
          "name": "tokenB",
          "type": "address"
        },
        {
          "internalType": "uint256",
          "name": "liquidity",
          "type": "uint256"
        },
        {
          "internalType": "uint256",
          "name": "amountAMin",
          "type": "uint256"
        },
        {
          "internalType": "uint256",
          "name": "amountBMin",
          "type": "uint256"
        },
        {
          "internalType": "address",
          "name": "to",
          "type": "address"
        },
        {
          "internalType": "uint256",
          "name": "deadline",
          "type": "uint256"
        },
        {
          "internalType": "bool",
          "name": "approveMax",
          "type": "bool"
        },
        {
          "internalType": "uint8",
          "name": "v",
          "type": "uint8"
        },
        {
          "internalType": "bytes32",
          "name": "r",
          "type": "bytes32"
        },
        {
          "internalType": "bytes32",
          "name": "s",
          "type": "bytes32"
        }
      ],
      "name": "removeLiquidityWithPermit",
      "outputs": [
        {
          "internalType": "uint256",
          "name": "amountA",
          "type": "uint256"
        },
        {
          "internalType": "uint256",
          "name": "amountB",
          "type": "uint256"
        }
      ],
      "stateMutability": "nonpayable",
      "type": "function"
    },
    {
      "inputs": [
        {
          "internalType": "bytes32",
          "name": "role",
          "type": "bytes32"
        },
        {
          "internalType": "address",
          "name": "account",
          "type": "address"
        }
      ],
      "name": "renounceRole",
      "outputs": [],
      "stateMutability": "nonpayable",
      "type": "function"
    },
    {
      "inputs": [
        {
          "internalType": "address",
          "name": "_adminAddress",
          "type": "address"
        }
      ],
      "name": "revokeAdminAddress",
      "outputs": [],
      "stateMutability": "nonpayable",
      "type": "function"
    },
    {
      "inputs": [
        {
          "internalType": "bytes32",
          "name": "role",
          "type": "bytes32"
        },
        {
          "internalType": "address",
          "name": "account",
          "type": "address"
        }
      ],
      "name": "revokeRole",
      "outputs": [],
      "stateMutability": "nonpayable",
      "type": "function"
    },
    {
      "inputs": [
        {
          "internalType": "uint256",
          "name": "_lsrMinBalance",
          "type": "uint256"
        }
      ],
      "name": "setLsrMinBalance",
      "outputs": [],
      "stateMutability": "nonpayable",
      "type": "function"
    },
    {
      "inputs": [
        {
          "internalType": "uint256",
          "name": "_swapFee",
          "type": "uint256"
        }
      ],
      "name": "setSwapFee",
      "outputs": [],
      "stateMutability": "nonpayable",
      "type": "function"
    },
    {
      "inputs": [
        {
          "internalType": "uint256",
          "name": "amountIn",
          "type": "uint256"
        },
        {
          "internalType": "uint256",
          "name": "amountOutMin",
          "type": "uint256"
        },
        {
          "internalType": "address[]",
          "name": "path",
          "type": "address[]"
        },
        {
          "internalType": "address",
          "name": "to",
          "type": "address"
        },
        {
          "internalType": "uint256",
          "name": "deadline",
          "type": "uint256"
        }
      ],
      "name": "swapExactTokensForTokens",
      "outputs": [
        {
          "internalType": "uint256[]",
          "name": "amounts",
          "type": "uint256[]"
        }
      ],
      "stateMutability": "payable",
      "type": "function"
    },
    {
      "inputs": [
        {
          "internalType": "uint256",
          "name": "amountIn",
          "type": "uint256"
        },
        {
          "internalType": "uint256",
          "name": "amountOutMin",
          "type": "uint256"
        },
        {
          "internalType": "address[]",
          "name": "path",
          "type": "address[]"
        },
        {
          "internalType": "address",
          "name": "to",
          "type": "address"
        },
        {
          "internalType": "uint256",
          "name": "deadline",
          "type": "uint256"
        }
      ],
      "name": "swapExactTokensForTokensSupportingFeeOnTransferTokens",
      "outputs": [],
      "stateMutability": "payable",
      "type": "function"
    },
    {
      "inputs": [
        {
          "internalType": "uint256",
          "name": "amountOut",
          "type": "uint256"
        },
        {
          "internalType": "uint256",
          "name": "amountInMax",
          "type": "uint256"
        },
        {
          "internalType": "address[]",
          "name": "path",
          "type": "address[]"
        },
        {
          "internalType": "address",
          "name": "to",
          "type": "address"
        },
        {
          "internalType": "uint256",
          "name": "deadline",
          "type": "uint256"
        }
      ],
      "name": "swapTokensForExactTokens",
      "outputs": [
        {
          "internalType": "uint256[]",
          "name": "amounts",
          "type": "uint256[]"
        }
      ],
      "stateMutability": "nonpayable",
      "type": "function"
    },
    {
      "inputs": [
        {
          "internalType": "address",
          "name": "_token",
          "type": "address"
        },
        {
          "internalType": "uint256",
          "name": "amount",
          "type": "uint256"
        }
      ],
      "name": "withdrawFees",
      "outputs": [],
      "stateMutability": "nonpayable",
      "type": "function"
    },
    {
      "stateMutability": "payable",
      "type": "receive"
    }
  ],
  "transactionHash": "0xead044ca9232a3d08deb874e5b2e67a000d019b07bd698efaad2d3692a159196",
  "args": [
    "0x5FC8d32690cc91D4c39d9d3abcBD16989F875707",
    "0x0000000000000000000000000000000000000000",
    "0xe7f1725E7734CE288F8367e1Bb143E90bb3F0512"
  ],
  "numDeployments": 1,
  "solcInputHash": "9eddc0bdc782685001abc6c445e6cfde",
  "bytecode": "0x60c0604052600a60055560646006553480156200001b57600080fd5b506040516200568e3803806200568e833981810160405260608110156200004157600080fd5b810190808051906020019092919080519060200190929190805190602001909291905050508273ffffffffffffffffffffffffffffffffffffffff1660808173ffffffffffffffffffffffffffffffffffffffff1660601b815250508173ffffffffffffffffffffffffffffffffffffffff1660a08173ffffffffffffffffffffffffffffffffffffffff1660601b8152505080600760006101000a81548173ffffffffffffffffffffffffffffffffffffffff021916908373ffffffffffffffffffffffffffffffffffffffff16021790555033600460006101000a81548173ffffffffffffffffffffffffffffffffffffffff021916908373ffffffffffffffffffffffffffffffffffffffff160217905550620001ae60405160200180807f4f574e455200000000000000000000000000000000000000000000000000000081525060050190506040516020818303038152906040528051906020012033620002ad60201b60201c565b6200020660405160200180807f41444d494e00000000000000000000000000000000000000000000000000000081525060050190506040516020818303038152906040528051906020012033620002ad60201b60201c565b620002a460405160200180807f41444d494e00000000000000000000000000000000000000000000000000000081525060050190506040516020818303038152906040528051906020012060405160200180807f4f574e4552000000000000000000000000000000000000000000000000000000815250600501905060405160208183030381529060405280519060200120620002c360201b60201c565b505050620005c5565b620002bf82826200032660201b60201c565b5050565b6000620002d6836200036e60201b60201c565b905081600080858152602001908152602001600020600101819055508181847fbd79b86ffe0ab8e8776151514217cd7cacd52c909f66475c3af44e129f0b00ff60405160405180910390a4505050565b6200033d82826200038d60201b6200482b1760201c565b6200036981600160008581526020019081526020016000206200047e60201b6200490b1790919060201c565b505050565b6000806000838152602001908152602001600020600101549050919050565b6200039f8282620004b660201b60201c565b6200047a57600160008084815260200190815260200160002060000160008373ffffffffffffffffffffffffffffffffffffffff1673ffffffffffffffffffffffffffffffffffffffff16815260200190815260200160002060006101000a81548160ff0219169083151502179055506200041f6200052060201b60201c565b73ffffffffffffffffffffffffffffffffffffffff168173ffffffffffffffffffffffffffffffffffffffff16837f2f8788117e7eff1d82e926ec794901d17c78024a50270940304540a733656f0d60405160405180910390a45b5050565b6000620004ae836000018373ffffffffffffffffffffffffffffffffffffffff1660001b6200052860201b60201c565b905092915050565b600080600084815260200190815260200160002060000160008373ffffffffffffffffffffffffffffffffffffffff1673ffffffffffffffffffffffffffffffffffffffff16815260200190815260200160002060009054906101000a900460ff16905092915050565b600033905090565b60006200053c8383620005a260201b60201c565b620005975782600001829080600181540180825580915050600190039060005260206000200160009091909190915055826000018054905083600101600084815260200190815260200160002081905550600190506200059c565b600090505b92915050565b600080836001016000848152602001908152602001600020541415905092915050565b60805160601c60a05160601c6150406200064e600039806101ed528061266352508061128a52806112c252806116ad52806119375280611a435280611cd152806120bc52806121c5528061271c5280612a1e5280612a6b5280612bfa528061358352806135c752806137bc5280613a235280614043528061416b528061428152506150406000f3fe6080604052600436106101e65760003560e01c80639010d07c11610102578063c45a015511610095578063d547741f11610064578063d547741f14610ff2578063d7a166041461104d578063e58378bb1461109e578063e8e33700146110c957610242565b8063c45a015514610dfd578063ca15c87314610e54578063d06ca61f14610ea3578063d4cadf6814610fc757610242565b8063ad3b1b47116100d1578063ad3b1b4714610c14578063ad5c464814610c6f578063ad615dec14610cc6578063baa2abde14610d2957610242565b80639010d07c14610ac657806391d1485414610b4b578063a217fddf14610bbe578063a47d7fbf14610be957610242565b806334e199071161017a5780635c11d795116101495780635c11d7951461086857806375b238fc1461091f57806385f8c2591461094a5780638803dbee146109ad57610242565b806334e199071461068b57806336568abe146106c657806338ed17391461072157806339c7ddcc1461082d57610242565b80632195995c116101b65780632195995c14610476578063248a9ca31461057857806324d7806c146105c75780632f2ff15d1461063057610242565b80624fba0014610247578063054d50d4146102985780630c4f65bd146102fb5780631f00ca741461035257610242565b36610242577f000000000000000000000000000000000000000000000000000000000000000073ffffffffffffffffffffffffffffffffffffffff163373ffffffffffffffffffffffffffffffffffffffff161461024057fe5b005b600080fd5b34801561025357600080fd5b506102966004803603602081101561026a57600080fd5b81019080803573ffffffffffffffffffffffffffffffffffffffff1690602001909291905050506111af565b005b3480156102a457600080fd5b506102e5600480360360608110156102bb57600080fd5b81019080803590602001909291908035906020019092919080359060200190929190505050611243565b6040518082815260200191505060405180910390f35b34801561030757600080fd5b50610310611259565b604051808273ffffffffffffffffffffffffffffffffffffffff1673ffffffffffffffffffffffffffffffffffffffff16815260200191505060405180910390f35b34801561035e57600080fd5b5061041f6004803603604081101561037557600080fd5b81019080803590602001909291908035906020019064010000000081111561039c57600080fd5b8201836020820111156103ae57600080fd5b803590602001918460208302840111640100000000831117156103d057600080fd5b919080806020026020016040519081016040528093929190818152602001838360200280828437600081840152601f19601f820116905080830192505050505050509192919290505050611283565b6040518080602001828103825283818151815260200191508051906020019060200280838360005b83811015610462578082015181840152602081019050610447565b505050509050019250505060405180910390f35b34801561048257600080fd5b5061055b600480360361016081101561049a57600080fd5b81019080803573ffffffffffffffffffffffffffffffffffffffff169060200190929190803573ffffffffffffffffffffffffffffffffffffffff169060200190929190803590602001909291908035906020019092919080359060200190929190803573ffffffffffffffffffffffffffffffffffffffff16906020019092919080359060200190929190803515159060200190929190803560ff16906020019092919080359060200190929190803590602001909291905050506112b8565b604051808381526020018281526020019250505060405180910390f35b34801561058457600080fd5b506105b16004803603602081101561059b57600080fd5b810190808035906020019092919050505061143d565b6040518082815260200191505060405180910390f35b3480156105d357600080fd5b50610616600480360360208110156105ea57600080fd5b81019080803573ffffffffffffffffffffffffffffffffffffffff16906020019092919050505061145c565b604051808215151515815260200191505060405180910390f35b34801561063c57600080fd5b506106896004803603604081101561065357600080fd5b8101908080359060200190929190803573ffffffffffffffffffffffffffffffffffffffff16906020019092919050505061147c565b005b34801561069757600080fd5b506106c4600480360360208110156106ae57600080fd5b810190808035906020019092919050505061149d565b005b3480156106d257600080fd5b5061071f600480360360408110156106e957600080fd5b8101908080359060200190929190803573ffffffffffffffffffffffffffffffffffffffff169060200190929190505050611596565b005b6107d6600480360360a081101561073757600080fd5b8101908080359060200190929190803590602001909291908035906020019064010000000081111561076857600080fd5b82018360208201111561077a57600080fd5b8035906020019184602083028401116401000000008311171561079c57600080fd5b9091929391929390803573ffffffffffffffffffffffffffffffffffffffff1690602001909291908035906020019092919050505061162f565b6040518080602001828103825283818151815260200191508051906020019060200280838360005b838110156108195780820151818401526020810190506107fe565b505050509050019250505060405180910390f35b34801561083957600080fd5b506108666004803603602081101561085057600080fd5b8101908080359060200190929190505050611b2e565b005b61091d600480360360a081101561087e57600080fd5b810190808035906020019092919080359060200190929190803590602001906401000000008111156108af57600080fd5b8201836020820111156108c157600080fd5b803590602001918460208302840111640100000000831117156108e357600080fd5b9091929391929390803573ffffffffffffffffffffffffffffffffffffffff16906020019092919080359060200190929190505050611c27565b005b34801561092b57600080fd5b50610934611fde565b6040518082815260200191505060405180910390f35b34801561095657600080fd5b506109976004803603606081101561096d57600080fd5b81019080803590602001909291908035906020019092919080359060200190929190505050612028565b6040518082815260200191505060405180910390f35b3480156109b957600080fd5b50610a6f600480360360a08110156109d057600080fd5b81019080803590602001909291908035906020019092919080359060200190640100000000811115610a0157600080fd5b820183602082011115610a1357600080fd5b80359060200191846020830284011164010000000083111715610a3557600080fd5b9091929391929390803573ffffffffffffffffffffffffffffffffffffffff1690602001909291908035906020019092919050505061203e565b6040518080602001828103825283818151815260200191508051906020019060200280838360005b83811015610ab2578082015181840152602081019050610a97565b505050509050019250505060405180910390f35b348015610ad257600080fd5b50610b0960048036036040811015610ae957600080fd5b8101908080359060200190929190803590602001909291905050506122ae565b604051808273ffffffffffffffffffffffffffffffffffffffff1673ffffffffffffffffffffffffffffffffffffffff16815260200191505060405180910390f35b348015610b5757600080fd5b50610ba460048036036040811015610b6e57600080fd5b8101908080359060200190929190803573ffffffffffffffffffffffffffffffffffffffff1690602001909291905050506122dd565b604051808215151515815260200191505060405180910390f35b348015610bca57600080fd5b50610bd3612347565b6040518082815260200191505060405180910390f35b348015610bf557600080fd5b50610bfe61234e565b6040518082815260200191505060405180910390f35b348015610c2057600080fd5b50610c6d60048036036040811015610c3757600080fd5b81019080803573ffffffffffffffffffffffffffffffffffffffff16906020019092919080359060200190929190505050612358565b005b348015610c7b57600080fd5b50610c84612661565b604051808273ffffffffffffffffffffffffffffffffffffffff1673ffffffffffffffffffffffffffffffffffffffff16815260200191505060405180910390f35b348015610cd257600080fd5b50610d1360048036036060811015610ce957600080fd5b81019080803590602001909291908035906020019092919080359060200190929190505050612685565b6040518082815260200191505060405180910390f35b348015610d3557600080fd5b50610de0600480360360e0811015610d4c57600080fd5b81019080803573ffffffffffffffffffffffffffffffffffffffff169060200190929190803573ffffffffffffffffffffffffffffffffffffffff169060200190929190803590602001909291908035906020019092919080359060200190929190803573ffffffffffffffffffffffffffffffffffffffff1690602001909291908035906020019092919050505061269b565b604051808381526020018281526020019250505060405180910390f35b348015610e0957600080fd5b50610e12612a1c565b604051808273ffffffffffffffffffffffffffffffffffffffff1673ffffffffffffffffffffffffffffffffffffffff16815260200191505060405180910390f35b348015610e6057600080fd5b50610e8d60048036036020811015610e7757600080fd5b8101908080359060200190929190505050612a40565b6040518082815260200191505060405180910390f35b348015610eaf57600080fd5b50610f7060048036036040811015610ec657600080fd5b810190808035906020019092919080359060200190640100000000811115610eed57600080fd5b820183602082011115610eff57600080fd5b80359060200191846020830284011164010000000083111715610f2157600080fd5b919080806020026020016040519081016040528093929190818152602001838360200280828437600081840152601f19601f820116905080830192505050505050509192919290505050612a64565b6040518080602001828103825283818151815260200191508051906020019060200280838360005b83811015610fb3578082015181840152602081019050610f98565b505050509050019250505060405180910390f35b348015610fd357600080fd5b50610fdc612a99565b6040518082815260200191505060405180910390f35b348015610ffe57600080fd5b5061104b6004803603604081101561101557600080fd5b8101908080359060200190929190803573ffffffffffffffffffffffffffffffffffffffff169060200190929190505050612aa3565b005b34801561105957600080fd5b5061109c6004803603602081101561107057600080fd5b81019080803573ffffffffffffffffffffffffffffffffffffffff169060200190929190505050612ac4565b005b3480156110aa57600080fd5b506110b3612b17565b6040518082815260200191505060405180910390f35b3480156110d557600080fd5b5061118b60048036036101008110156110ed57600080fd5b81019080803573ffffffffffffffffffffffffffffffffffffffff169060200190929190803573ffffffffffffffffffffffffffffffffffffffff16906020019092919080359060200190929190803590602001909291908035906020019092919080359060200190929190803573ffffffffffffffffffffffffffffffffffffffff16906020019092919080359060200190929190505050612b61565b60405180848152602001838152602001828152602001935050505060405180910390f35b6111ff60405160200180807f41444d494e0000000000000000000000000000000000000000000000000000008152506005019050604051602081830303815290604052805190602001208261147c565b80600360006101000a81548173ffffffffffffffffffffffffffffffffffffffff021916908373ffffffffffffffffffffffffffffffffffffffff16021790555050565b6000611250848484612d06565b90509392505050565b6000600460009054906101000a900473ffffffffffffffffffffffffffffffffffffffff16905090565b60606112b07f00000000000000000000000000000000000000000000000000000000000000008484612e36565b905092915050565b60008060006112e87f00000000000000000000000000000000000000000000000000000000000000008f8f612fb6565b90506000876112f7578c611319565b7fffffffffffffffffffffffffffffffffffffffffffffffffffffffffffffffff5b90508173ffffffffffffffffffffffffffffffffffffffff1663d505accf3330848d8c8c8c6040518863ffffffff1660e01b8152600401808873ffffffffffffffffffffffffffffffffffffffff1673ffffffffffffffffffffffffffffffffffffffff1681526020018773ffffffffffffffffffffffffffffffffffffffff1673ffffffffffffffffffffffffffffffffffffffff1681526020018681526020018581526020018460ff1660ff168152602001838152602001828152602001975050505050505050600060405180830381600087803b1580156113fc57600080fd5b505af1158015611410573d6000803e3d6000fd5b505050506114238f8f8f8f8f8f8f61269b565b809450819550505050509b509b9950505050505050505050565b6000806000838152602001908152602001600020600101549050919050565b60026020528060005260406000206000915054906101000a900460ff1681565b6114858261143d565b61148e816130ad565b61149883836130c1565b505050565b6114ed60405160200180807f41444d494e000000000000000000000000000000000000000000000000000000815250600501905060405160208183030381529060405280519060200120336122dd565b61155f576040517f08c379a00000000000000000000000000000000000000000000000000000000081526004018080602001828103825260198152602001807f50726f6869626974656420666f72206e6f6e2061646d696e730000000000000081525060200191505060405180910390fd5b80600581905550807fcda74150def0ede554aff5f677be9df0e226fddff9bd9ceddf732b9673b1c92d60405160405180910390a250565b61159e6130f5565b73ffffffffffffffffffffffffffffffffffffffff168173ffffffffffffffffffffffffffffffffffffffff1614611621576040517f08c379a000000000000000000000000000000000000000000000000000000000815260040180806020018281038252602f815260200180614fdc602f913960400191505060405180910390fd5b61162b82826130fd565b5050565b606081428110156116a8576040517f08c379a00000000000000000000000000000000000000000000000000000000081526004018080602001828103825260168152602001807f50616e63616b65526f757465723a20455850495245440000000000000000000081525060200191505060405180910390fd5b6117147f000000000000000000000000000000000000000000000000000000000000000089888880806020026020016040519081016040528093929190818152602001838360200280828437600081840152601f19601f82011690508083019250505050505050613131565b91506000600760009054906101000a900473ffffffffffffffffffffffffffffffffffffffff1673ffffffffffffffffffffffffffffffffffffffff166370a08231336040518263ffffffff1660e01b8152600401808273ffffffffffffffffffffffffffffffffffffffff1673ffffffffffffffffffffffffffffffffffffffff16815260200191505060206040518083038186803b1580156117b757600080fd5b505afa1580156117cb573d6000803e3d6000fd5b505050506040513d60208110156117e157600080fd5b810190808051906020019092919050505090506000600654821061180857600090506118bd565b6127106005548b028161181757fe5b04905061184f8888600081811061182a57fe5b9050602002013573ffffffffffffffffffffffffffffffffffffffff163330846132a9565b808888600081811061185d57fe5b9050602002013573ffffffffffffffffffffffffffffffffffffffff1673ffffffffffffffffffffffffffffffffffffffff167f55bb3cade9d43b798a4fe5ffdd05024b2d7870df53920673bfc7e68047cd0ab160405160405180910390a35b808a03995088846001865103815181106118d357fe5b60200260200101511015611932576040517f08c379a0000000000000000000000000000000000000000000000000000000008152600401808060200182810382526029815260200180614eda6029913960400191505060405180910390fd5b61199e7f00000000000000000000000000000000000000000000000000000000000000008b8a8a80806020026020016040519081016040528093929190818152602001838360200280828437600081840152601f19601f82011690508083019250505050505050613131565b935088846001865103815181106119b157fe5b60200260200101511015611a10576040517f08c379a0000000000000000000000000000000000000000000000000000000008152600401808060200182810382526029815260200180614eda6029913960400191505060405180910390fd5b611ad588886000818110611a2057fe5b9050602002013573ffffffffffffffffffffffffffffffffffffffff1633611abb7f00000000000000000000000000000000000000000000000000000000000000008c8c6000818110611a6f57fe5b9050602002013573ffffffffffffffffffffffffffffffffffffffff168d8d6001818110611a9957fe5b9050602002013573ffffffffffffffffffffffffffffffffffffffff16612fb6565b87600081518110611ac857fe5b60200260200101516132a9565b611b2184898980806020026020016040519081016040528093929190818152602001838360200280828437600081840152601f19601f82011690508083019250505050505050886134ba565b5050509695505050505050565b611b7e60405160200180807f41444d494e000000000000000000000000000000000000000000000000000000815250600501905060405160208183030381529060405280519060200120336122dd565b611bf0576040517f08c379a00000000000000000000000000000000000000000000000000000000081526004018080602001828103825260198152602001807f50726f6869626974656420666f72206e6f6e2061646d696e730000000000000081525060200191505060405180910390fd5b80600681905550807f7b1ffeb7108f18e57b8afd7a064966095b5c7cef1212c4e31d5cf6fee2cb1aa260405160405180910390a250565b8042811015611c9e576040517f08c379a00000000000000000000000000000000000000000000000000000000081526004018080602001828103825260168152602001807f50616e63616b65526f757465723a20455850495245440000000000000000000081525060200191505060405180910390fd5b611d4f85856000818110611cae57fe5b9050602002013573ffffffffffffffffffffffffffffffffffffffff1633611d497f000000000000000000000000000000000000000000000000000000000000000089896000818110611cfd57fe5b9050602002013573ffffffffffffffffffffffffffffffffffffffff168a8a6001818110611d2757fe5b9050602002013573ffffffffffffffffffffffffffffffffffffffff16612fb6565b8a6132a9565b6000858560018888905003818110611d6357fe5b9050602002013573ffffffffffffffffffffffffffffffffffffffff1673ffffffffffffffffffffffffffffffffffffffff166370a08231856040518263ffffffff1660e01b8152600401808273ffffffffffffffffffffffffffffffffffffffff1673ffffffffffffffffffffffffffffffffffffffff16815260200191505060206040518083038186803b158015611dfc57600080fd5b505afa158015611e10573d6000803e3d6000fd5b505050506040513d6020811015611e2657600080fd5b81019080805190602001909291905050509050611e84868680806020026020016040519081016040528093929190818152602001838360200280828437600081840152601f19601f8201169050808301925050505050505085613765565b86611f7d82888860018b8b905003818110611e9b57fe5b9050602002013573ffffffffffffffffffffffffffffffffffffffff1673ffffffffffffffffffffffffffffffffffffffff166370a08231886040518263ffffffff1660e01b8152600401808273ffffffffffffffffffffffffffffffffffffffff1673ffffffffffffffffffffffffffffffffffffffff16815260200191505060206040518083038186803b158015611f3457600080fd5b505afa158015611f48573d6000803e3d6000fd5b505050506040513d6020811015611f5e57600080fd5b8101908080519060200190929190505050613bdc90919063ffffffff16565b1015611fd4576040517f08c379a0000000000000000000000000000000000000000000000000000000008152600401808060200182810382526029815260200180614eda6029913960400191505060405180910390fd5b5050505050505050565b60405160200180807f41444d494e00000000000000000000000000000000000000000000000000000081525060050190506040516020818303038152906040528051906020012081565b6000612035848484613c5f565b90509392505050565b606081428110156120b7576040517f08c379a00000000000000000000000000000000000000000000000000000000081526004018080602001828103825260168152602001807f50616e63616b65526f757465723a20455850495245440000000000000000000081525060200191505060405180910390fd5b6121237f000000000000000000000000000000000000000000000000000000000000000089888880806020026020016040519081016040528093929190818152602001838360200280828437600081840152601f19601f82011690508083019250505050505050612e36565b9150868260008151811061213357fe5b60200260200101511115612192576040517f08c379a0000000000000000000000000000000000000000000000000000000008152600401808060200182810382526025815260200180614f6d6025913960400191505060405180910390fd5b612257868660008181106121a257fe5b9050602002013573ffffffffffffffffffffffffffffffffffffffff163361223d7f00000000000000000000000000000000000000000000000000000000000000008a8a60008181106121f157fe5b9050602002013573ffffffffffffffffffffffffffffffffffffffff168b8b600181811061221b57fe5b9050602002013573ffffffffffffffffffffffffffffffffffffffff16612fb6565b8560008151811061224a57fe5b60200260200101516132a9565b6122a382878780806020026020016040519081016040528093929190818152602001838360200280828437600081840152601f19601f82011690508083019250505050505050866134ba565b509695505050505050565b60006122d58260016000868152602001908152602001600020613d9c90919063ffffffff16565b905092915050565b600080600084815260200190815260200160002060000160008373ffffffffffffffffffffffffffffffffffffffff1673ffffffffffffffffffffffffffffffffffffffff16815260200190815260200160002060009054906101000a900460ff16905092915050565b6000801b81565b6000600654905090565b6123a860405160200180807f41444d494e000000000000000000000000000000000000000000000000000000815250600501905060405160208183030381529060405280519060200120336122dd565b61241a576040517f08c379a00000000000000000000000000000000000000000000000000000000081526004018080602001828103825260198152602001807f50726f6869626974656420666f72206e6f6e2061646d696e730000000000000081525060200191505060405180910390fd5b60008273ffffffffffffffffffffffffffffffffffffffff166370a08231306040518263ffffffff1660e01b8152600401808273ffffffffffffffffffffffffffffffffffffffff1673ffffffffffffffffffffffffffffffffffffffff16815260200191505060206040518083038186803b15801561249957600080fd5b505afa1580156124ad573d6000803e3d6000fd5b505050506040513d60208110156124c357600080fd5b8101908080519060200190929190505050905081811161254b576040517f08c379a00000000000000000000000000000000000000000000000000000000081526004018080602001828103825260148152602001807f496e73756666696369656e742062616c616e636500000000000000000000000081525060200191505060405180910390fd5b8273ffffffffffffffffffffffffffffffffffffffff1663a9059cbb33846040518363ffffffff1660e01b8152600401808373ffffffffffffffffffffffffffffffffffffffff1673ffffffffffffffffffffffffffffffffffffffff16815260200182815260200192505050602060405180830381600087803b1580156125d257600080fd5b505af11580156125e6573d6000803e3d6000fd5b505050506040513d60208110156125fc57600080fd5b8101908080519060200190929190505050508273ffffffffffffffffffffffffffffffffffffffff167f9bba815921f12cb7b1408e14b5ade745234397d39623ae5e7c82d693cb45815f836040518082815260200191505060405180910390a2505050565b7f000000000000000000000000000000000000000000000000000000000000000081565b6000612692848484613db6565b90509392505050565b6000808242811015612715576040517f08c379a00000000000000000000000000000000000000000000000000000000081526004018080602001828103825260168152602001807f50616e63616b65526f757465723a20455850495245440000000000000000000081525060200191505060405180910390fd5b60006127427f00000000000000000000000000000000000000000000000000000000000000008c8c612fb6565b90508073ffffffffffffffffffffffffffffffffffffffff166323b872dd33838c6040518463ffffffff1660e01b8152600401808473ffffffffffffffffffffffffffffffffffffffff1673ffffffffffffffffffffffffffffffffffffffff1681526020018373ffffffffffffffffffffffffffffffffffffffff1673ffffffffffffffffffffffffffffffffffffffff1681526020018281526020019350505050602060405180830381600087803b1580156127ff57600080fd5b505af1158015612813573d6000803e3d6000fd5b505050506040513d602081101561282957600080fd5b8101908080519060200190929190505050506000808273ffffffffffffffffffffffffffffffffffffffff166389afcb44896040518263ffffffff1660e01b8152600401808273ffffffffffffffffffffffffffffffffffffffff1673ffffffffffffffffffffffffffffffffffffffff1681526020019150506040805180830381600087803b1580156128bc57600080fd5b505af11580156128d0573d6000803e3d6000fd5b505050506040513d60408110156128e657600080fd5b8101908080519060200190929190805190602001909291905050509150915060006129118e8e613e9a565b5090508073ffffffffffffffffffffffffffffffffffffffff168e73ffffffffffffffffffffffffffffffffffffffff161461294e578183612951565b82825b80975081985050508a8710156129b2576040517f08c379a0000000000000000000000000000000000000000000000000000000008152600401808060200182810382526024815260200180614f266024913960400191505060405180910390fd5b89861015612a0b576040517f08c379a0000000000000000000000000000000000000000000000000000000008152600401808060200182810382526024815260200180614fb86024913960400191505060405180910390fd5b505050505097509795505050505050565b7f000000000000000000000000000000000000000000000000000000000000000081565b6000612a5d60016000848152602001908152602001600020614011565b9050919050565b6060612a917f00000000000000000000000000000000000000000000000000000000000000008484613131565b905092915050565b6000600554905090565b612aac8261143d565b612ab5816130ad565b612abf83836130fd565b505050565b612b1460405160200180807f41444d494e00000000000000000000000000000000000000000000000000000081525060050190506040516020818303038152906040528051906020012082612aa3565b50565b60405160200180807f4f574e455200000000000000000000000000000000000000000000000000000081525060050190506040516020818303038152906040528051906020012081565b60008060008342811015612bdd576040517f08c379a00000000000000000000000000000000000000000000000000000000081526004018080602001828103825260168152602001807f50616e63616b65526f757465723a20455850495245440000000000000000000081525060200191505060405180910390fd5b612beb8c8c8c8c8c8c614026565b80945081955050506000612c207f00000000000000000000000000000000000000000000000000000000000000008e8e612fb6565b9050612c2e8d3383886132a9565b612c3a8c3383876132a9565b8073ffffffffffffffffffffffffffffffffffffffff16636a627842886040518263ffffffff1660e01b8152600401808273ffffffffffffffffffffffffffffffffffffffff1673ffffffffffffffffffffffffffffffffffffffff168152602001915050602060405180830381600087803b158015612cb957600080fd5b505af1158015612ccd573d6000803e3d6000fd5b505050506040513d6020811015612ce357600080fd5b810190808051906020019092919050505092505050985098509895505050505050565b6000808411612d60576040517f08c379a0000000000000000000000000000000000000000000000000000000008152600401808060200182810382526029815260200180614e566029913960400191505060405180910390fd5b600083118015612d705750600082115b612dc5576040517f08c379a0000000000000000000000000000000000000000000000000000000008152600401808060200182810382526026815260200180614f926026913960400191505060405180910390fd5b6000612ddc6126f78661440890919063ffffffff16565b90506000612df3848361440890919063ffffffff16565b90506000612e1e83612e106127108961440890919063ffffffff16565b61449d90919063ffffffff16565b9050808281612e2957fe5b0493505050509392505050565b6060600282511015612eb0576040517f08c379a000000000000000000000000000000000000000000000000000000000815260040180806020018281038252601c8152602001807f50616e63616b654c6962726172793a20494e56414c49445f504154480000000081525060200191505060405180910390fd5b815167ffffffffffffffff81118015612ec857600080fd5b50604051908082528060200260200182016040528015612ef75781602001602082028036833780820191505090505b5090508281600183510381518110612f0b57fe5b6020026020010181815250506000600183510390505b6000811115612fae57600080612f6187866001860381518110612f4057fe5b6020026020010151878681518110612f5457fe5b6020026020010151614520565b91509150612f83848481518110612f7457fe5b60200260200101518383613c5f565b846001850381518110612f9257fe5b6020026020010181815250505050808060019003915050612f21565b509392505050565b60008373ffffffffffffffffffffffffffffffffffffffff1663e6a4390584846040518363ffffffff1660e01b8152600401808373ffffffffffffffffffffffffffffffffffffffff1673ffffffffffffffffffffffffffffffffffffffff1681526020018273ffffffffffffffffffffffffffffffffffffffff1673ffffffffffffffffffffffffffffffffffffffff1681526020019250505060206040518083038186803b15801561306957600080fd5b505afa15801561307d573d6000803e3d6000fd5b505050506040513d602081101561309357600080fd5b810190808051906020019092919050505090509392505050565b6130be816130b96130f5565b614655565b50565b6130cb828261482b565b6130f0816001600085815260200190815260200160002061490b90919063ffffffff16565b505050565b600033905090565b613107828261493b565b61312c8160016000858152602001908152602001600020614a1c90919063ffffffff16565b505050565b60606002825110156131ab576040517f08c379a000000000000000000000000000000000000000000000000000000000815260040180806020018281038252601c8152602001807f50616e63616b654c6962726172793a20494e56414c49445f504154480000000081525060200191505060405180910390fd5b815167ffffffffffffffff811180156131c357600080fd5b506040519080825280602002602001820160405280156131f25781602001602082028036833780820191505090505b509050828160008151811061320357fe5b60200260200101818152505060005b60018351038110156132a1576000806132558786858151811061323157fe5b602002602001015187600187018151811061324857fe5b6020026020010151614520565b9150915061327784848151811061326857fe5b60200260200101518383612d06565b84600185018151811061328657fe5b60200260200101818152505050508080600101915050613212565b509392505050565b600060608573ffffffffffffffffffffffffffffffffffffffff166323b872dd868686604051602401808473ffffffffffffffffffffffffffffffffffffffff1673ffffffffffffffffffffffffffffffffffffffff1681526020018373ffffffffffffffffffffffffffffffffffffffff1673ffffffffffffffffffffffffffffffffffffffff16815260200182815260200193505050506040516020818303038152906040529060e01b6020820180517bffffffffffffffffffffffffffffffffffffffffffffffffffffffff83818316178352505050506040518082805190602001908083835b602083106133b65780518252602082019150602081019050602083039250613393565b6001836020036101000a0380198251168184511680821785525050505050509050019150506000604051808303816000865af19150503d8060008114613418576040519150601f19603f3d011682016040523d82523d6000602084013e61341d565b606091505b509150915081801561345d575060008151148061345c575080806020019051602081101561344a57600080fd5b81019080805190602001909291905050505b5b6134b2576040517f08c379a0000000000000000000000000000000000000000000000000000000008152600401808060200182810382526031815260200180614ea96031913960400191505060405180910390fd5b505050505050565b60005b600183510381101561375f576000808483815181106134d857fe5b60200260200101518560018501815181106134ef57fe5b60200260200101519150915060006135078383613e9a565b509050600087600186018151811061351b57fe5b602002602001015190506000808373ffffffffffffffffffffffffffffffffffffffff168673ffffffffffffffffffffffffffffffffffffffff161461356357826000613567565b6000835b91509150600060028a5103881061357e57886135c0565b6135bf7f0000000000000000000000000000000000000000000000000000000000000000878c60028c01815181106135b257fe5b6020026020010151612fb6565b5b90506135ed7f00000000000000000000000000000000000000000000000000000000000000008888612fb6565b73ffffffffffffffffffffffffffffffffffffffff1663022c0d9f848484600067ffffffffffffffff8111801561362357600080fd5b506040519080825280601f01601f1916602001820160405280156136565781602001600182028036833780820191505090505b506040518563ffffffff1660e01b8152600401808581526020018481526020018373ffffffffffffffffffffffffffffffffffffffff1673ffffffffffffffffffffffffffffffffffffffff16815260200180602001828103825283818151815260200191508051906020019080838360005b838110156136e45780820151818401526020810190506136c9565b50505050905090810190601f1680156137115780820380516001836020036101000a031916815260200191505b5095505050505050600060405180830381600087803b15801561373357600080fd5b505af1158015613747573d6000803e3d6000fd5b505050505050505050505080806001019150506134bd565b50505050565b60005b6001835103811015613bd75760008084838151811061378357fe5b602002602001015185600185018151811061379a57fe5b60200260200101519150915060006137b28383613e9a565b50905060006137e27f00000000000000000000000000000000000000000000000000000000000000008585612fb6565b90506000806000808473ffffffffffffffffffffffffffffffffffffffff16630902f1ac6040518163ffffffff1660e01b815260040160606040518083038186803b15801561383057600080fd5b505afa158015613844573d6000803e3d6000fd5b505050506040513d606081101561385a57600080fd5b81019080805190602001909291908051906020019092919080519060200190929190505050506dffffffffffffffffffffffffffff1691506dffffffffffffffffffffffffffff1691506000808773ffffffffffffffffffffffffffffffffffffffff168a73ffffffffffffffffffffffffffffffffffffffff16146138e15782846138e4565b83835b915091506139b2828b73ffffffffffffffffffffffffffffffffffffffff166370a082318a6040518263ffffffff1660e01b8152600401808273ffffffffffffffffffffffffffffffffffffffff1673ffffffffffffffffffffffffffffffffffffffff16815260200191505060206040518083038186803b15801561396957600080fd5b505afa15801561397d573d6000803e3d6000fd5b505050506040513d602081101561399357600080fd5b8101908080519060200190929190505050613bdc90919063ffffffff16565b95506139bf868383612d06565b9450505050506000808573ffffffffffffffffffffffffffffffffffffffff168873ffffffffffffffffffffffffffffffffffffffff1614613a0357826000613a07565b6000835b91509150600060028c51038a10613a1e578a613a60565b613a5f7f0000000000000000000000000000000000000000000000000000000000000000898e60028e0181518110613a5257fe5b6020026020010151612fb6565b5b90508573ffffffffffffffffffffffffffffffffffffffff1663022c0d9f848484600067ffffffffffffffff81118015613a9957600080fd5b506040519080825280601f01601f191660200182016040528015613acc5781602001600182028036833780820191505090505b506040518563ffffffff1660e01b8152600401808581526020018481526020018373ffffffffffffffffffffffffffffffffffffffff1673ffffffffffffffffffffffffffffffffffffffff16815260200180602001828103825283818151815260200191508051906020019080838360005b83811015613b5a578082015181840152602081019050613b3f565b50505050905090810190601f168015613b875780820380516001836020036101000a031916815260200191505b5095505050505050600060405180830381600087803b158015613ba957600080fd5b505af1158015613bbd573d6000803e3d6000fd5b505050505050505050505050508080600101915050613768565b505050565b6000828284039150811115613c59576040517f08c379a00000000000000000000000000000000000000000000000000000000081526004018080602001828103825260158152602001807f64732d6d6174682d7375622d756e646572666c6f77000000000000000000000081525060200191505060405180910390fd5b92915050565b6000808411613cb9576040517f08c379a000000000000000000000000000000000000000000000000000000000815260040180806020018281038252602a815260200180614e7f602a913960400191505060405180910390fd5b600083118015613cc95750600082115b613d1e576040517f08c379a0000000000000000000000000000000000000000000000000000000008152600401808060200182810382526026815260200180614f926026913960400191505060405180910390fd5b6000613d47612710613d39878761440890919063ffffffff16565b61440890919063ffffffff16565b90506000613d726126f7613d648887613bdc90919063ffffffff16565b61440890919063ffffffff16565b9050613d916001828481613d8257fe5b0461449d90919063ffffffff16565b925050509392505050565b6000613dab8360000183614a4c565b60001c905092915050565b6000808411613e10576040517f08c379a0000000000000000000000000000000000000000000000000000000008152600401808060200182810382526023815260200180614f4a6023913960400191505060405180910390fd5b600083118015613e205750600082115b613e75576040517f08c379a0000000000000000000000000000000000000000000000000000000008152600401808060200182810382526026815260200180614f926026913960400191505060405180910390fd5b82613e89838661440890919063ffffffff16565b81613e9057fe5b0490509392505050565b6000808273ffffffffffffffffffffffffffffffffffffffff168473ffffffffffffffffffffffffffffffffffffffff161415613f22576040517f08c379a0000000000000000000000000000000000000000000000000000000008152600401808060200182810382526023815260200180614f036023913960400191505060405180910390fd5b8273ffffffffffffffffffffffffffffffffffffffff168473ffffffffffffffffffffffffffffffffffffffff1610613f5c578284613f5f565b83835b8092508193505050600073ffffffffffffffffffffffffffffffffffffffff168273ffffffffffffffffffffffffffffffffffffffff16141561400a576040517f08c379a000000000000000000000000000000000000000000000000000000000815260040180806020018281038252601c8152602001807f50616e63616b654c6962726172793a205a45524f5f414444524553530000000081525060200191505060405180910390fd5b9250929050565b600061401f82600001614a70565b9050919050565b600080600073ffffffffffffffffffffffffffffffffffffffff167f000000000000000000000000000000000000000000000000000000000000000073ffffffffffffffffffffffffffffffffffffffff1663e6a439058a8a6040518363ffffffff1660e01b8152600401808373ffffffffffffffffffffffffffffffffffffffff1673ffffffffffffffffffffffffffffffffffffffff1681526020018273ffffffffffffffffffffffffffffffffffffffff1673ffffffffffffffffffffffffffffffffffffffff1681526020019250505060206040518083038186803b15801561411257600080fd5b505afa158015614126573d6000803e3d6000fd5b505050506040513d602081101561413c57600080fd5b810190808051906020019092919050505073ffffffffffffffffffffffffffffffffffffffff161415614279577f000000000000000000000000000000000000000000000000000000000000000073ffffffffffffffffffffffffffffffffffffffff1663c9c6539689896040518363ffffffff1660e01b8152600401808373ffffffffffffffffffffffffffffffffffffffff1673ffffffffffffffffffffffffffffffffffffffff1681526020018273ffffffffffffffffffffffffffffffffffffffff1673ffffffffffffffffffffffffffffffffffffffff16815260200192505050602060405180830381600087803b15801561423c57600080fd5b505af1158015614250573d6000803e3d6000fd5b505050506040513d602081101561426657600080fd5b8101908080519060200190929190505050505b6000806142a77f00000000000000000000000000000000000000000000000000000000000000008b8b614520565b915091506000821480156142bb5750600081145b156142cf57878780945081955050506143fb565b60006142dc898484613db6565b905087811161434d578581101561433e576040517f08c379a0000000000000000000000000000000000000000000000000000000008152600401808060200182810382526024815260200180614fb86024913960400191505060405180910390fd5b888180955081965050506143f9565b600061435a898486613db6565b90508981111561436657fe5b878110156143bf576040517f08c379a0000000000000000000000000000000000000000000000000000000008152600401808060200182810382526024815260200180614f266024913960400191505060405180910390fd5b8089809650819750505084867fcb1652de9aeec38545fc281847b3dbfc89aab56dfa907b1ab68466f602c36fb460405160405180910390a3505b505b5050965096945050505050565b600080821480614425575082828385029250828161442257fe5b04145b614497576040517f08c379a00000000000000000000000000000000000000000000000000000000081526004018080602001828103825260148152602001807f64732d6d6174682d6d756c2d6f766572666c6f7700000000000000000000000081525060200191505060405180910390fd5b92915050565b600082828401915081101561451a576040517f08c379a00000000000000000000000000000000000000000000000000000000081526004018080602001828103825260148152602001807f64732d6d6174682d6164642d6f766572666c6f7700000000000000000000000081525060200191505060405180910390fd5b92915050565b600080600061452f8585613e9a565b50905061453d868686612fb6565b5060008061454c888888612fb6565b73ffffffffffffffffffffffffffffffffffffffff16630902f1ac6040518163ffffffff1660e01b815260040160606040518083038186803b15801561459157600080fd5b505afa1580156145a5573d6000803e3d6000fd5b505050506040513d60608110156145bb57600080fd5b81019080805190602001909291908051906020019092919080519060200190929190505050506dffffffffffffffffffffffffffff1691506dffffffffffffffffffffffffffff1691508273ffffffffffffffffffffffffffffffffffffffff168773ffffffffffffffffffffffffffffffffffffffff161461463f578082614642565b81815b8095508196505050505050935093915050565b61465f82826122dd565b6148275761466c81614a81565b61467a8360001c6020614aae565b60405160200180807f416363657373436f6e74726f6c3a206163636f756e742000000000000000000081525060170183805190602001908083835b602083106146d857805182526020820191506020810190506020830392506146b5565b6001836020036101000a038019825116818451168082178552505050505050905001807f206973206d697373696e6720726f6c652000000000000000000000000000000081525060110182805190602001908083835b60208310614751578051825260208201915060208101905060208303925061472e565b6001836020036101000a038019825116818451168082178552505050505050905001925050506040516020818303038152906040526040517f08c379a00000000000000000000000000000000000000000000000000000000081526004018080602001828103825283818151815260200191508051906020019080838360005b838110156147ec5780820151818401526020810190506147d1565b50505050905090810190601f1680156148195780820380516001836020036101000a031916815260200191505b509250505060405180910390fd5b5050565b61483582826122dd565b61490757600160008084815260200190815260200160002060000160008373ffffffffffffffffffffffffffffffffffffffff1673ffffffffffffffffffffffffffffffffffffffff16815260200190815260200160002060006101000a81548160ff0219169083151502179055506148ac6130f5565b73ffffffffffffffffffffffffffffffffffffffff168173ffffffffffffffffffffffffffffffffffffffff16837f2f8788117e7eff1d82e926ec794901d17c78024a50270940304540a733656f0d60405160405180910390a45b5050565b6000614933836000018373ffffffffffffffffffffffffffffffffffffffff1660001b614cd5565b905092915050565b61494582826122dd565b15614a1857600080600084815260200190815260200160002060000160008373ffffffffffffffffffffffffffffffffffffffff1673ffffffffffffffffffffffffffffffffffffffff16815260200190815260200160002060006101000a81548160ff0219169083151502179055506149bd6130f5565b73ffffffffffffffffffffffffffffffffffffffff168173ffffffffffffffffffffffffffffffffffffffff16837ff6391f5c32d9c69d2a47ea670b442974b53935d1edc7fd64eb21e047a839171b60405160405180910390a45b5050565b6000614a44836000018373ffffffffffffffffffffffffffffffffffffffff1660001b614d45565b905092915050565b6000826000018281548110614a5d57fe5b9060005260206000200154905092915050565b600081600001805490509050919050565b6060614aa78273ffffffffffffffffffffffffffffffffffffffff16601460ff16614aae565b9050919050565b6060806002836002020167ffffffffffffffff81118015614ace57600080fd5b506040519080825280601f01601f191660200182016040528015614b015781602001600182028036833780820191505090505b5090507f300000000000000000000000000000000000000000000000000000000000000081600081518110614b3257fe5b60200101907effffffffffffffffffffffffffffffffffffffffffffffffffffffffffffff1916908160001a9053507f780000000000000000000000000000000000000000000000000000000000000081600181518110614b8f57fe5b60200101907effffffffffffffffffffffffffffffffffffffffffffffffffffffffffffff1916908160001a90535060006001846002020190505b6001811115614c54577f3031323334353637383961626364656600000000000000000000000000000000600f861660108110614c0257fe5b1a60f81b828281518110614c1257fe5b60200101907effffffffffffffffffffffffffffffffffffffffffffffffffffffffffffff1916908160001a905350600485901c945080600190039050614bca565b5060008414614ccb576040517f08c379a00000000000000000000000000000000000000000000000000000000081526004018080602001828103825260208152602001807f537472696e67733a20686578206c656e67746820696e73756666696369656e7481525060200191505060405180910390fd5b8091505092915050565b6000614ce18383614e32565b614d3a578260000182908060018154018082558091505060019003906000526020600020016000909190919091505582600001805490508360010160008481526020019081526020016000208190555060019050614d3f565b600090505b92915050565b60008083600101600084815260200190815260200160002054905060008114614e26576000600182039050600060018660000180549050039050818114614dde576000866000018281548110614d9757fe5b9060005260206000200154905080876000018481548110614db457fe5b90600052602060002001819055508387600101600083815260200190815260200160002081905550505b85600001805480614deb57fe5b600190038181906000526020600020016000905590558560010160008681526020019081526020016000206000905560019350505050614e2c565b60009150505b92915050565b60008083600101600084815260200190815260200160002054141590509291505056fe50616e63616b654c6962726172793a20494e53554646494349454e545f494e5055545f414d4f554e5450616e63616b654c6962726172793a20494e53554646494349454e545f4f55545055545f414d4f554e545472616e7366657248656c7065723a3a7472616e7366657246726f6d3a207472616e7366657246726f6d206661696c656450616e63616b65526f757465723a20494e53554646494349454e545f4f55545055545f414d4f554e5450616e63616b654c6962726172793a204944454e544943414c5f41444452455353455350616e63616b65526f757465723a20494e53554646494349454e545f415f414d4f554e5450616e63616b654c6962726172793a20494e53554646494349454e545f414d4f554e5450616e63616b65526f757465723a204558434553534956455f494e5055545f414d4f554e5450616e63616b654c6962726172793a20494e53554646494349454e545f4c495155494449545950616e63616b65526f757465723a20494e53554646494349454e545f425f414d4f554e54416363657373436f6e74726f6c3a2063616e206f6e6c792072656e6f756e636520726f6c657320666f722073656c66a2646970667358221220f246a8bfa2a1973a71b86f79859eb1467038ba5f6530ddba686200cfce6cbf1b64736f6c63430006060033",
  "devdoc": {
    "methods": {
      "getRoleAdmin(bytes32)": {
        "details": "Returns the admin role that controls `role`. See {grantRole} and {revokeRole}.     * To change a role's admin, use {_setRoleAdmin}."
      },
      "getRoleMember(bytes32,uint256)": {
        "details": "Returns one of the accounts that have `role`. `index` must be a value between 0 and {getRoleMemberCount}, non-inclusive.     * Role bearers are not sorted in any particular way, and their ordering may change at any point.     * WARNING: When using {getRoleMember} and {getRoleMemberCount}, make sure you perform all queries on the same block. See the following https://forum.openzeppelin.com/t/iterating-over-elements-on-enumerableset-in-openzeppelin-contracts/2296[forum post] for more information."
      },
      "getRoleMemberCount(bytes32)": {
        "details": "Returns the number of accounts that have `role`. Can be used together with {getRoleMember} to enumerate all bearers of a role."
      },
      "grantRole(bytes32,address)": {
        "details": "Grants `role` to `account`.     * If `account` had not been already granted `role`, emits a {RoleGranted} event.     * Requirements:     * - the caller must have ``role``'s admin role.     * May emit a {RoleGranted} event."
      },
      "hasRole(bytes32,address)": {
        "details": "Returns `true` if `account` has been granted `role`."
      },
      "renounceRole(bytes32,address)": {
        "details": "Revokes `role` from the calling account.     * Roles are often managed via {grantRole} and {revokeRole}: this function's purpose is to provide a mechanism for accounts to lose their privileges if they are compromised (such as when a trusted device is misplaced).     * If the calling account had been revoked `role`, emits a {RoleRevoked} event.     * Requirements:     * - the caller must be `account`.     * May emit a {RoleRevoked} event."
      },
      "revokeRole(bytes32,address)": {
        "details": "Revokes `role` from `account`.     * If `account` had been granted `role`, emits a {RoleRevoked} event.     * Requirements:     * - the caller must have ``role``'s admin role.     * May emit a {RoleRevoked} event."
      }
    }
  },
  "userdoc": {
    "methods": {}
  },
  "storageLayout": {
    "storage": [
      {
        "astId": 2218,
        "contract": "contracts/PancakeRouter_mod.sol:PancakeRouter_mod",
        "label": "_roles",
        "offset": 0,
        "slot": "0",
        "type": "t_mapping(t_bytes32,t_struct(RoleData)2214_storage)"
      },
      {
        "astId": 2504,
        "contract": "contracts/PancakeRouter_mod.sol:PancakeRouter_mod",
        "label": "_roleMembers",
        "offset": 0,
        "slot": "1",
        "type": "t_mapping(t_bytes32,t_struct(AddressSet)4765_storage)"
      },
      {
        "astId": 845,
        "contract": "contracts/PancakeRouter_mod.sol:PancakeRouter_mod",
        "label": "isAdmin",
        "offset": 0,
        "slot": "2",
        "type": "t_mapping(t_address,t_bool)"
      },
      {
        "astId": 853,
        "contract": "contracts/PancakeRouter_mod.sol:PancakeRouter_mod",
        "label": "adminAddress",
        "offset": 0,
        "slot": "3",
        "type": "t_address"
      },
      {
        "astId": 855,
        "contract": "contracts/PancakeRouter_mod.sol:PancakeRouter_mod",
        "label": "ownerAddress",
        "offset": 0,
        "slot": "4",
        "type": "t_address"
      },
      {
        "astId": 858,
        "contract": "contracts/PancakeRouter_mod.sol:PancakeRouter_mod",
        "label": "swapFee",
        "offset": 0,
        "slot": "5",
        "type": "t_uint256"
      },
      {
        "astId": 861,
        "contract": "contracts/PancakeRouter_mod.sol:PancakeRouter_mod",
        "label": "lsrMinBalance",
        "offset": 0,
        "slot": "6",
        "type": "t_uint256"
      },
      {
        "astId": 863,
        "contract": "contracts/PancakeRouter_mod.sol:PancakeRouter_mod",
        "label": "lsr",
        "offset": 0,
        "slot": "7",
        "type": "t_contract(ERC20LSR)823"
      }
    ],
    "types": {
      "t_address": {
        "encoding": "inplace",
        "label": "address",
        "numberOfBytes": "20"
      },
      "t_array(t_bytes32)dyn_storage": {
        "base": "t_bytes32",
        "encoding": "dynamic_array",
        "label": "bytes32[]",
        "numberOfBytes": "32"
      },
      "t_bool": {
        "encoding": "inplace",
        "label": "bool",
        "numberOfBytes": "1"
      },
      "t_bytes32": {
        "encoding": "inplace",
        "label": "bytes32",
        "numberOfBytes": "32"
      },
      "t_contract(ERC20LSR)823": {
        "encoding": "inplace",
        "label": "contract ERC20LSR",
        "numberOfBytes": "20"
      },
      "t_mapping(t_address,t_bool)": {
        "encoding": "mapping",
        "key": "t_address",
        "label": "mapping(address => bool)",
        "numberOfBytes": "32",
        "value": "t_bool"
      },
      "t_mapping(t_bytes32,t_struct(AddressSet)4765_storage)": {
        "encoding": "mapping",
        "key": "t_bytes32",
        "label": "mapping(bytes32 => struct EnumerableSet.AddressSet)",
        "numberOfBytes": "32",
        "value": "t_struct(AddressSet)4765_storage"
      },
      "t_mapping(t_bytes32,t_struct(RoleData)2214_storage)": {
        "encoding": "mapping",
        "key": "t_bytes32",
        "label": "mapping(bytes32 => struct AccessControl.RoleData)",
        "numberOfBytes": "32",
        "value": "t_struct(RoleData)2214_storage"
      },
      "t_mapping(t_bytes32,t_uint256)": {
        "encoding": "mapping",
        "key": "t_bytes32",
        "label": "mapping(bytes32 => uint256)",
        "numberOfBytes": "32",
        "value": "t_uint256"
      },
      "t_struct(AddressSet)4765_storage": {
        "encoding": "inplace",
        "label": "struct EnumerableSet.AddressSet",
        "members": [
          {
            "astId": 4764,
            "contract": "contracts/PancakeRouter_mod.sol:PancakeRouter_mod",
            "label": "_inner",
            "offset": 0,
            "slot": "0",
            "type": "t_struct(Set)4464_storage"
          }
        ],
        "numberOfBytes": "64"
      },
      "t_struct(RoleData)2214_storage": {
        "encoding": "inplace",
        "label": "struct AccessControl.RoleData",
        "members": [
          {
            "astId": 2211,
            "contract": "contracts/PancakeRouter_mod.sol:PancakeRouter_mod",
            "label": "members",
            "offset": 0,
            "slot": "0",
            "type": "t_mapping(t_address,t_bool)"
          },
          {
            "astId": 2213,
            "contract": "contracts/PancakeRouter_mod.sol:PancakeRouter_mod",
            "label": "adminRole",
            "offset": 0,
            "slot": "1",
            "type": "t_bytes32"
          }
        ],
        "numberOfBytes": "64"
      },
      "t_struct(Set)4464_storage": {
        "encoding": "inplace",
        "label": "struct EnumerableSet.Set",
        "members": [
          {
            "astId": 4459,
            "contract": "contracts/PancakeRouter_mod.sol:PancakeRouter_mod",
            "label": "_values",
            "offset": 0,
            "slot": "0",
            "type": "t_array(t_bytes32)dyn_storage"
          },
          {
            "astId": 4463,
            "contract": "contracts/PancakeRouter_mod.sol:PancakeRouter_mod",
            "label": "_indexes",
            "offset": 0,
            "slot": "1",
            "type": "t_mapping(t_bytes32,t_uint256)"
          }
        ],
        "numberOfBytes": "64"
      },
      "t_uint256": {
        "encoding": "inplace",
        "label": "uint256",
        "numberOfBytes": "32"
      }
    }
  }
}