{
  "address": "0x0165878A594ca255338adfa4d48449f69242Eb8F",
  "abi": [
    {
      "inputs": [
        {
          "internalType": "address",
          "name": "_factory",
          "type": "address"
        },
        {
          "internalType": "address",
          "name": "_WETH",
          "type": "address"
        },
        {
          "internalType": "address",
          "name": "_LSRAddress",
          "type": "address"
        }
      ],
      "stateMutability": "nonpayable",
      "type": "constructor"
    },
    {
      "anonymous": false,
      "inputs": [
        {
          "indexed": true,
          "internalType": "address",
          "name": "previousOwner",
          "type": "address"
        },
        {
          "indexed": true,
          "internalType": "address",
          "name": "newOwner",
          "type": "address"
        }
      ],
      "name": "OwnershipTransferred",
      "type": "event"
    },
    {
      "inputs": [],
      "name": "WETH",
      "outputs": [
        {
          "internalType": "address",
          "name": "",
          "type": "address"
        }
      ],
      "stateMutability": "view",
      "type": "function"
    },
    {
      "inputs": [
        {
          "internalType": "address",
          "name": "tokenA",
          "type": "address"
        },
        {
          "internalType": "address",
          "name": "tokenB",
          "type": "address"
        },
        {
          "internalType": "uint256",
          "name": "amountADesired",
          "type": "uint256"
        },
        {
          "internalType": "uint256",
          "name": "amountBDesired",
          "type": "uint256"
        },
        {
          "internalType": "uint256",
          "name": "amountAMin",
          "type": "uint256"
        },
        {
          "internalType": "uint256",
          "name": "amountBMin",
          "type": "uint256"
        },
        {
          "internalType": "address",
          "name": "to",
          "type": "address"
        },
        {
          "internalType": "uint256",
          "name": "deadline",
          "type": "uint256"
        }
      ],
      "name": "addLiquidity",
      "outputs": [
        {
          "internalType": "uint256",
          "name": "amountA",
          "type": "uint256"
        },
        {
          "internalType": "uint256",
          "name": "amountB",
          "type": "uint256"
        },
        {
          "internalType": "uint256",
          "name": "liquidity",
          "type": "uint256"
        }
      ],
      "stateMutability": "nonpayable",
      "type": "function"
    },
    {
      "inputs": [
        {
          "internalType": "address",
          "name": "token",
          "type": "address"
        },
        {
          "internalType": "uint256",
          "name": "amountTokenDesired",
          "type": "uint256"
        },
        {
          "internalType": "uint256",
          "name": "amountTokenMin",
          "type": "uint256"
        },
        {
          "internalType": "uint256",
          "name": "amountETHMin",
          "type": "uint256"
        },
        {
          "internalType": "address",
          "name": "to",
          "type": "address"
        },
        {
          "internalType": "uint256",
          "name": "deadline",
          "type": "uint256"
        }
      ],
      "name": "addLiquidityETH",
      "outputs": [
        {
          "internalType": "uint256",
          "name": "amountToken",
          "type": "uint256"
        },
        {
          "internalType": "uint256",
          "name": "amountETH",
          "type": "uint256"
        },
        {
          "internalType": "uint256",
          "name": "liquidity",
          "type": "uint256"
        }
      ],
      "stateMutability": "payable",
      "type": "function"
    },
    {
      "inputs": [],
      "name": "factory",
      "outputs": [
        {
          "internalType": "address",
          "name": "",
          "type": "address"
        }
      ],
      "stateMutability": "view",
      "type": "function"
    },
    {
      "inputs": [
        {
          "internalType": "uint256",
          "name": "amountOut",
          "type": "uint256"
        },
        {
          "internalType": "uint256",
          "name": "reserveIn",
          "type": "uint256"
        },
        {
          "internalType": "uint256",
          "name": "reserveOut",
          "type": "uint256"
        }
      ],
      "name": "getAmountIn",
      "outputs": [
        {
          "internalType": "uint256",
          "name": "amountIn",
          "type": "uint256"
        }
      ],
      "stateMutability": "pure",
      "type": "function"
    },
    {
      "inputs": [
        {
          "internalType": "uint256",
          "name": "amountIn",
          "type": "uint256"
        },
        {
          "internalType": "uint256",
          "name": "reserveIn",
          "type": "uint256"
        },
        {
          "internalType": "uint256",
          "name": "reserveOut",
          "type": "uint256"
        }
      ],
      "name": "getAmountOut",
      "outputs": [
        {
          "internalType": "uint256",
          "name": "amountOut",
          "type": "uint256"
        }
      ],
      "stateMutability": "pure",
      "type": "function"
    },
    {
      "inputs": [
        {
          "internalType": "uint256",
          "name": "amountOut",
          "type": "uint256"
        },
        {
          "internalType": "address[]",
          "name": "path",
          "type": "address[]"
        }
      ],
      "name": "getAmountsIn",
      "outputs": [
        {
          "internalType": "uint256[]",
          "name": "amounts",
          "type": "uint256[]"
        }
      ],
      "stateMutability": "view",
      "type": "function"
    },
    {
      "inputs": [
        {
          "internalType": "uint256",
          "name": "amountIn",
          "type": "uint256"
        },
        {
          "internalType": "address[]",
          "name": "path",
          "type": "address[]"
        }
      ],
      "name": "getAmountsOut",
      "outputs": [
        {
          "internalType": "uint256[]",
          "name": "amounts",
          "type": "uint256[]"
        }
      ],
      "stateMutability": "view",
      "type": "function"
    },
    {
      "inputs": [],
      "name": "owner",
      "outputs": [
        {
          "internalType": "address",
          "name": "",
          "type": "address"
        }
      ],
      "stateMutability": "view",
      "type": "function"
    },
    {
      "inputs": [],
      "name": "pairAddress",
      "outputs": [
        {
          "internalType": "address",
          "name": "",
          "type": "address"
        }
      ],
      "stateMutability": "view",
      "type": "function"
    },
    {
      "inputs": [
        {
          "internalType": "uint256",
          "name": "amountA",
          "type": "uint256"
        },
        {
          "internalType": "uint256",
          "name": "reserveA",
          "type": "uint256"
        },
        {
          "internalType": "uint256",
          "name": "reserveB",
          "type": "uint256"
        }
      ],
      "name": "quote",
      "outputs": [
        {
          "internalType": "uint256",
          "name": "amountB",
          "type": "uint256"
        }
      ],
      "stateMutability": "pure",
      "type": "function"
    },
    {
      "inputs": [
        {
          "internalType": "address",
          "name": "tokenA",
          "type": "address"
        },
        {
          "internalType": "address",
          "name": "tokenB",
          "type": "address"
        },
        {
          "internalType": "uint256",
          "name": "liquidity",
          "type": "uint256"
        },
        {
          "internalType": "uint256",
          "name": "amountAMin",
          "type": "uint256"
        },
        {
          "internalType": "uint256",
          "name": "amountBMin",
          "type": "uint256"
        },
        {
          "internalType": "address",
          "name": "to",
          "type": "address"
        },
        {
          "internalType": "uint256",
          "name": "deadline",
          "type": "uint256"
        }
      ],
      "name": "removeLiquidity",
      "outputs": [
        {
          "internalType": "uint256",
          "name": "amountA",
          "type": "uint256"
        },
        {
          "internalType": "uint256",
          "name": "amountB",
          "type": "uint256"
        }
      ],
      "stateMutability": "nonpayable",
      "type": "function"
    },
    {
      "inputs": [
        {
          "internalType": "address",
          "name": "token",
          "type": "address"
        },
        {
          "internalType": "uint256",
          "name": "liquidity",
          "type": "uint256"
        },
        {
          "internalType": "uint256",
          "name": "amountTokenMin",
          "type": "uint256"
        },
        {
          "internalType": "uint256",
          "name": "amountETHMin",
          "type": "uint256"
        },
        {
          "internalType": "address",
          "name": "to",
          "type": "address"
        },
        {
          "internalType": "uint256",
          "name": "deadline",
          "type": "uint256"
        }
      ],
      "name": "removeLiquidityETH",
      "outputs": [
        {
          "internalType": "uint256",
          "name": "amountToken",
          "type": "uint256"
        },
        {
          "internalType": "uint256",
          "name": "amountETH",
          "type": "uint256"
        }
      ],
      "stateMutability": "nonpayable",
      "type": "function"
    },
    {
      "inputs": [
        {
          "internalType": "address",
          "name": "token",
          "type": "address"
        },
        {
          "internalType": "uint256",
          "name": "liquidity",
          "type": "uint256"
        },
        {
          "internalType": "uint256",
          "name": "amountTokenMin",
          "type": "uint256"
        },
        {
          "internalType": "uint256",
          "name": "amountETHMin",
          "type": "uint256"
        },
        {
          "internalType": "address",
          "name": "to",
          "type": "address"
        },
        {
          "internalType": "uint256",
          "name": "deadline",
          "type": "uint256"
        }
      ],
      "name": "removeLiquidityETHSupportingFeeOnTransferTokens",
      "outputs": [
        {
          "internalType": "uint256",
          "name": "amountETH",
          "type": "uint256"
        }
      ],
      "stateMutability": "nonpayable",
      "type": "function"
    },
    {
      "inputs": [
        {
          "internalType": "address",
          "name": "token",
          "type": "address"
        },
        {
          "internalType": "uint256",
          "name": "liquidity",
          "type": "uint256"
        },
        {
          "internalType": "uint256",
          "name": "amountTokenMin",
          "type": "uint256"
        },
        {
          "internalType": "uint256",
          "name": "amountETHMin",
          "type": "uint256"
        },
        {
          "internalType": "address",
          "name": "to",
          "type": "address"
        },
        {
          "internalType": "uint256",
          "name": "deadline",
          "type": "uint256"
        },
        {
          "internalType": "bool",
          "name": "approveMax",
          "type": "bool"
        },
        {
          "internalType": "uint8",
          "name": "v",
          "type": "uint8"
        },
        {
          "internalType": "bytes32",
          "name": "r",
          "type": "bytes32"
        },
        {
          "internalType": "bytes32",
          "name": "s",
          "type": "bytes32"
        }
      ],
      "name": "removeLiquidityETHWithPermit",
      "outputs": [
        {
          "internalType": "uint256",
          "name": "amountToken",
          "type": "uint256"
        },
        {
          "internalType": "uint256",
          "name": "amountETH",
          "type": "uint256"
        }
      ],
      "stateMutability": "nonpayable",
      "type": "function"
    },
    {
      "inputs": [
        {
          "internalType": "address",
          "name": "token",
          "type": "address"
        },
        {
          "internalType": "uint256",
          "name": "liquidity",
          "type": "uint256"
        },
        {
          "internalType": "uint256",
          "name": "amountTokenMin",
          "type": "uint256"
        },
        {
          "internalType": "uint256",
          "name": "amountETHMin",
          "type": "uint256"
        },
        {
          "internalType": "address",
          "name": "to",
          "type": "address"
        },
        {
          "internalType": "uint256",
          "name": "deadline",
          "type": "uint256"
        },
        {
          "internalType": "bool",
          "name": "approveMax",
          "type": "bool"
        },
        {
          "internalType": "uint8",
          "name": "v",
          "type": "uint8"
        },
        {
          "internalType": "bytes32",
          "name": "r",
          "type": "bytes32"
        },
        {
          "internalType": "bytes32",
          "name": "s",
          "type": "bytes32"
        }
      ],
      "name": "removeLiquidityETHWithPermitSupportingFeeOnTransferTokens",
      "outputs": [
        {
          "internalType": "uint256",
          "name": "amountETH",
          "type": "uint256"
        }
      ],
      "stateMutability": "nonpayable",
      "type": "function"
    },
    {
      "inputs": [
        {
          "internalType": "address",
          "name": "tokenA",
          "type": "address"
        },
        {
          "internalType": "address",
          "name": "tokenB",
          "type": "address"
        },
        {
          "internalType": "uint256",
          "name": "liquidity",
          "type": "uint256"
        },
        {
          "internalType": "uint256",
          "name": "amountAMin",
          "type": "uint256"
        },
        {
          "internalType": "uint256",
          "name": "amountBMin",
          "type": "uint256"
        },
        {
          "internalType": "address",
          "name": "to",
          "type": "address"
        },
        {
          "internalType": "uint256",
          "name": "deadline",
          "type": "uint256"
        },
        {
          "internalType": "bool",
          "name": "approveMax",
          "type": "bool"
        },
        {
          "internalType": "uint8",
          "name": "v",
          "type": "uint8"
        },
        {
          "internalType": "bytes32",
          "name": "r",
          "type": "bytes32"
        },
        {
          "internalType": "bytes32",
          "name": "s",
          "type": "bytes32"
        }
      ],
      "name": "removeLiquidityWithPermit",
      "outputs": [
        {
          "internalType": "uint256",
          "name": "amountA",
          "type": "uint256"
        },
        {
          "internalType": "uint256",
          "name": "amountB",
          "type": "uint256"
        }
      ],
      "stateMutability": "nonpayable",
      "type": "function"
    },
    {
      "inputs": [],
      "name": "renounceOwnership",
      "outputs": [],
      "stateMutability": "nonpayable",
      "type": "function"
    },
    {
      "inputs": [
        {
          "internalType": "address",
          "name": "_adminAddress",
          "type": "address"
        }
      ],
      "name": "setAdminAddress",
      "outputs": [],
      "stateMutability": "nonpayable",
      "type": "function"
    },
    {
      "inputs": [
        {
          "internalType": "uint256",
          "name": "_lsrMinBalance",
          "type": "uint256"
        }
      ],
      "name": "setLsrMinBalance",
      "outputs": [],
      "stateMutability": "nonpayable",
      "type": "function"
    },
    {
      "inputs": [
        {
          "internalType": "address",
          "name": "_pair",
          "type": "address"
        }
      ],
      "name": "setPairAddress",
      "outputs": [],
      "stateMutability": "nonpayable",
      "type": "function"
    },
    {
      "inputs": [
        {
          "internalType": "uint256",
          "name": "_swapFee",
          "type": "uint256"
        }
      ],
      "name": "setSwapFee",
      "outputs": [],
      "stateMutability": "nonpayable",
      "type": "function"
    },
    {
      "inputs": [
        {
          "internalType": "uint256",
          "name": "amountOut",
          "type": "uint256"
        },
        {
          "internalType": "address[]",
          "name": "path",
          "type": "address[]"
        },
        {
          "internalType": "address",
          "name": "to",
          "type": "address"
        },
        {
          "internalType": "uint256",
          "name": "deadline",
          "type": "uint256"
        }
      ],
      "name": "swapETHForExactTokens",
      "outputs": [
        {
          "internalType": "uint256[]",
          "name": "amounts",
          "type": "uint256[]"
        }
      ],
      "stateMutability": "payable",
      "type": "function"
    },
    {
      "inputs": [
        {
          "internalType": "uint256",
          "name": "amountOutMin",
          "type": "uint256"
        },
        {
          "internalType": "address[]",
          "name": "path",
          "type": "address[]"
        },
        {
          "internalType": "address",
          "name": "to",
          "type": "address"
        },
        {
          "internalType": "uint256",
          "name": "deadline",
          "type": "uint256"
        }
      ],
      "name": "swapExactETHForTokens",
      "outputs": [
        {
          "internalType": "uint256[]",
          "name": "amounts",
          "type": "uint256[]"
        }
      ],
      "stateMutability": "payable",
      "type": "function"
    },
    {
      "inputs": [
        {
          "internalType": "uint256",
          "name": "amountOutMin",
          "type": "uint256"
        },
        {
          "internalType": "address[]",
          "name": "path",
          "type": "address[]"
        },
        {
          "internalType": "address",
          "name": "to",
          "type": "address"
        },
        {
          "internalType": "uint256",
          "name": "deadline",
          "type": "uint256"
        }
      ],
      "name": "swapExactETHForTokensSupportingFeeOnTransferTokens",
      "outputs": [],
      "stateMutability": "payable",
      "type": "function"
    },
    {
      "inputs": [
        {
          "internalType": "uint256",
          "name": "amountIn",
          "type": "uint256"
        },
        {
          "internalType": "uint256",
          "name": "amountOutMin",
          "type": "uint256"
        },
        {
          "internalType": "address[]",
          "name": "path",
          "type": "address[]"
        },
        {
          "internalType": "address",
          "name": "to",
          "type": "address"
        },
        {
          "internalType": "uint256",
          "name": "deadline",
          "type": "uint256"
        }
      ],
      "name": "swapExactTokensForETH",
      "outputs": [
        {
          "internalType": "uint256[]",
          "name": "amounts",
          "type": "uint256[]"
        }
      ],
      "stateMutability": "nonpayable",
      "type": "function"
    },
    {
      "inputs": [
        {
          "internalType": "uint256",
          "name": "amountIn",
          "type": "uint256"
        },
        {
          "internalType": "uint256",
          "name": "amountOutMin",
          "type": "uint256"
        },
        {
          "internalType": "address[]",
          "name": "path",
          "type": "address[]"
        },
        {
          "internalType": "address",
          "name": "to",
          "type": "address"
        },
        {
          "internalType": "uint256",
          "name": "deadline",
          "type": "uint256"
        }
      ],
      "name": "swapExactTokensForETHSupportingFeeOnTransferTokens",
      "outputs": [],
      "stateMutability": "nonpayable",
      "type": "function"
    },
    {
      "inputs": [
        {
          "internalType": "uint256",
          "name": "amountIn",
          "type": "uint256"
        },
        {
          "internalType": "uint256",
          "name": "amountOutMin",
          "type": "uint256"
        },
        {
          "internalType": "address[]",
          "name": "path",
          "type": "address[]"
        },
        {
          "internalType": "address",
          "name": "to",
          "type": "address"
        },
        {
          "internalType": "uint256",
          "name": "deadline",
          "type": "uint256"
        }
      ],
      "name": "swapExactTokensForTokens",
      "outputs": [
        {
          "internalType": "uint256[]",
          "name": "amounts",
          "type": "uint256[]"
        }
      ],
      "stateMutability": "payable",
      "type": "function"
    },
    {
      "inputs": [
        {
          "internalType": "uint256",
          "name": "amountIn",
          "type": "uint256"
        },
        {
          "internalType": "uint256",
          "name": "amountOutMin",
          "type": "uint256"
        },
        {
          "internalType": "address[]",
          "name": "path",
          "type": "address[]"
        },
        {
          "internalType": "address",
          "name": "to",
          "type": "address"
        },
        {
          "internalType": "uint256",
          "name": "deadline",
          "type": "uint256"
        }
      ],
      "name": "swapExactTokensForTokensSupportingFeeOnTransferTokens",
      "outputs": [],
      "stateMutability": "payable",
      "type": "function"
    },
    {
      "inputs": [
        {
          "internalType": "uint256",
          "name": "amountOut",
          "type": "uint256"
        },
        {
          "internalType": "uint256",
          "name": "amountInMax",
          "type": "uint256"
        },
        {
          "internalType": "address[]",
          "name": "path",
          "type": "address[]"
        },
        {
          "internalType": "address",
          "name": "to",
          "type": "address"
        },
        {
          "internalType": "uint256",
          "name": "deadline",
          "type": "uint256"
        }
      ],
      "name": "swapTokensForExactETH",
      "outputs": [
        {
          "internalType": "uint256[]",
          "name": "amounts",
          "type": "uint256[]"
        }
      ],
      "stateMutability": "nonpayable",
      "type": "function"
    },
    {
      "inputs": [
        {
          "internalType": "uint256",
          "name": "amountOut",
          "type": "uint256"
        },
        {
          "internalType": "uint256",
          "name": "amountInMax",
          "type": "uint256"
        },
        {
          "internalType": "address[]",
          "name": "path",
          "type": "address[]"
        },
        {
          "internalType": "address",
          "name": "to",
          "type": "address"
        },
        {
          "internalType": "uint256",
          "name": "deadline",
          "type": "uint256"
        }
      ],
      "name": "swapTokensForExactTokens",
      "outputs": [
        {
          "internalType": "uint256[]",
          "name": "amounts",
          "type": "uint256[]"
        }
      ],
      "stateMutability": "nonpayable",
      "type": "function"
    },
    {
      "inputs": [
        {
          "internalType": "address",
          "name": "newOwner",
          "type": "address"
        }
      ],
      "name": "transferOwnership",
      "outputs": [],
      "stateMutability": "nonpayable",
      "type": "function"
    },
    {
      "inputs": [
        {
          "internalType": "address",
          "name": "_token",
          "type": "address"
        }
      ],
      "name": "withdrawFees",
      "outputs": [],
      "stateMutability": "nonpayable",
      "type": "function"
    },
    {
      "stateMutability": "payable",
      "type": "receive"
    }
  ],
  "transactionHash": "0x776ea85e9f7daec34a5908216d97b94445f159b4c3be8e5aed7b8e173694de5a",
  "args": [
    "0xDc64a140Aa3E981100a9becA4E685f962f0cF6C9",
    "0x0000000000000000000000000000000000000000",
    "0xe7f1725E7734CE288F8367e1Bb143E90bb3F0512"
  ],
  "numDeployments": 1,
  "solcInputHash": "cf100c3b4e4e9faafcb19e793b79de59",
  "bytecode": "0x60c0604052600a60045560646005553480156200001b57600080fd5b5060405162007dbc38038062007dbc833981810160405260608110156200004157600080fd5b81019080805190602001909291908051906020019092919080519060200190929190505050620000866200007a6200013e60201b60201c565b6200014660201b60201c565b8273ffffffffffffffffffffffffffffffffffffffff1660808173ffffffffffffffffffffffffffffffffffffffff1660601b815250508173ffffffffffffffffffffffffffffffffffffffff1660a08173ffffffffffffffffffffffffffffffffffffffff1660601b8152505080600660006101000a81548173ffffffffffffffffffffffffffffffffffffffff021916908373ffffffffffffffffffffffffffffffffffffffff1602179055505050506200020a565b600033905090565b60008060009054906101000a900473ffffffffffffffffffffffffffffffffffffffff169050816000806101000a81548173ffffffffffffffffffffffffffffffffffffffff021916908373ffffffffffffffffffffffffffffffffffffffff1602179055508173ffffffffffffffffffffffffffffffffffffffff168173ffffffffffffffffffffffffffffffffffffffff167f8be0079c531659141344cd1fd0a4f28419497f9722a3daafe3b4186f6b6457e060405160405180910390a35050565b60805160601c60a05160601c617a6662000356600039806101f9528061187c52806118ba5280611bfa5280611ed852806129565280612c315280612d2752806132db52806134c852806135fb528061371352806138db52806139705280613e575280613f0e52806140015280614118528061420752806142885280614a7f5280614eb75280614f105280614f445280614fc5528061520552806153ca528061545f525080611cec5280611df85280611fab5280611fe3528061232d528061265452806127605280612a485280612b515280612d055280612f4152806133fb528061380052806139af5280613bd05280613cd952806142c752806146fa52806149fc5280614a255280614a5d5280614c8f5280614eee52806152f2528061549e5280616112528061615652806168f25280616b59528061720e5280617336528061744c5250617a666000f3fe6080604052600436106101f25760003560e01c806385f8c2591161010d578063b6f9de95116100a0578063ded9382a1161006f578063ded9382a14611433578063e8e3370014611515578063f2fde38b146115fb578063f305d7191461164c578063fb3bdb41146116fa5761024e565b8063b6f9de9514611137578063baa2abde146111e4578063c45a0155146112b8578063d06ca61f1461130f5761024e565b8063a8b08982116100dc578063a8b0898214610f79578063ad5c464814610fd0578063ad615dec14611027578063af2979eb1461108a5761024e565b806385f8c25914610d555780638803dbee14610db85780638da5cb5b14610ed1578063a22d483214610f285761024e565b806338ed1739116101855780635c11d795116101545780635c11d79514610ac1578063715018a614610b78578063791ac94714610b8f5780637ff36ab514610c535761024e565b806338ed17391461078657806339c7ddcc146108925780634a25d94a146108cd5780635b0d5984146109e65761024e565b80631f00ca74116101c15780631f00ca74146104d45780632195995c146105f85780632c1e816d146106fa57806334e199071461074b5761024e565b806302751cec14610253578063054d50d414610307578063164e68de1461036a57806318cbafe5146103bb5761024e565b3661024e577f000000000000000000000000000000000000000000000000000000000000000073ffffffffffffffffffffffffffffffffffffffff163373ffffffffffffffffffffffffffffffffffffffff161461024c57fe5b005b600080fd5b34801561025f57600080fd5b506102ea600480360360c081101561027657600080fd5b81019080803573ffffffffffffffffffffffffffffffffffffffff169060200190929190803590602001909291908035906020019092919080359060200190929190803573ffffffffffffffffffffffffffffffffffffffff169060200190929190803590602001909291905050506117fc565b604051808381526020018281526020019250505060405180910390f35b34801561031357600080fd5b506103546004803603606081101561032a57600080fd5b81019080803590602001909291908035906020019092919080359060200190929190505050611959565b6040518082815260200191505060405180910390f35b34801561037657600080fd5b506103b96004803603602081101561038d57600080fd5b81019080803573ffffffffffffffffffffffffffffffffffffffff16906020019092919050505061196f565b005b3480156103c757600080fd5b5061047d600480360360a08110156103de57600080fd5b8101908080359060200190929190803590602001909291908035906020019064010000000081111561040f57600080fd5b82018360208201111561042157600080fd5b8035906020019184602083028401116401000000008311171561044357600080fd5b9091929391929390803573ffffffffffffffffffffffffffffffffffffffff16906020019092919080359060200190929190505050611b7f565b6040518080602001828103825283818151815260200191508051906020019060200280838360005b838110156104c05780820151818401526020810190506104a5565b505050509050019250505060405180910390f35b3480156104e057600080fd5b506105a1600480360360408110156104f757600080fd5b81019080803590602001909291908035906020019064010000000081111561051e57600080fd5b82018360208201111561053057600080fd5b8035906020019184602083028401116401000000008311171561055257600080fd5b919080806020026020016040519081016040528093929190818152602001838360200280828437600081840152601f19601f820116905080830192505050505050509192919290505050611fa4565b6040518080602001828103825283818151815260200191508051906020019060200280838360005b838110156105e45780820151818401526020810190506105c9565b505050509050019250505060405180910390f35b34801561060457600080fd5b506106dd600480360361016081101561061c57600080fd5b81019080803573ffffffffffffffffffffffffffffffffffffffff169060200190929190803573ffffffffffffffffffffffffffffffffffffffff169060200190929190803590602001909291908035906020019092919080359060200190929190803573ffffffffffffffffffffffffffffffffffffffff16906020019092919080359060200190929190803515159060200190929190803560ff1690602001909291908035906020019092919080359060200190929190505050611fd9565b604051808381526020018281526020019250505060405180910390f35b34801561070657600080fd5b506107496004803603602081101561071d57600080fd5b81019080803573ffffffffffffffffffffffffffffffffffffffff16906020019092919050505061215e565b005b34801561075757600080fd5b506107846004803603602081101561076e57600080fd5b810190808035906020019092919050505061221f565b005b61083b600480360360a081101561079c57600080fd5b810190808035906020019092919080359060200190929190803590602001906401000000008111156107cd57600080fd5b8201836020820111156107df57600080fd5b8035906020019184602083028401116401000000008311171561080157600080fd5b9091929391929390803573ffffffffffffffffffffffffffffffffffffffff169060200190929190803590602001909291905050506122af565b6040518080602001828103825283818151815260200191508051906020019060200280838360005b8381101561087e578082015181840152602081019050610863565b505050509050019250505060405180910390f35b34801561089e57600080fd5b506108cb600480360360208110156108b557600080fd5b810190808035906020019092919050505061284b565b005b3480156108d957600080fd5b5061098f600480360360a08110156108f057600080fd5b8101908080359060200190929190803590602001909291908035906020019064010000000081111561092157600080fd5b82018360208201111561093357600080fd5b8035906020019184602083028401116401000000008311171561095557600080fd5b9091929391929390803573ffffffffffffffffffffffffffffffffffffffff169060200190929190803590602001909291905050506128db565b6040518080602001828103825283818151815260200191508051906020019060200280838360005b838110156109d25780820151818401526020810190506109b7565b505050509050019250505060405180910390f35b3480156109f257600080fd5b50610aab6004803603610140811015610a0a57600080fd5b81019080803573ffffffffffffffffffffffffffffffffffffffff169060200190929190803590602001909291908035906020019092919080359060200190929190803573ffffffffffffffffffffffffffffffffffffffff16906020019092919080359060200190929190803515159060200190929190803560ff1690602001909291908035906020019092919080359060200190929190505050612cfd565b6040518082815260200191505060405180910390f35b610b76600480360360a0811015610ad757600080fd5b81019080803590602001909291908035906020019092919080359060200190640100000000811115610b0857600080fd5b820183602082011115610b1a57600080fd5b80359060200191846020830284011164010000000083111715610b3c57600080fd5b9091929391929390803573ffffffffffffffffffffffffffffffffffffffff16906020019092919080359060200190929190505050612e97565b005b348015610b8457600080fd5b50610b8d61324e565b005b348015610b9b57600080fd5b50610c51600480360360a0811015610bb257600080fd5b81019080803590602001909291908035906020019092919080359060200190640100000000811115610be357600080fd5b820183602082011115610bf557600080fd5b80359060200191846020830284011164010000000083111715610c1757600080fd5b9091929391929390803573ffffffffffffffffffffffffffffffffffffffff16906020019092919080359060200190929190505050613262565b005b610cfe60048036036080811015610c6957600080fd5b810190808035906020019092919080359060200190640100000000811115610c9057600080fd5b820183602082011115610ca257600080fd5b80359060200191846020830284011164010000000083111715610cc457600080fd5b9091929391929390803573ffffffffffffffffffffffffffffffffffffffff16906020019092919080359060200190929190505050613698565b6040518080602001828103825283818151815260200191508051906020019060200280838360005b83811015610d41578082015181840152602081019050610d26565b505050509050019250505060405180910390f35b348015610d6157600080fd5b50610da260048036036060811015610d7857600080fd5b81019080803590602001909291908035906020019092919080359060200190929190505050613b3c565b6040518082815260200191505060405180910390f35b348015610dc457600080fd5b50610e7a600480360360a0811015610ddb57600080fd5b81019080803590602001909291908035906020019092919080359060200190640100000000811115610e0c57600080fd5b820183602082011115610e1e57600080fd5b80359060200191846020830284011164010000000083111715610e4057600080fd5b9091929391929390803573ffffffffffffffffffffffffffffffffffffffff16906020019092919080359060200190929190505050613b52565b6040518080602001828103825283818151815260200191508051906020019060200280838360005b83811015610ebd578082015181840152602081019050610ea2565b505050509050019250505060405180910390f35b348015610edd57600080fd5b50610ee6613dc2565b604051808273ffffffffffffffffffffffffffffffffffffffff1673ffffffffffffffffffffffffffffffffffffffff16815260200191505060405180910390f35b348015610f3457600080fd5b50610f7760048036036020811015610f4b57600080fd5b81019080803573ffffffffffffffffffffffffffffffffffffffff169060200190929190505050613deb565b005b348015610f8557600080fd5b50610f8e613e2f565b604051808273ffffffffffffffffffffffffffffffffffffffff1673ffffffffffffffffffffffffffffffffffffffff16815260200191505060405180910390f35b348015610fdc57600080fd5b50610fe5613e55565b604051808273ffffffffffffffffffffffffffffffffffffffff1673ffffffffffffffffffffffffffffffffffffffff16815260200191505060405180910390f35b34801561103357600080fd5b506110746004803603606081101561104a57600080fd5b81019080803590602001909291908035906020019092919080359060200190929190505050613e79565b6040518082815260200191505060405180910390f35b34801561109657600080fd5b50611121600480360360c08110156110ad57600080fd5b81019080803573ffffffffffffffffffffffffffffffffffffffff169060200190929190803590602001909291908035906020019092919080359060200190929190803573ffffffffffffffffffffffffffffffffffffffff16906020019092919080359060200190929190505050613e8f565b6040518082815260200191505060405180910390f35b6111e26004803603608081101561114d57600080fd5b81019080803590602001909291908035906020019064010000000081111561117457600080fd5b82018360208201111561118657600080fd5b803590602001918460208302840111640100000000831117156111a857600080fd5b9091929391929390803573ffffffffffffffffffffffffffffffffffffffff1690602001909291908035906020019092919050505061409f565b005b3480156111f057600080fd5b5061129b600480360360e081101561120757600080fd5b81019080803573ffffffffffffffffffffffffffffffffffffffff169060200190929190803573ffffffffffffffffffffffffffffffffffffffff169060200190929190803590602001909291908035906020019092919080359060200190929190803573ffffffffffffffffffffffffffffffffffffffff16906020019092919080359060200190929190505050614679565b604051808381526020018281526020019250505060405180910390f35b3480156112c457600080fd5b506112cd6149fa565b604051808273ffffffffffffffffffffffffffffffffffffffff1673ffffffffffffffffffffffffffffffffffffffff16815260200191505060405180910390f35b34801561131b57600080fd5b506113dc6004803603604081101561133257600080fd5b81019080803590602001909291908035906020019064010000000081111561135957600080fd5b82018360208201111561136b57600080fd5b8035906020019184602083028401116401000000008311171561138d57600080fd5b919080806020026020016040519081016040528093929190818152602001838360200280828437600081840152601f19601f820116905080830192505050505050509192919290505050614a1e565b6040518080602001828103825283818151815260200191508051906020019060200280838360005b8381101561141f578082015181840152602081019050611404565b505050509050019250505060405180910390f35b34801561143f57600080fd5b506114f8600480360361014081101561145757600080fd5b81019080803573ffffffffffffffffffffffffffffffffffffffff169060200190929190803590602001909291908035906020019092919080359060200190929190803573ffffffffffffffffffffffffffffffffffffffff16906020019092919080359060200190929190803515159060200190929190803560ff1690602001909291908035906020019092919080359060200190929190505050614a53565b604051808381526020018281526020019250505060405180910390f35b34801561152157600080fd5b506115d7600480360361010081101561153957600080fd5b81019080803573ffffffffffffffffffffffffffffffffffffffff169060200190929190803573ffffffffffffffffffffffffffffffffffffffff16906020019092919080359060200190929190803590602001909291908035906020019092919080359060200190929190803573ffffffffffffffffffffffffffffffffffffffff16906020019092919080359060200190929190505050614bf6565b60405180848152602001838152602001828152602001935050505060405180910390f35b34801561160757600080fd5b5061164a6004803603602081101561161e57600080fd5b81019080803573ffffffffffffffffffffffffffffffffffffffff169060200190929190505050614d9b565b005b6116d6600480360360c081101561166257600080fd5b81019080803573ffffffffffffffffffffffffffffffffffffffff169060200190929190803590602001909291908035906020019092919080359060200190929190803573ffffffffffffffffffffffffffffffffffffffff16906020019092919080359060200190929190505050614e35565b60405180848152602001838152602001828152602001935050505060405180910390f35b6117a56004803603608081101561171057600080fd5b81019080803590602001909291908035906020019064010000000081111561173757600080fd5b82018360208201111561174957600080fd5b8035906020019184602083028401116401000000008311171561176b57600080fd5b9091929391929390803573ffffffffffffffffffffffffffffffffffffffff1690602001909291908035906020019092919050505061518a565b6040518080602001828103825283818151815260200191508051906020019060200280838360005b838110156117e85780820151818401526020810190506117cd565b505050509050019250505060405180910390f35b6000808242811015611876576040517f08c379a00000000000000000000000000000000000000000000000000000000081526004018080602001828103825260168152602001807f50616e63616b65526f757465723a20455850495245440000000000000000000081525060200191505060405180910390fd5b6118a5897f00000000000000000000000000000000000000000000000000000000000000008a8a8a308a614679565b80935081945050506118b8898685615668565b7f000000000000000000000000000000000000000000000000000000000000000073ffffffffffffffffffffffffffffffffffffffff16632e1a7d4d836040518263ffffffff1660e01b815260040180828152602001915050600060405180830381600087803b15801561192b57600080fd5b505af115801561193f573d6000803e3d6000fd5b5050505061194d8583615844565b50965096945050505050565b60006119668484846159a3565b90509392505050565b611983336001615ad390919063ffffffff16565b6119f5576040517f08c379a00000000000000000000000000000000000000000000000000000000081526004018080602001828103825260188152602001807f444f45535f4e4f545f484156455f41444d494e5f524f4c45000000000000000081525060200191505060405180910390fd5b60008173ffffffffffffffffffffffffffffffffffffffff166370a08231306040518263ffffffff1660e01b8152600401808273ffffffffffffffffffffffffffffffffffffffff1673ffffffffffffffffffffffffffffffffffffffff16815260200191505060206040518083038186803b158015611a7457600080fd5b505afa158015611a88573d6000803e3d6000fd5b505050506040513d6020811015611a9e57600080fd5b810190808051906020019092919050505090508173ffffffffffffffffffffffffffffffffffffffff1663a9059cbb611ad5613dc2565b836040518363ffffffff1660e01b8152600401808373ffffffffffffffffffffffffffffffffffffffff1673ffffffffffffffffffffffffffffffffffffffff16815260200182815260200192505050602060405180830381600087803b158015611b3f57600080fd5b505af1158015611b53573d6000803e3d6000fd5b505050506040513d6020811015611b6957600080fd5b8101908080519060200190929190505050505050565b60608142811015611bf8576040517f08c379a00000000000000000000000000000000000000000000000000000000081526004018080602001828103825260168152602001807f50616e63616b65526f757465723a20455850495245440000000000000000000081525060200191505060405180910390fd5b7f000000000000000000000000000000000000000000000000000000000000000073ffffffffffffffffffffffffffffffffffffffff16868660018989905003818110611c4157fe5b9050602002013573ffffffffffffffffffffffffffffffffffffffff1673ffffffffffffffffffffffffffffffffffffffff1614611ce7576040517f08c379a000000000000000000000000000000000000000000000000000000000815260040180806020018281038252601b8152602001807f50616e63616b65526f757465723a20494e56414c49445f50415448000000000081525060200191505060405180910390fd5b611d537f000000000000000000000000000000000000000000000000000000000000000089888880806020026020016040519081016040528093929190818152602001838360200280828437600081840152601f19601f82011690508083019250505050505050615b65565b91508682600184510381518110611d6657fe5b60200260200101511015611dc5576040517f08c379a00000000000000000000000000000000000000000000000000000000081526004018080602001828103825260298152602001806179026029913960400191505060405180910390fd5b611e8a86866000818110611dd557fe5b9050602002013573ffffffffffffffffffffffffffffffffffffffff1633611e707f00000000000000000000000000000000000000000000000000000000000000008a8a6000818110611e2457fe5b9050602002013573ffffffffffffffffffffffffffffffffffffffff168b8b6001818110611e4e57fe5b9050602002013573ffffffffffffffffffffffffffffffffffffffff16615cdd565b85600081518110611e7d57fe5b6020026020010151615e38565b611ed682878780806020026020016040519081016040528093929190818152602001838360200280828437600081840152601f19601f8201169050808301925050505050505030616049565b7f000000000000000000000000000000000000000000000000000000000000000073ffffffffffffffffffffffffffffffffffffffff16632e1a7d4d83600185510381518110611f2257fe5b60200260200101516040518263ffffffff1660e01b815260040180828152602001915050600060405180830381600087803b158015611f6057600080fd5b505af1158015611f74573d6000803e3d6000fd5b50505050611f998483600185510381518110611f8c57fe5b6020026020010151615844565b509695505050505050565b6060611fd17f000000000000000000000000000000000000000000000000000000000000000084846162f4565b905092915050565b60008060006120097f00000000000000000000000000000000000000000000000000000000000000008f8f615cdd565b9050600087612018578c61203a565b7fffffffffffffffffffffffffffffffffffffffffffffffffffffffffffffffff5b90508173ffffffffffffffffffffffffffffffffffffffff1663d505accf3330848d8c8c8c6040518863ffffffff1660e01b8152600401808873ffffffffffffffffffffffffffffffffffffffff1673ffffffffffffffffffffffffffffffffffffffff1681526020018773ffffffffffffffffffffffffffffffffffffffff1673ffffffffffffffffffffffffffffffffffffffff1681526020018681526020018581526020018460ff1660ff168152602001838152602001828152602001975050505050505050600060405180830381600087803b15801561211d57600080fd5b505af1158015612131573d6000803e3d6000fd5b505050506121448f8f8f8f8f8f8f614679565b809450819550505050509b509b9950505050505050505050565b612166616474565b80600360006101000a81548173ffffffffffffffffffffffffffffffffffffffff021916908373ffffffffffffffffffffffffffffffffffffffff1602179055506121bb81600161652590919063ffffffff16565b61221c6040518060400160405280600f81526020017f41646d696e2073657420746f2025730000000000000000000000000000000000815250600360009054906101000a900473ffffffffffffffffffffffffffffffffffffffff166165d1565b50565b612233336001615ad390919063ffffffff16565b6122a5576040517f08c379a00000000000000000000000000000000000000000000000000000000081526004018080602001828103825260188152602001807f444f45535f4e4f545f484156455f41444d494e5f524f4c45000000000000000081525060200191505060405180910390fd5b8060048190555050565b60608142811015612328576040517f08c379a00000000000000000000000000000000000000000000000000000000081526004018080602001828103825260168152602001807f50616e63616b65526f757465723a20455850495245440000000000000000000081525060200191505060405180910390fd5b6123947f000000000000000000000000000000000000000000000000000000000000000089888880806020026020016040519081016040528093929190818152602001838360200280828437600081840152601f19601f82011690508083019250505050505050615b65565b91506000600660009054906101000a900473ffffffffffffffffffffffffffffffffffffffff1673ffffffffffffffffffffffffffffffffffffffff166370a08231336040518263ffffffff1660e01b8152600401808273ffffffffffffffffffffffffffffffffffffffff1673ffffffffffffffffffffffffffffffffffffffff16815260200191505060206040518083038186803b15801561243757600080fd5b505afa15801561244b573d6000803e3d6000fd5b505050506040513d602081101561246157600080fd5b8101908080519060200190929190505050905060006124b46040518060400160405280600781526020017f6462677374727400000000000000000000000000000000000000000000000000815250616704565b6124f26040518060400160405280600c81526020017f4c53522042616c616e63653a0000000000000000000000000000000000000000815250616704565b6124fb82616802565b600554821061250d5760009050612520565b6127106004548b028161251c57fe5b0490505b61255e6040518060400160405280600681526020017f4665652069730000000000000000000000000000000000000000000000000000815250616704565b61256781616802565b6125a56040518060400160405280600681526020017f646267656e640000000000000000000000000000000000000000000000000000815250616704565b6125da888860008181106125b557fe5b9050602002013573ffffffffffffffffffffffffffffffffffffffff16333084615e38565b808a03995088846001865103815181106125f057fe5b6020026020010151101561264f576040517f08c379a00000000000000000000000000000000000000000000000000000000081526004018080602001828103825260298152602001806179026029913960400191505060405180910390fd5b6126bb7f00000000000000000000000000000000000000000000000000000000000000008b8a8a80806020026020016040519081016040528093929190818152602001838360200280828437600081840152601f19601f82011690508083019250505050505050615b65565b935088846001865103815181106126ce57fe5b6020026020010151101561272d576040517f08c379a00000000000000000000000000000000000000000000000000000000081526004018080602001828103825260298152602001806179026029913960400191505060405180910390fd5b6127f28888600081811061273d57fe5b9050602002013573ffffffffffffffffffffffffffffffffffffffff16336127d87f00000000000000000000000000000000000000000000000000000000000000008c8c600081811061278c57fe5b9050602002013573ffffffffffffffffffffffffffffffffffffffff168d8d60018181106127b657fe5b9050602002013573ffffffffffffffffffffffffffffffffffffffff16615cdd565b876000815181106127e557fe5b6020026020010151615e38565b61283e84898980806020026020016040519081016040528093929190818152602001838360200280828437600081840152601f19601f8201169050808301925050505050505088616049565b5050509695505050505050565b61285f336001615ad390919063ffffffff16565b6128d1576040517f08c379a00000000000000000000000000000000000000000000000000000000081526004018080602001828103825260188152602001807f444f45535f4e4f545f484156455f41444d494e5f524f4c45000000000000000081525060200191505060405180910390fd5b8060058190555050565b60608142811015612954576040517f08c379a00000000000000000000000000000000000000000000000000000000081526004018080602001828103825260168152602001807f50616e63616b65526f757465723a20455850495245440000000000000000000081525060200191505060405180910390fd5b7f000000000000000000000000000000000000000000000000000000000000000073ffffffffffffffffffffffffffffffffffffffff1686866001898990500381811061299d57fe5b9050602002013573ffffffffffffffffffffffffffffffffffffffff1673ffffffffffffffffffffffffffffffffffffffff1614612a43576040517f08c379a000000000000000000000000000000000000000000000000000000000815260040180806020018281038252601b8152602001807f50616e63616b65526f757465723a20494e56414c49445f50415448000000000081525060200191505060405180910390fd5b612aaf7f000000000000000000000000000000000000000000000000000000000000000089888880806020026020016040519081016040528093929190818152602001838360200280828437600081840152601f19601f820116905080830192505050505050506162f4565b91508682600081518110612abf57fe5b60200260200101511115612b1e576040517f08c379a00000000000000000000000000000000000000000000000000000000081526004018080602001828103825260258152602001806179c26025913960400191505060405180910390fd5b612be386866000818110612b2e57fe5b9050602002013573ffffffffffffffffffffffffffffffffffffffff1633612bc97f00000000000000000000000000000000000000000000000000000000000000008a8a6000818110612b7d57fe5b9050602002013573ffffffffffffffffffffffffffffffffffffffff168b8b6001818110612ba757fe5b9050602002013573ffffffffffffffffffffffffffffffffffffffff16615cdd565b85600081518110612bd657fe5b6020026020010151615e38565b612c2f82878780806020026020016040519081016040528093929190818152602001838360200280828437600081840152601f19601f8201169050808301925050505050505030616049565b7f000000000000000000000000000000000000000000000000000000000000000073ffffffffffffffffffffffffffffffffffffffff16632e1a7d4d83600185510381518110612c7b57fe5b60200260200101516040518263ffffffff1660e01b815260040180828152602001915050600060405180830381600087803b158015612cb957600080fd5b505af1158015612ccd573d6000803e3d6000fd5b50505050612cf28483600185510381518110612ce557fe5b6020026020010151615844565b509695505050505050565b600080612d4b7f00000000000000000000000000000000000000000000000000000000000000008d7f0000000000000000000000000000000000000000000000000000000000000000615cdd565b9050600086612d5a578b612d7c565b7fffffffffffffffffffffffffffffffffffffffffffffffffffffffffffffffff5b90508173ffffffffffffffffffffffffffffffffffffffff1663d505accf3330848c8b8b8b6040518863ffffffff1660e01b8152600401808873ffffffffffffffffffffffffffffffffffffffff1673ffffffffffffffffffffffffffffffffffffffff1681526020018773ffffffffffffffffffffffffffffffffffffffff1673ffffffffffffffffffffffffffffffffffffffff1681526020018681526020018581526020018460ff1660ff168152602001838152602001828152602001975050505050505050600060405180830381600087803b158015612e5f57600080fd5b505af1158015612e73573d6000803e3d6000fd5b50505050612e858d8d8d8d8d8d613e8f565b925050509a9950505050505050505050565b8042811015612f0e576040517f08c379a00000000000000000000000000000000000000000000000000000000081526004018080602001828103825260168152602001807f50616e63616b65526f757465723a20455850495245440000000000000000000081525060200191505060405180910390fd5b612fbf85856000818110612f1e57fe5b9050602002013573ffffffffffffffffffffffffffffffffffffffff1633612fb97f000000000000000000000000000000000000000000000000000000000000000089896000818110612f6d57fe5b9050602002013573ffffffffffffffffffffffffffffffffffffffff168a8a6001818110612f9757fe5b9050602002013573ffffffffffffffffffffffffffffffffffffffff16615cdd565b8a615e38565b6000858560018888905003818110612fd357fe5b9050602002013573ffffffffffffffffffffffffffffffffffffffff1673ffffffffffffffffffffffffffffffffffffffff166370a08231856040518263ffffffff1660e01b8152600401808273ffffffffffffffffffffffffffffffffffffffff1673ffffffffffffffffffffffffffffffffffffffff16815260200191505060206040518083038186803b15801561306c57600080fd5b505afa158015613080573d6000803e3d6000fd5b505050506040513d602081101561309657600080fd5b810190808051906020019092919050505090506130f4868680806020026020016040519081016040528093929190818152602001838360200280828437600081840152601f19601f820116905080830192505050505050508561689b565b866131ed82888860018b8b90500381811061310b57fe5b9050602002013573ffffffffffffffffffffffffffffffffffffffff1673ffffffffffffffffffffffffffffffffffffffff166370a08231886040518263ffffffff1660e01b8152600401808273ffffffffffffffffffffffffffffffffffffffff1673ffffffffffffffffffffffffffffffffffffffff16815260200191505060206040518083038186803b1580156131a457600080fd5b505afa1580156131b8573d6000803e3d6000fd5b505050506040513d60208110156131ce57600080fd5b8101908080519060200190929190505050616d1290919063ffffffff16565b1015613244576040517f08c379a00000000000000000000000000000000000000000000000000000000081526004018080602001828103825260298152602001806179026029913960400191505060405180910390fd5b5050505050505050565b613256616474565b6132606000616d95565b565b80428110156132d9576040517f08c379a00000000000000000000000000000000000000000000000000000000081526004018080602001828103825260168152602001807f50616e63616b65526f757465723a20455850495245440000000000000000000081525060200191505060405180910390fd5b7f000000000000000000000000000000000000000000000000000000000000000073ffffffffffffffffffffffffffffffffffffffff1685856001888890500381811061332257fe5b9050602002013573ffffffffffffffffffffffffffffffffffffffff1673ffffffffffffffffffffffffffffffffffffffff16146133c8576040517f08c379a000000000000000000000000000000000000000000000000000000000815260040180806020018281038252601b8152602001807f50616e63616b65526f757465723a20494e56414c49445f50415448000000000081525060200191505060405180910390fd5b613479858560008181106133d857fe5b9050602002013573ffffffffffffffffffffffffffffffffffffffff16336134737f00000000000000000000000000000000000000000000000000000000000000008989600081811061342757fe5b9050602002013573ffffffffffffffffffffffffffffffffffffffff168a8a600181811061345157fe5b9050602002013573ffffffffffffffffffffffffffffffffffffffff16615cdd565b8a615e38565b6134c4858580806020026020016040519081016040528093929190818152602001838360200280828437600081840152601f19601f820116905080830192505050505050503061689b565b60007f000000000000000000000000000000000000000000000000000000000000000073ffffffffffffffffffffffffffffffffffffffff166370a08231306040518263ffffffff1660e01b8152600401808273ffffffffffffffffffffffffffffffffffffffff1673ffffffffffffffffffffffffffffffffffffffff16815260200191505060206040518083038186803b15801561356357600080fd5b505afa158015613577573d6000803e3d6000fd5b505050506040513d602081101561358d57600080fd5b81019080805190602001909291905050509050868110156135f9576040517f08c379a00000000000000000000000000000000000000000000000000000000081526004018080602001828103825260298152602001806179026029913960400191505060405180910390fd5b7f000000000000000000000000000000000000000000000000000000000000000073ffffffffffffffffffffffffffffffffffffffff16632e1a7d4d826040518263ffffffff1660e01b815260040180828152602001915050600060405180830381600087803b15801561366c57600080fd5b505af1158015613680573d6000803e3d6000fd5b5050505061368e8482615844565b5050505050505050565b60608142811015613711576040517f08c379a00000000000000000000000000000000000000000000000000000000081526004018080602001828103825260168152602001807f50616e63616b65526f757465723a20455850495245440000000000000000000081525060200191505060405180910390fd5b7f000000000000000000000000000000000000000000000000000000000000000073ffffffffffffffffffffffffffffffffffffffff168686600081811061375557fe5b9050602002013573ffffffffffffffffffffffffffffffffffffffff1673ffffffffffffffffffffffffffffffffffffffff16146137fb576040517f08c379a000000000000000000000000000000000000000000000000000000000815260040180806020018281038252601b8152602001807f50616e63616b65526f757465723a20494e56414c49445f50415448000000000081525060200191505060405180910390fd5b6138677f000000000000000000000000000000000000000000000000000000000000000034888880806020026020016040519081016040528093929190818152602001838360200280828437600081840152601f19601f82011690508083019250505050505050615b65565b9150868260018451038151811061387a57fe5b602002602001015110156138d9576040517f08c379a00000000000000000000000000000000000000000000000000000000081526004018080602001828103825260298152602001806179026029913960400191505060405180910390fd5b7f000000000000000000000000000000000000000000000000000000000000000073ffffffffffffffffffffffffffffffffffffffff1663d0e30db08360008151811061392257fe5b60200260200101516040518263ffffffff1660e01b81526004016000604051808303818588803b15801561395557600080fd5b505af1158015613969573d6000803e3d6000fd5b50505050507f000000000000000000000000000000000000000000000000000000000000000073ffffffffffffffffffffffffffffffffffffffff1663a9059cbb613a277f0000000000000000000000000000000000000000000000000000000000000000898960008181106139db57fe5b9050602002013573ffffffffffffffffffffffffffffffffffffffff168a8a6001818110613a0557fe5b9050602002013573ffffffffffffffffffffffffffffffffffffffff16615cdd565b84600081518110613a3457fe5b60200260200101516040518363ffffffff1660e01b8152600401808373ffffffffffffffffffffffffffffffffffffffff1673ffffffffffffffffffffffffffffffffffffffff16815260200182815260200192505050602060405180830381600087803b158015613aa557600080fd5b505af1158015613ab9573d6000803e3d6000fd5b505050506040513d6020811015613acf57600080fd5b8101908080519060200190929190505050613ae657fe5b613b3282878780806020026020016040519081016040528093929190818152602001838360200280828437600081840152601f19601f8201169050808301925050505050505086616049565b5095945050505050565b6000613b49848484616e59565b90509392505050565b60608142811015613bcb576040517f08c379a00000000000000000000000000000000000000000000000000000000081526004018080602001828103825260168152602001807f50616e63616b65526f757465723a20455850495245440000000000000000000081525060200191505060405180910390fd5b613c377f000000000000000000000000000000000000000000000000000000000000000089888880806020026020016040519081016040528093929190818152602001838360200280828437600081840152601f19601f820116905080830192505050505050506162f4565b91508682600081518110613c4757fe5b60200260200101511115613ca6576040517f08c379a00000000000000000000000000000000000000000000000000000000081526004018080602001828103825260258152602001806179c26025913960400191505060405180910390fd5b613d6b86866000818110613cb657fe5b9050602002013573ffffffffffffffffffffffffffffffffffffffff1633613d517f00000000000000000000000000000000000000000000000000000000000000008a8a6000818110613d0557fe5b9050602002013573ffffffffffffffffffffffffffffffffffffffff168b8b6001818110613d2f57fe5b9050602002013573ffffffffffffffffffffffffffffffffffffffff16615cdd565b85600081518110613d5e57fe5b6020026020010151615e38565b613db782878780806020026020016040519081016040528093929190818152602001838360200280828437600081840152601f19601f8201169050808301925050505050505086616049565b509695505050505050565b60008060009054906101000a900473ffffffffffffffffffffffffffffffffffffffff16905090565b80600260006101000a81548173ffffffffffffffffffffffffffffffffffffffff021916908373ffffffffffffffffffffffffffffffffffffffff16021790555050565b600260009054906101000a900473ffffffffffffffffffffffffffffffffffffffff1681565b7f000000000000000000000000000000000000000000000000000000000000000081565b6000613e86848484616f96565b90509392505050565b60008142811015613f08576040517f08c379a00000000000000000000000000000000000000000000000000000000081526004018080602001828103825260168152602001807f50616e63616b65526f757465723a20455850495245440000000000000000000081525060200191505060405180910390fd5b613f37887f00000000000000000000000000000000000000000000000000000000000000008989893089614679565b905080925050613fff88858a73ffffffffffffffffffffffffffffffffffffffff166370a08231306040518263ffffffff1660e01b8152600401808273ffffffffffffffffffffffffffffffffffffffff1673ffffffffffffffffffffffffffffffffffffffff16815260200191505060206040518083038186803b158015613fbf57600080fd5b505afa158015613fd3573d6000803e3d6000fd5b505050506040513d6020811015613fe957600080fd5b8101908080519060200190929190505050615668565b7f000000000000000000000000000000000000000000000000000000000000000073ffffffffffffffffffffffffffffffffffffffff16632e1a7d4d836040518263ffffffff1660e01b815260040180828152602001915050600060405180830381600087803b15801561407257600080fd5b505af1158015614086573d6000803e3d6000fd5b505050506140948483615844565b509695505050505050565b8042811015614116576040517f08c379a00000000000000000000000000000000000000000000000000000000081526004018080602001828103825260168152602001807f50616e63616b65526f757465723a20455850495245440000000000000000000081525060200191505060405180910390fd5b7f000000000000000000000000000000000000000000000000000000000000000073ffffffffffffffffffffffffffffffffffffffff168585600081811061415a57fe5b9050602002013573ffffffffffffffffffffffffffffffffffffffff1673ffffffffffffffffffffffffffffffffffffffff1614614200576040517f08c379a000000000000000000000000000000000000000000000000000000000815260040180806020018281038252601b8152602001807f50616e63616b65526f757465723a20494e56414c49445f50415448000000000081525060200191505060405180910390fd5b60003490507f000000000000000000000000000000000000000000000000000000000000000073ffffffffffffffffffffffffffffffffffffffff1663d0e30db0826040518263ffffffff1660e01b81526004016000604051808303818588803b15801561426d57600080fd5b505af1158015614281573d6000803e3d6000fd5b50505050507f000000000000000000000000000000000000000000000000000000000000000073ffffffffffffffffffffffffffffffffffffffff1663a9059cbb61433f7f0000000000000000000000000000000000000000000000000000000000000000898960008181106142f357fe5b9050602002013573ffffffffffffffffffffffffffffffffffffffff168a8a600181811061431d57fe5b9050602002013573ffffffffffffffffffffffffffffffffffffffff16615cdd565b836040518363ffffffff1660e01b8152600401808373ffffffffffffffffffffffffffffffffffffffff1673ffffffffffffffffffffffffffffffffffffffff16815260200182815260200192505050602060405180830381600087803b1580156143a957600080fd5b505af11580156143bd573d6000803e3d6000fd5b505050506040513d60208110156143d357600080fd5b81019080805190602001909291905050506143ea57fe5b60008686600189899050038181106143fe57fe5b9050602002013573ffffffffffffffffffffffffffffffffffffffff1673ffffffffffffffffffffffffffffffffffffffff166370a08231866040518263ffffffff1660e01b8152600401808273ffffffffffffffffffffffffffffffffffffffff1673ffffffffffffffffffffffffffffffffffffffff16815260200191505060206040518083038186803b15801561449757600080fd5b505afa1580156144ab573d6000803e3d6000fd5b505050506040513d60208110156144c157600080fd5b8101908080519060200190929190505050905061451f878780806020026020016040519081016040528093929190818152602001838360200280828437600081840152601f19601f820116905080830192505050505050508661689b565b8761461882898960018c8c90500381811061453657fe5b9050602002013573ffffffffffffffffffffffffffffffffffffffff1673ffffffffffffffffffffffffffffffffffffffff166370a08231896040518263ffffffff1660e01b8152600401808273ffffffffffffffffffffffffffffffffffffffff1673ffffffffffffffffffffffffffffffffffffffff16815260200191505060206040518083038186803b1580156145cf57600080fd5b505afa1580156145e3573d6000803e3d6000fd5b505050506040513d60208110156145f957600080fd5b8101908080519060200190929190505050616d1290919063ffffffff16565b101561466f576040517f08c379a00000000000000000000000000000000000000000000000000000000081526004018080602001828103825260298152602001806179026029913960400191505060405180910390fd5b5050505050505050565b60008082428110156146f3576040517f08c379a00000000000000000000000000000000000000000000000000000000081526004018080602001828103825260168152602001807f50616e63616b65526f757465723a20455850495245440000000000000000000081525060200191505060405180910390fd5b60006147207f00000000000000000000000000000000000000000000000000000000000000008c8c615cdd565b90508073ffffffffffffffffffffffffffffffffffffffff166323b872dd33838c6040518463ffffffff1660e01b8152600401808473ffffffffffffffffffffffffffffffffffffffff1673ffffffffffffffffffffffffffffffffffffffff1681526020018373ffffffffffffffffffffffffffffffffffffffff1673ffffffffffffffffffffffffffffffffffffffff1681526020018281526020019350505050602060405180830381600087803b1580156147dd57600080fd5b505af11580156147f1573d6000803e3d6000fd5b505050506040513d602081101561480757600080fd5b8101908080519060200190929190505050506000808273ffffffffffffffffffffffffffffffffffffffff166389afcb44896040518263ffffffff1660e01b8152600401808273ffffffffffffffffffffffffffffffffffffffff1673ffffffffffffffffffffffffffffffffffffffff1681526020019150506040805180830381600087803b15801561489a57600080fd5b505af11580156148ae573d6000803e3d6000fd5b505050506040513d60408110156148c457600080fd5b8101908080519060200190929190805190602001909291905050509150915060006148ef8e8e61707a565b5090508073ffffffffffffffffffffffffffffffffffffffff168e73ffffffffffffffffffffffffffffffffffffffff161461492c57818361492f565b82825b80975081985050508a871015614990576040517f08c379a000000000000000000000000000000000000000000000000000000000815260040180806020018281038252602481526020018061794e6024913960400191505060405180910390fd5b898610156149e9576040517f08c379a0000000000000000000000000000000000000000000000000000000008152600401808060200182810382526024815260200180617a0d6024913960400191505060405180910390fd5b505050505097509795505050505050565b7f000000000000000000000000000000000000000000000000000000000000000081565b6060614a4b7f00000000000000000000000000000000000000000000000000000000000000008484615b65565b905092915050565b6000806000614aa37f00000000000000000000000000000000000000000000000000000000000000008e7f0000000000000000000000000000000000000000000000000000000000000000615cdd565b9050600087614ab2578c614ad4565b7fffffffffffffffffffffffffffffffffffffffffffffffffffffffffffffffff5b90508173ffffffffffffffffffffffffffffffffffffffff1663d505accf3330848d8c8c8c6040518863ffffffff1660e01b8152600401808873ffffffffffffffffffffffffffffffffffffffff1673ffffffffffffffffffffffffffffffffffffffff1681526020018773ffffffffffffffffffffffffffffffffffffffff1673ffffffffffffffffffffffffffffffffffffffff1681526020018681526020018581526020018460ff1660ff168152602001838152602001828152602001975050505050505050600060405180830381600087803b158015614bb757600080fd5b505af1158015614bcb573d6000803e3d6000fd5b50505050614bdd8e8e8e8e8e8e6117fc565b809450819550505050509a509a98505050505050505050565b60008060008342811015614c72576040517f08c379a00000000000000000000000000000000000000000000000000000000081526004018080602001828103825260168152602001807f50616e63616b65526f757465723a20455850495245440000000000000000000081525060200191505060405180910390fd5b614c808c8c8c8c8c8c6171f1565b80945081955050506000614cb57f00000000000000000000000000000000000000000000000000000000000000008e8e615cdd565b9050614cc38d338388615e38565b614ccf8c338387615e38565b8073ffffffffffffffffffffffffffffffffffffffff16636a627842886040518263ffffffff1660e01b8152600401808273ffffffffffffffffffffffffffffffffffffffff1673ffffffffffffffffffffffffffffffffffffffff168152602001915050602060405180830381600087803b158015614d4e57600080fd5b505af1158015614d62573d6000803e3d6000fd5b505050506040513d6020811015614d7857600080fd5b810190808051906020019092919050505092505050985098509895505050505050565b614da3616474565b600073ffffffffffffffffffffffffffffffffffffffff168173ffffffffffffffffffffffffffffffffffffffff161415614e29576040517f08c379a000000000000000000000000000000000000000000000000000000000815260040180806020018281038252602681526020018061784d6026913960400191505060405180910390fd5b614e3281616d95565b50565b60008060008342811015614eb1576040517f08c379a00000000000000000000000000000000000000000000000000000000081526004018080602001828103825260168152602001807f50616e63616b65526f757465723a20455850495245440000000000000000000081525060200191505060405180910390fd5b614edf8a7f00000000000000000000000000000000000000000000000000000000000000008b348c8c6171f1565b80945081955050506000614f347f00000000000000000000000000000000000000000000000000000000000000008c7f0000000000000000000000000000000000000000000000000000000000000000615cdd565b9050614f428b338388615e38565b7f000000000000000000000000000000000000000000000000000000000000000073ffffffffffffffffffffffffffffffffffffffff1663d0e30db0856040518263ffffffff1660e01b81526004016000604051808303818588803b158015614faa57600080fd5b505af1158015614fbe573d6000803e3d6000fd5b50505050507f000000000000000000000000000000000000000000000000000000000000000073ffffffffffffffffffffffffffffffffffffffff1663a9059cbb82866040518363ffffffff1660e01b8152600401808373ffffffffffffffffffffffffffffffffffffffff1673ffffffffffffffffffffffffffffffffffffffff16815260200182815260200192505050602060405180830381600087803b15801561506a57600080fd5b505af115801561507e573d6000803e3d6000fd5b505050506040513d602081101561509457600080fd5b81019080805190602001909291905050506150ab57fe5b8073ffffffffffffffffffffffffffffffffffffffff16636a627842886040518263ffffffff1660e01b8152600401808273ffffffffffffffffffffffffffffffffffffffff1673ffffffffffffffffffffffffffffffffffffffff168152602001915050602060405180830381600087803b15801561512a57600080fd5b505af115801561513e573d6000803e3d6000fd5b505050506040513d602081101561515457600080fd5b810190808051906020019092919050505092508334111561517c5761517b33853403615844565b5b505096509650969350505050565b60608142811015615203576040517f08c379a00000000000000000000000000000000000000000000000000000000081526004018080602001828103825260168152602001807f50616e63616b65526f757465723a20455850495245440000000000000000000081525060200191505060405180910390fd5b7f000000000000000000000000000000000000000000000000000000000000000073ffffffffffffffffffffffffffffffffffffffff168686600081811061524757fe5b9050602002013573ffffffffffffffffffffffffffffffffffffffff1673ffffffffffffffffffffffffffffffffffffffff16146152ed576040517f08c379a000000000000000000000000000000000000000000000000000000000815260040180806020018281038252601b8152602001807f50616e63616b65526f757465723a20494e56414c49445f50415448000000000081525060200191505060405180910390fd5b6153597f000000000000000000000000000000000000000000000000000000000000000088888880806020026020016040519081016040528093929190818152602001838360200280828437600081840152601f19601f820116905080830192505050505050506162f4565b9150348260008151811061536957fe5b602002602001015111156153c8576040517f08c379a00000000000000000000000000000000000000000000000000000000081526004018080602001828103825260258152602001806179c26025913960400191505060405180910390fd5b7f000000000000000000000000000000000000000000000000000000000000000073ffffffffffffffffffffffffffffffffffffffff1663d0e30db08360008151811061541157fe5b60200260200101516040518263ffffffff1660e01b81526004016000604051808303818588803b15801561544457600080fd5b505af1158015615458573d6000803e3d6000fd5b50505050507f000000000000000000000000000000000000000000000000000000000000000073ffffffffffffffffffffffffffffffffffffffff1663a9059cbb6155167f0000000000000000000000000000000000000000000000000000000000000000898960008181106154ca57fe5b9050602002013573ffffffffffffffffffffffffffffffffffffffff168a8a60018181106154f457fe5b9050602002013573ffffffffffffffffffffffffffffffffffffffff16615cdd565b8460008151811061552357fe5b60200260200101516040518363ffffffff1660e01b8152600401808373ffffffffffffffffffffffffffffffffffffffff1673ffffffffffffffffffffffffffffffffffffffff16815260200182815260200192505050602060405180830381600087803b15801561559457600080fd5b505af11580156155a8573d6000803e3d6000fd5b505050506040513d60208110156155be57600080fd5b81019080805190602001909291905050506155d557fe5b61562182878780806020026020016040519081016040528093929190818152602001838360200280828437600081840152601f19601f8201169050808301925050505050505086616049565b8160008151811061562e57fe5b602002602001015134111561565e5761565d338360008151811061564e57fe5b60200260200101513403615844565b5b5095945050505050565b600060608473ffffffffffffffffffffffffffffffffffffffff1663a9059cbb8585604051602401808373ffffffffffffffffffffffffffffffffffffffff1673ffffffffffffffffffffffffffffffffffffffff168152602001828152602001925050506040516020818303038152906040529060e01b6020820180517bffffffffffffffffffffffffffffffffffffffffffffffffffffffff83818316178352505050506040518082805190602001908083835b60208310615741578051825260208201915060208101905060208303925061571e565b6001836020036101000a0380198251168184511680821785525050505050509050019150506000604051808303816000865af19150503d80600081146157a3576040519150601f19603f3d011682016040523d82523d6000602084013e6157a8565b606091505b50915091508180156157e857506000815114806157e757508080602001905160208110156157d557600080fd5b81019080805190602001909291905050505b5b61583d576040517f08c379a000000000000000000000000000000000000000000000000000000000815260040180806020018281038252602d815260200180617995602d913960400191505060405180910390fd5b5050505050565b60008273ffffffffffffffffffffffffffffffffffffffff1682600067ffffffffffffffff8111801561587657600080fd5b506040519080825280601f01601f1916602001820160405280156158a95781602001600182028036833780820191505090505b506040518082805190602001908083835b602083106158dd57805182526020820191506020810190506020830392506158ba565b6001836020036101000a03801982511681845116808217855250505050505090500191505060006040518083038185875af1925050503d806000811461593f576040519150601f19603f3d011682016040523d82523d6000602084013e615944565b606091505b505090508061599e576040517f08c379a00000000000000000000000000000000000000000000000000000000081526004018080602001828103825260348152602001806178ce6034913960400191505060405180910390fd5b505050565b60008084116159fd576040517f08c379a00000000000000000000000000000000000000000000000000000000081526004018080602001828103825260298152602001806178246029913960400191505060405180910390fd5b600083118015615a0d5750600082115b615a62576040517f08c379a00000000000000000000000000000000000000000000000000000000081526004018080602001828103825260268152602001806179e76026913960400191505060405180910390fd5b6000615a796126f7866175a590919063ffffffff16565b90506000615a9084836175a590919063ffffffff16565b90506000615abb83615aad612710896175a590919063ffffffff16565b61763a90919063ffffffff16565b9050808281615ac657fe5b0493505050509392505050565b60008073ffffffffffffffffffffffffffffffffffffffff168273ffffffffffffffffffffffffffffffffffffffff161415615b0e57600080fd5b8260000160008373ffffffffffffffffffffffffffffffffffffffff1673ffffffffffffffffffffffffffffffffffffffff16815260200190815260200160002060009054906101000a900460ff16905092915050565b6060600282511015615bdf576040517f08c379a000000000000000000000000000000000000000000000000000000000815260040180806020018281038252601c8152602001807f50616e63616b654c6962726172793a20494e56414c49445f504154480000000081525060200191505060405180910390fd5b815167ffffffffffffffff81118015615bf757600080fd5b50604051908082528060200260200182016040528015615c265781602001602082028036833780820191505090505b5090508281600081518110615c3757fe5b60200260200101818152505060005b6001835103811015615cd557600080615c8987868581518110615c6557fe5b6020026020010151876001870181518110615c7c57fe5b60200260200101516176bd565b91509150615cab848481518110615c9c57fe5b602002602001015183836159a3565b846001850181518110615cba57fe5b60200260200101818152505050508080600101915050615c46565b509392505050565b6000806000615cec858561707a565b91509150858282604051602001808373ffffffffffffffffffffffffffffffffffffffff1673ffffffffffffffffffffffffffffffffffffffff1660601b81526014018273ffffffffffffffffffffffffffffffffffffffff1673ffffffffffffffffffffffffffffffffffffffff1660601b8152601401925050506040516020818303038152906040528051906020012060405160200180807fff000000000000000000000000000000000000000000000000000000000000008152506001018373ffffffffffffffffffffffffffffffffffffffff1673ffffffffffffffffffffffffffffffffffffffff1660601b8152601401828152602001807fe395b74ef862cd62793fe5660e2c5390b34fbae784ddd18dc303ff75855b6872815250602001925050506040516020818303038152906040528051906020012060001c925050509392505050565b600060608573ffffffffffffffffffffffffffffffffffffffff166323b872dd868686604051602401808473ffffffffffffffffffffffffffffffffffffffff1673ffffffffffffffffffffffffffffffffffffffff1681526020018373ffffffffffffffffffffffffffffffffffffffff1673ffffffffffffffffffffffffffffffffffffffff16815260200182815260200193505050506040516020818303038152906040529060e01b6020820180517bffffffffffffffffffffffffffffffffffffffffffffffffffffffff83818316178352505050506040518082805190602001908083835b60208310615f455780518252602082019150602081019050602083039250615f22565b6001836020036101000a0380198251168184511680821785525050505050509050019150506000604051808303816000865af19150503d8060008114615fa7576040519150601f19603f3d011682016040523d82523d6000602084013e615fac565b606091505b5091509150818015615fec5750600081511480615feb5750808060200190516020811015615fd957600080fd5b81019080805190602001909291905050505b5b616041576040517f08c379a000000000000000000000000000000000000000000000000000000000815260040180806020018281038252603181526020018061789d6031913960400191505060405180910390fd5b505050505050565b60005b60018351038110156162ee5760008084838151811061606757fe5b602002602001015185600185018151811061607e57fe5b6020026020010151915091506000616096838361707a565b50905060008760018601815181106160aa57fe5b602002602001015190506000808373ffffffffffffffffffffffffffffffffffffffff168673ffffffffffffffffffffffffffffffffffffffff16146160f2578260006160f6565b6000835b91509150600060028a5103881061610d578861614f565b61614e7f0000000000000000000000000000000000000000000000000000000000000000878c60028c018151811061614157fe5b6020026020010151615cdd565b5b905061617c7f00000000000000000000000000000000000000000000000000000000000000008888615cdd565b73ffffffffffffffffffffffffffffffffffffffff1663022c0d9f848484600067ffffffffffffffff811180156161b257600080fd5b506040519080825280601f01601f1916602001820160405280156161e55781602001600182028036833780820191505090505b506040518563ffffffff1660e01b8152600401808581526020018481526020018373ffffffffffffffffffffffffffffffffffffffff1673ffffffffffffffffffffffffffffffffffffffff16815260200180602001828103825283818151815260200191508051906020019080838360005b83811015616273578082015181840152602081019050616258565b50505050905090810190601f1680156162a05780820380516001836020036101000a031916815260200191505b5095505050505050600060405180830381600087803b1580156162c257600080fd5b505af11580156162d6573d6000803e3d6000fd5b5050505050505050505050808060010191505061604c565b50505050565b606060028251101561636e576040517f08c379a000000000000000000000000000000000000000000000000000000000815260040180806020018281038252601c8152602001807f50616e63616b654c6962726172793a20494e56414c49445f504154480000000081525060200191505060405180910390fd5b815167ffffffffffffffff8111801561638657600080fd5b506040519080825280602002602001820160405280156163b55781602001602082028036833780820191505090505b50905082816001835103815181106163c957fe5b6020026020010181815250506000600183510390505b600081111561646c5760008061641f878660018603815181106163fe57fe5b602002602001015187868151811061641257fe5b60200260200101516176bd565b9150915061644184848151811061643257fe5b60200260200101518383616e59565b84600185038151811061645057fe5b60200260200101818152505050508080600190039150506163df565b509392505050565b61647c6177f2565b73ffffffffffffffffffffffffffffffffffffffff1661649a613dc2565b73ffffffffffffffffffffffffffffffffffffffff1614616523576040517f08c379a00000000000000000000000000000000000000000000000000000000081526004018080602001828103825260208152602001807f4f776e61626c653a2063616c6c6572206973206e6f7420746865206f776e657281525060200191505060405180910390fd5b565b600073ffffffffffffffffffffffffffffffffffffffff168173ffffffffffffffffffffffffffffffffffffffff16141561655f57600080fd5b6165698282615ad3565b1561657357600080fd5b60018260000160008373ffffffffffffffffffffffffffffffffffffffff1673ffffffffffffffffffffffffffffffffffffffff16815260200190815260200160002060006101000a81548160ff0219169083151502179055505050565b616700828260405160240180806020018373ffffffffffffffffffffffffffffffffffffffff1673ffffffffffffffffffffffffffffffffffffffff168152602001828103825284818151815260200191508051906020019080838360005b8381101561664b578082015181840152602081019050616630565b50505050905090810190601f1680156166785780820380516001836020036101000a031916815260200191505b5093505050506040516020818303038152906040527f319af333000000000000000000000000000000000000000000000000000000007bffffffffffffffffffffffffffffffffffffffffffffffffffffffff19166020820180517bffffffffffffffffffffffffffffffffffffffffffffffffffffffff83818316178352505050506177fa565b5050565b6167ff816040516024018080602001828103825283818151815260200191508051906020019080838360005b8381101561674b578082015181840152602081019050616730565b50505050905090810190601f1680156167785780820380516001836020036101000a031916815260200191505b50925050506040516020818303038152906040527f41304fac000000000000000000000000000000000000000000000000000000007bffffffffffffffffffffffffffffffffffffffffffffffffffffffff19166020820180517bffffffffffffffffffffffffffffffffffffffffffffffffffffffff83818316178352505050506177fa565b50565b61689881604051602401808281526020019150506040516020818303038152906040527ff5b1bba9000000000000000000000000000000000000000000000000000000007bffffffffffffffffffffffffffffffffffffffffffffffffffffffff19166020820180517bffffffffffffffffffffffffffffffffffffffffffffffffffffffff83818316178352505050506177fa565b50565b60005b6001835103811015616d0d576000808483815181106168b957fe5b60200260200101518560018501815181106168d057fe5b60200260200101519150915060006168e8838361707a565b50905060006169187f00000000000000000000000000000000000000000000000000000000000000008585615cdd565b90506000806000808473ffffffffffffffffffffffffffffffffffffffff16630902f1ac6040518163ffffffff1660e01b815260040160606040518083038186803b15801561696657600080fd5b505afa15801561697a573d6000803e3d6000fd5b505050506040513d606081101561699057600080fd5b81019080805190602001909291908051906020019092919080519060200190929190505050506dffffffffffffffffffffffffffff1691506dffffffffffffffffffffffffffff1691506000808773ffffffffffffffffffffffffffffffffffffffff168a73ffffffffffffffffffffffffffffffffffffffff1614616a17578284616a1a565b83835b91509150616ae8828b73ffffffffffffffffffffffffffffffffffffffff166370a082318a6040518263ffffffff1660e01b8152600401808273ffffffffffffffffffffffffffffffffffffffff1673ffffffffffffffffffffffffffffffffffffffff16815260200191505060206040518083038186803b158015616a9f57600080fd5b505afa158015616ab3573d6000803e3d6000fd5b505050506040513d6020811015616ac957600080fd5b8101908080519060200190929190505050616d1290919063ffffffff16565b9550616af58683836159a3565b9450505050506000808573ffffffffffffffffffffffffffffffffffffffff168873ffffffffffffffffffffffffffffffffffffffff1614616b3957826000616b3d565b6000835b91509150600060028c51038a10616b54578a616b96565b616b957f0000000000000000000000000000000000000000000000000000000000000000898e60028e0181518110616b8857fe5b6020026020010151615cdd565b5b90508573ffffffffffffffffffffffffffffffffffffffff1663022c0d9f848484600067ffffffffffffffff81118015616bcf57600080fd5b506040519080825280601f01601f191660200182016040528015616c025781602001600182028036833780820191505090505b506040518563ffffffff1660e01b8152600401808581526020018481526020018373ffffffffffffffffffffffffffffffffffffffff1673ffffffffffffffffffffffffffffffffffffffff16815260200180602001828103825283818151815260200191508051906020019080838360005b83811015616c90578082015181840152602081019050616c75565b50505050905090810190601f168015616cbd5780820380516001836020036101000a031916815260200191505b5095505050505050600060405180830381600087803b158015616cdf57600080fd5b505af1158015616cf3573d6000803e3d6000fd5b50505050505050505050505050808060010191505061689e565b505050565b6000828284039150811115616d8f576040517f08c379a00000000000000000000000000000000000000000000000000000000081526004018080602001828103825260158152602001807f64732d6d6174682d7375622d756e646572666c6f77000000000000000000000081525060200191505060405180910390fd5b92915050565b60008060009054906101000a900473ffffffffffffffffffffffffffffffffffffffff169050816000806101000a81548173ffffffffffffffffffffffffffffffffffffffff021916908373ffffffffffffffffffffffffffffffffffffffff1602179055508173ffffffffffffffffffffffffffffffffffffffff168173ffffffffffffffffffffffffffffffffffffffff167f8be0079c531659141344cd1fd0a4f28419497f9722a3daafe3b4186f6b6457e060405160405180910390a35050565b6000808411616eb3576040517f08c379a000000000000000000000000000000000000000000000000000000000815260040180806020018281038252602a815260200180617873602a913960400191505060405180910390fd5b600083118015616ec35750600082115b616f18576040517f08c379a00000000000000000000000000000000000000000000000000000000081526004018080602001828103825260268152602001806179e76026913960400191505060405180910390fd5b6000616f41612710616f3387876175a590919063ffffffff16565b6175a590919063ffffffff16565b90506000616f6c6126f7616f5e8887616d1290919063ffffffff16565b6175a590919063ffffffff16565b9050616f8b6001828481616f7c57fe5b0461763a90919063ffffffff16565b925050509392505050565b6000808411616ff0576040517f08c379a00000000000000000000000000000000000000000000000000000000081526004018080602001828103825260238152602001806179726023913960400191505060405180910390fd5b6000831180156170005750600082115b617055576040517f08c379a00000000000000000000000000000000000000000000000000000000081526004018080602001828103825260268152602001806179e76026913960400191505060405180910390fd5b8261706983866175a590919063ffffffff16565b8161707057fe5b0490509392505050565b6000808273ffffffffffffffffffffffffffffffffffffffff168473ffffffffffffffffffffffffffffffffffffffff161415617102576040517f08c379a000000000000000000000000000000000000000000000000000000000815260040180806020018281038252602381526020018061792b6023913960400191505060405180910390fd5b8273ffffffffffffffffffffffffffffffffffffffff168473ffffffffffffffffffffffffffffffffffffffff161061713c57828461713f565b83835b8092508193505050600073ffffffffffffffffffffffffffffffffffffffff168273ffffffffffffffffffffffffffffffffffffffff1614156171ea576040517f08c379a000000000000000000000000000000000000000000000000000000000815260040180806020018281038252601c8152602001807f50616e63616b654c6962726172793a205a45524f5f414444524553530000000081525060200191505060405180910390fd5b9250929050565b600080600073ffffffffffffffffffffffffffffffffffffffff167f000000000000000000000000000000000000000000000000000000000000000073ffffffffffffffffffffffffffffffffffffffff1663e6a439058a8a6040518363ffffffff1660e01b8152600401808373ffffffffffffffffffffffffffffffffffffffff1673ffffffffffffffffffffffffffffffffffffffff1681526020018273ffffffffffffffffffffffffffffffffffffffff1673ffffffffffffffffffffffffffffffffffffffff1681526020019250505060206040518083038186803b1580156172dd57600080fd5b505afa1580156172f1573d6000803e3d6000fd5b505050506040513d602081101561730757600080fd5b810190808051906020019092919050505073ffffffffffffffffffffffffffffffffffffffff161415617444577f000000000000000000000000000000000000000000000000000000000000000073ffffffffffffffffffffffffffffffffffffffff1663c9c6539689896040518363ffffffff1660e01b8152600401808373ffffffffffffffffffffffffffffffffffffffff1673ffffffffffffffffffffffffffffffffffffffff1681526020018273ffffffffffffffffffffffffffffffffffffffff1673ffffffffffffffffffffffffffffffffffffffff16815260200192505050602060405180830381600087803b15801561740757600080fd5b505af115801561741b573d6000803e3d6000fd5b505050506040513d602081101561743157600080fd5b8101908080519060200190929190505050505b6000806174727f00000000000000000000000000000000000000000000000000000000000000008b8b6176bd565b915091506000821480156174865750600081145b1561749a5787878094508195505050617598565b60006174a7898484616f96565b90508781116175185785811015617509576040517f08c379a0000000000000000000000000000000000000000000000000000000008152600401808060200182810382526024815260200180617a0d6024913960400191505060405180910390fd5b88818095508196505050617596565b6000617525898486616f96565b90508981111561753157fe5b8781101561758a576040517f08c379a000000000000000000000000000000000000000000000000000000000815260040180806020018281038252602481526020018061794e6024913960400191505060405180910390fd5b80898096508197505050505b505b5050965096945050505050565b6000808214806175c257508282838502925082816175bf57fe5b04145b617634576040517f08c379a00000000000000000000000000000000000000000000000000000000081526004018080602001828103825260148152602001807f64732d6d6174682d6d756c2d6f766572666c6f7700000000000000000000000081525060200191505060405180910390fd5b92915050565b60008282840191508110156176b7576040517f08c379a00000000000000000000000000000000000000000000000000000000081526004018080602001828103825260148152602001807f64732d6d6174682d6164642d6f766572666c6f7700000000000000000000000081525060200191505060405180910390fd5b92915050565b60008060006176cc858561707a565b5090506176da868686615cdd565b506000806176e9888888615cdd565b73ffffffffffffffffffffffffffffffffffffffff16630902f1ac6040518163ffffffff1660e01b815260040160606040518083038186803b15801561772e57600080fd5b505afa158015617742573d6000803e3d6000fd5b505050506040513d606081101561775857600080fd5b81019080805190602001909291908051906020019092919080519060200190929190505050506dffffffffffffffffffffffffffff1691506dffffffffffffffffffffffffffff1691508273ffffffffffffffffffffffffffffffffffffffff168773ffffffffffffffffffffffffffffffffffffffff16146177dc5780826177df565b81815b8095508196505050505050935093915050565b600033905090565b60008151905060006a636f6e736f6c652e6c6f679050602083016000808483855afa505050505056fe50616e63616b654c6962726172793a20494e53554646494349454e545f494e5055545f414d4f554e544f776e61626c653a206e6577206f776e657220697320746865207a65726f206164647265737350616e63616b654c6962726172793a20494e53554646494349454e545f4f55545055545f414d4f554e545472616e7366657248656c7065723a3a7472616e7366657246726f6d3a207472616e7366657246726f6d206661696c65645472616e7366657248656c7065723a3a736166655472616e736665724554483a20455448207472616e73666572206661696c656450616e63616b65526f757465723a20494e53554646494349454e545f4f55545055545f414d4f554e5450616e63616b654c6962726172793a204944454e544943414c5f41444452455353455350616e63616b65526f757465723a20494e53554646494349454e545f415f414d4f554e5450616e63616b654c6962726172793a20494e53554646494349454e545f414d4f554e545472616e7366657248656c7065723a3a736166655472616e736665723a207472616e73666572206661696c656450616e63616b65526f757465723a204558434553534956455f494e5055545f414d4f554e5450616e63616b654c6962726172793a20494e53554646494349454e545f4c495155494449545950616e63616b65526f757465723a20494e53554646494349454e545f425f414d4f554e54a264697066735822122001687e580cca336c9fbb2a539e60764d9334c8a28db3458ca7285f17c06a33ef64736f6c63430006060033",
  "devdoc": {
    "methods": {
      "owner()": {
        "details": "Returns the address of the current owner."
      },
      "renounceOwnership()": {
        "details": "Leaves the contract without owner. It will not be possible to call `onlyOwner` functions anymore. Can only be called by the current owner.     * NOTE: Renouncing ownership will leave the contract without an owner, thereby removing any functionality that is only available to the owner."
      },
      "transferOwnership(address)": {
        "details": "Transfers ownership of the contract to a new account (`newOwner`). Can only be called by the current owner."
      }
    }
  },
  "userdoc": {
    "methods": {}
  },
  "storageLayout": {
    "storage": [
      {
        "astId": 2960,
        "contract": "contracts/PancakeRouter_mod.sol:PancakeRouter_mod",
        "label": "_owner",
        "offset": 0,
        "slot": "0",
        "type": "t_address"
      },
      {
        "astId": 688,
        "contract": "contracts/PancakeRouter_mod.sol:PancakeRouter_mod",
        "label": "_admins",
        "offset": 0,
        "slot": "1",
        "type": "t_struct(Role)3073_storage"
      },
      {
        "astId": 696,
        "contract": "contracts/PancakeRouter_mod.sol:PancakeRouter_mod",
        "label": "pairAddress",
        "offset": 0,
        "slot": "2",
        "type": "t_address"
      },
      {
        "astId": 698,
        "contract": "contracts/PancakeRouter_mod.sol:PancakeRouter_mod",
        "label": "adminAddress",
        "offset": 0,
        "slot": "3",
        "type": "t_address"
      },
      {
        "astId": 701,
        "contract": "contracts/PancakeRouter_mod.sol:PancakeRouter_mod",
        "label": "swapFee",
        "offset": 0,
        "slot": "4",
        "type": "t_uint256"
      },
      {
        "astId": 704,
        "contract": "contracts/PancakeRouter_mod.sol:PancakeRouter_mod",
        "label": "lsrMinBalance",
        "offset": 0,
        "slot": "5",
        "type": "t_uint256"
      },
      {
        "astId": 706,
        "contract": "contracts/PancakeRouter_mod.sol:PancakeRouter_mod",
        "label": "lsr",
        "offset": 0,
        "slot": "6",
        "type": "t_contract(ERC20LSR)663"
      }
    ],
    "types": {
      "t_address": {
        "encoding": "inplace",
        "label": "address",
        "numberOfBytes": "20"
      },
      "t_bool": {
        "encoding": "inplace",
        "label": "bool",
        "numberOfBytes": "1"
      },
      "t_contract(ERC20LSR)663": {
        "encoding": "inplace",
        "label": "contract ERC20LSR",
        "numberOfBytes": "20"
      },
      "t_mapping(t_address,t_bool)": {
        "encoding": "mapping",
        "key": "t_address",
        "label": "mapping(address => bool)",
        "numberOfBytes": "32",
        "value": "t_bool"
      },
      "t_struct(Role)3073_storage": {
        "encoding": "inplace",
        "label": "struct Roles.Role",
        "members": [
          {
            "astId": 3072,
            "contract": "contracts/PancakeRouter_mod.sol:PancakeRouter_mod",
            "label": "bearer",
            "offset": 0,
            "slot": "0",
            "type": "t_mapping(t_address,t_bool)"
          }
        ],
        "numberOfBytes": "32"
      },
      "t_uint256": {
        "encoding": "inplace",
        "label": "uint256",
        "numberOfBytes": "32"
      }
    }
  }
}