{
  "address": "0x0165878A594ca255338adfa4d48449f69242Eb8F",
  "abi": [
    {
      "inputs": [
        {
          "internalType": "address",
          "name": "_factory",
          "type": "address"
        },
        {
          "internalType": "address",
          "name": "_WETH",
          "type": "address"
        }
      ],
      "stateMutability": "nonpayable",
      "type": "constructor"
    },
    {
      "inputs": [],
      "name": "WETH",
      "outputs": [
        {
          "internalType": "address",
          "name": "",
          "type": "address"
        }
      ],
      "stateMutability": "view",
      "type": "function"
    },
    {
      "inputs": [
        {
          "internalType": "address",
          "name": "tokenA",
          "type": "address"
        },
        {
          "internalType": "address",
          "name": "tokenB",
          "type": "address"
        },
        {
          "internalType": "uint256",
          "name": "amountADesired",
          "type": "uint256"
        },
        {
          "internalType": "uint256",
          "name": "amountBDesired",
          "type": "uint256"
        },
        {
          "internalType": "uint256",
          "name": "amountAMin",
          "type": "uint256"
        },
        {
          "internalType": "uint256",
          "name": "amountBMin",
          "type": "uint256"
        },
        {
          "internalType": "address",
          "name": "to",
          "type": "address"
        },
        {
          "internalType": "uint256",
          "name": "deadline",
          "type": "uint256"
        }
      ],
      "name": "addLiquidity",
      "outputs": [
        {
          "internalType": "uint256",
          "name": "amountA",
          "type": "uint256"
        },
        {
          "internalType": "uint256",
          "name": "amountB",
          "type": "uint256"
        },
        {
          "internalType": "uint256",
          "name": "liquidity",
          "type": "uint256"
        }
      ],
      "stateMutability": "nonpayable",
      "type": "function"
    },
    {
      "inputs": [
        {
          "internalType": "address",
          "name": "token",
          "type": "address"
        },
        {
          "internalType": "uint256",
          "name": "amountTokenDesired",
          "type": "uint256"
        },
        {
          "internalType": "uint256",
          "name": "amountTokenMin",
          "type": "uint256"
        },
        {
          "internalType": "uint256",
          "name": "amountETHMin",
          "type": "uint256"
        },
        {
          "internalType": "address",
          "name": "to",
          "type": "address"
        },
        {
          "internalType": "uint256",
          "name": "deadline",
          "type": "uint256"
        }
      ],
      "name": "addLiquidityETH",
      "outputs": [
        {
          "internalType": "uint256",
          "name": "amountToken",
          "type": "uint256"
        },
        {
          "internalType": "uint256",
          "name": "amountETH",
          "type": "uint256"
        },
        {
          "internalType": "uint256",
          "name": "liquidity",
          "type": "uint256"
        }
      ],
      "stateMutability": "payable",
      "type": "function"
    },
    {
      "inputs": [],
      "name": "factory",
      "outputs": [
        {
          "internalType": "address",
          "name": "",
          "type": "address"
        }
      ],
      "stateMutability": "view",
      "type": "function"
    },
    {
      "inputs": [
        {
          "internalType": "uint256",
          "name": "amountOut",
          "type": "uint256"
        },
        {
          "internalType": "uint256",
          "name": "reserveIn",
          "type": "uint256"
        },
        {
          "internalType": "uint256",
          "name": "reserveOut",
          "type": "uint256"
        }
      ],
      "name": "getAmountIn",
      "outputs": [
        {
          "internalType": "uint256",
          "name": "amountIn",
          "type": "uint256"
        }
      ],
      "stateMutability": "pure",
      "type": "function"
    },
    {
      "inputs": [
        {
          "internalType": "uint256",
          "name": "amountIn",
          "type": "uint256"
        },
        {
          "internalType": "uint256",
          "name": "reserveIn",
          "type": "uint256"
        },
        {
          "internalType": "uint256",
          "name": "reserveOut",
          "type": "uint256"
        }
      ],
      "name": "getAmountOut",
      "outputs": [
        {
          "internalType": "uint256",
          "name": "amountOut",
          "type": "uint256"
        }
      ],
      "stateMutability": "pure",
      "type": "function"
    },
    {
      "inputs": [
        {
          "internalType": "uint256",
          "name": "amountOut",
          "type": "uint256"
        },
        {
          "internalType": "address[]",
          "name": "path",
          "type": "address[]"
        }
      ],
      "name": "getAmountsIn",
      "outputs": [
        {
          "internalType": "uint256[]",
          "name": "amounts",
          "type": "uint256[]"
        }
      ],
      "stateMutability": "view",
      "type": "function"
    },
    {
      "inputs": [
        {
          "internalType": "uint256",
          "name": "amountIn",
          "type": "uint256"
        },
        {
          "internalType": "address[]",
          "name": "path",
          "type": "address[]"
        }
      ],
      "name": "getAmountsOut",
      "outputs": [
        {
          "internalType": "uint256[]",
          "name": "amounts",
          "type": "uint256[]"
        }
      ],
      "stateMutability": "view",
      "type": "function"
    },
    {
      "inputs": [],
      "name": "pairAddress",
      "outputs": [
        {
          "internalType": "address",
          "name": "",
          "type": "address"
        }
      ],
      "stateMutability": "view",
      "type": "function"
    },
    {
      "inputs": [
        {
          "internalType": "uint256",
          "name": "amountA",
          "type": "uint256"
        },
        {
          "internalType": "uint256",
          "name": "reserveA",
          "type": "uint256"
        },
        {
          "internalType": "uint256",
          "name": "reserveB",
          "type": "uint256"
        }
      ],
      "name": "quote",
      "outputs": [
        {
          "internalType": "uint256",
          "name": "amountB",
          "type": "uint256"
        }
      ],
      "stateMutability": "pure",
      "type": "function"
    },
    {
      "inputs": [
        {
          "internalType": "address",
          "name": "tokenA",
          "type": "address"
        },
        {
          "internalType": "address",
          "name": "tokenB",
          "type": "address"
        },
        {
          "internalType": "uint256",
          "name": "liquidity",
          "type": "uint256"
        },
        {
          "internalType": "uint256",
          "name": "amountAMin",
          "type": "uint256"
        },
        {
          "internalType": "uint256",
          "name": "amountBMin",
          "type": "uint256"
        },
        {
          "internalType": "address",
          "name": "to",
          "type": "address"
        },
        {
          "internalType": "uint256",
          "name": "deadline",
          "type": "uint256"
        }
      ],
      "name": "removeLiquidity",
      "outputs": [
        {
          "internalType": "uint256",
          "name": "amountA",
          "type": "uint256"
        },
        {
          "internalType": "uint256",
          "name": "amountB",
          "type": "uint256"
        }
      ],
      "stateMutability": "nonpayable",
      "type": "function"
    },
    {
      "inputs": [
        {
          "internalType": "address",
          "name": "token",
          "type": "address"
        },
        {
          "internalType": "uint256",
          "name": "liquidity",
          "type": "uint256"
        },
        {
          "internalType": "uint256",
          "name": "amountTokenMin",
          "type": "uint256"
        },
        {
          "internalType": "uint256",
          "name": "amountETHMin",
          "type": "uint256"
        },
        {
          "internalType": "address",
          "name": "to",
          "type": "address"
        },
        {
          "internalType": "uint256",
          "name": "deadline",
          "type": "uint256"
        }
      ],
      "name": "removeLiquidityETH",
      "outputs": [
        {
          "internalType": "uint256",
          "name": "amountToken",
          "type": "uint256"
        },
        {
          "internalType": "uint256",
          "name": "amountETH",
          "type": "uint256"
        }
      ],
      "stateMutability": "nonpayable",
      "type": "function"
    },
    {
      "inputs": [
        {
          "internalType": "address",
          "name": "token",
          "type": "address"
        },
        {
          "internalType": "uint256",
          "name": "liquidity",
          "type": "uint256"
        },
        {
          "internalType": "uint256",
          "name": "amountTokenMin",
          "type": "uint256"
        },
        {
          "internalType": "uint256",
          "name": "amountETHMin",
          "type": "uint256"
        },
        {
          "internalType": "address",
          "name": "to",
          "type": "address"
        },
        {
          "internalType": "uint256",
          "name": "deadline",
          "type": "uint256"
        }
      ],
      "name": "removeLiquidityETHSupportingFeeOnTransferTokens",
      "outputs": [
        {
          "internalType": "uint256",
          "name": "amountETH",
          "type": "uint256"
        }
      ],
      "stateMutability": "nonpayable",
      "type": "function"
    },
    {
      "inputs": [
        {
          "internalType": "address",
          "name": "token",
          "type": "address"
        },
        {
          "internalType": "uint256",
          "name": "liquidity",
          "type": "uint256"
        },
        {
          "internalType": "uint256",
          "name": "amountTokenMin",
          "type": "uint256"
        },
        {
          "internalType": "uint256",
          "name": "amountETHMin",
          "type": "uint256"
        },
        {
          "internalType": "address",
          "name": "to",
          "type": "address"
        },
        {
          "internalType": "uint256",
          "name": "deadline",
          "type": "uint256"
        },
        {
          "internalType": "bool",
          "name": "approveMax",
          "type": "bool"
        },
        {
          "internalType": "uint8",
          "name": "v",
          "type": "uint8"
        },
        {
          "internalType": "bytes32",
          "name": "r",
          "type": "bytes32"
        },
        {
          "internalType": "bytes32",
          "name": "s",
          "type": "bytes32"
        }
      ],
      "name": "removeLiquidityETHWithPermit",
      "outputs": [
        {
          "internalType": "uint256",
          "name": "amountToken",
          "type": "uint256"
        },
        {
          "internalType": "uint256",
          "name": "amountETH",
          "type": "uint256"
        }
      ],
      "stateMutability": "nonpayable",
      "type": "function"
    },
    {
      "inputs": [
        {
          "internalType": "address",
          "name": "token",
          "type": "address"
        },
        {
          "internalType": "uint256",
          "name": "liquidity",
          "type": "uint256"
        },
        {
          "internalType": "uint256",
          "name": "amountTokenMin",
          "type": "uint256"
        },
        {
          "internalType": "uint256",
          "name": "amountETHMin",
          "type": "uint256"
        },
        {
          "internalType": "address",
          "name": "to",
          "type": "address"
        },
        {
          "internalType": "uint256",
          "name": "deadline",
          "type": "uint256"
        },
        {
          "internalType": "bool",
          "name": "approveMax",
          "type": "bool"
        },
        {
          "internalType": "uint8",
          "name": "v",
          "type": "uint8"
        },
        {
          "internalType": "bytes32",
          "name": "r",
          "type": "bytes32"
        },
        {
          "internalType": "bytes32",
          "name": "s",
          "type": "bytes32"
        }
      ],
      "name": "removeLiquidityETHWithPermitSupportingFeeOnTransferTokens",
      "outputs": [
        {
          "internalType": "uint256",
          "name": "amountETH",
          "type": "uint256"
        }
      ],
      "stateMutability": "nonpayable",
      "type": "function"
    },
    {
      "inputs": [
        {
          "internalType": "address",
          "name": "tokenA",
          "type": "address"
        },
        {
          "internalType": "address",
          "name": "tokenB",
          "type": "address"
        },
        {
          "internalType": "uint256",
          "name": "liquidity",
          "type": "uint256"
        },
        {
          "internalType": "uint256",
          "name": "amountAMin",
          "type": "uint256"
        },
        {
          "internalType": "uint256",
          "name": "amountBMin",
          "type": "uint256"
        },
        {
          "internalType": "address",
          "name": "to",
          "type": "address"
        },
        {
          "internalType": "uint256",
          "name": "deadline",
          "type": "uint256"
        },
        {
          "internalType": "bool",
          "name": "approveMax",
          "type": "bool"
        },
        {
          "internalType": "uint8",
          "name": "v",
          "type": "uint8"
        },
        {
          "internalType": "bytes32",
          "name": "r",
          "type": "bytes32"
        },
        {
          "internalType": "bytes32",
          "name": "s",
          "type": "bytes32"
        }
      ],
      "name": "removeLiquidityWithPermit",
      "outputs": [
        {
          "internalType": "uint256",
          "name": "amountA",
          "type": "uint256"
        },
        {
          "internalType": "uint256",
          "name": "amountB",
          "type": "uint256"
        }
      ],
      "stateMutability": "nonpayable",
      "type": "function"
    },
    {
      "inputs": [
        {
          "internalType": "address",
          "name": "_pair",
          "type": "address"
        }
      ],
      "name": "setPairAddress",
      "outputs": [],
      "stateMutability": "nonpayable",
      "type": "function"
    },
    {
      "inputs": [
        {
          "internalType": "uint256",
          "name": "amountOut",
          "type": "uint256"
        },
        {
          "internalType": "address[]",
          "name": "path",
          "type": "address[]"
        },
        {
          "internalType": "address",
          "name": "to",
          "type": "address"
        },
        {
          "internalType": "uint256",
          "name": "deadline",
          "type": "uint256"
        }
      ],
      "name": "swapETHForExactTokens",
      "outputs": [
        {
          "internalType": "uint256[]",
          "name": "amounts",
          "type": "uint256[]"
        }
      ],
      "stateMutability": "payable",
      "type": "function"
    },
    {
      "inputs": [
        {
          "internalType": "uint256",
          "name": "amountOutMin",
          "type": "uint256"
        },
        {
          "internalType": "address[]",
          "name": "path",
          "type": "address[]"
        },
        {
          "internalType": "address",
          "name": "to",
          "type": "address"
        },
        {
          "internalType": "uint256",
          "name": "deadline",
          "type": "uint256"
        }
      ],
      "name": "swapExactETHForTokens",
      "outputs": [
        {
          "internalType": "uint256[]",
          "name": "amounts",
          "type": "uint256[]"
        }
      ],
      "stateMutability": "payable",
      "type": "function"
    },
    {
      "inputs": [
        {
          "internalType": "uint256",
          "name": "amountOutMin",
          "type": "uint256"
        },
        {
          "internalType": "address[]",
          "name": "path",
          "type": "address[]"
        },
        {
          "internalType": "address",
          "name": "to",
          "type": "address"
        },
        {
          "internalType": "uint256",
          "name": "deadline",
          "type": "uint256"
        }
      ],
      "name": "swapExactETHForTokensSupportingFeeOnTransferTokens",
      "outputs": [],
      "stateMutability": "payable",
      "type": "function"
    },
    {
      "inputs": [
        {
          "internalType": "uint256",
          "name": "amountIn",
          "type": "uint256"
        },
        {
          "internalType": "uint256",
          "name": "amountOutMin",
          "type": "uint256"
        },
        {
          "internalType": "address[]",
          "name": "path",
          "type": "address[]"
        },
        {
          "internalType": "address",
          "name": "to",
          "type": "address"
        },
        {
          "internalType": "uint256",
          "name": "deadline",
          "type": "uint256"
        }
      ],
      "name": "swapExactTokensForETH",
      "outputs": [
        {
          "internalType": "uint256[]",
          "name": "amounts",
          "type": "uint256[]"
        }
      ],
      "stateMutability": "nonpayable",
      "type": "function"
    },
    {
      "inputs": [
        {
          "internalType": "uint256",
          "name": "amountIn",
          "type": "uint256"
        },
        {
          "internalType": "uint256",
          "name": "amountOutMin",
          "type": "uint256"
        },
        {
          "internalType": "address[]",
          "name": "path",
          "type": "address[]"
        },
        {
          "internalType": "address",
          "name": "to",
          "type": "address"
        },
        {
          "internalType": "uint256",
          "name": "deadline",
          "type": "uint256"
        }
      ],
      "name": "swapExactTokensForETHSupportingFeeOnTransferTokens",
      "outputs": [],
      "stateMutability": "nonpayable",
      "type": "function"
    },
    {
      "inputs": [
        {
          "internalType": "uint256",
          "name": "amountIn",
          "type": "uint256"
        },
        {
          "internalType": "uint256",
          "name": "amountOutMin",
          "type": "uint256"
        },
        {
          "internalType": "address[]",
          "name": "path",
          "type": "address[]"
        },
        {
          "internalType": "address",
          "name": "to",
          "type": "address"
        },
        {
          "internalType": "uint256",
          "name": "deadline",
          "type": "uint256"
        }
      ],
      "name": "swapExactTokensForTokens",
      "outputs": [
        {
          "internalType": "uint256[]",
          "name": "amounts",
          "type": "uint256[]"
        }
      ],
      "stateMutability": "payable",
      "type": "function"
    },
    {
      "inputs": [
        {
          "internalType": "uint256",
          "name": "amountIn",
          "type": "uint256"
        },
        {
          "internalType": "uint256",
          "name": "amountOutMin",
          "type": "uint256"
        },
        {
          "internalType": "address[]",
          "name": "path",
          "type": "address[]"
        },
        {
          "internalType": "address",
          "name": "to",
          "type": "address"
        },
        {
          "internalType": "uint256",
          "name": "deadline",
          "type": "uint256"
        }
      ],
      "name": "swapExactTokensForTokensSupportingFeeOnTransferTokens",
      "outputs": [],
      "stateMutability": "payable",
      "type": "function"
    },
    {
      "inputs": [
        {
          "internalType": "uint256",
          "name": "amountOut",
          "type": "uint256"
        },
        {
          "internalType": "uint256",
          "name": "amountInMax",
          "type": "uint256"
        },
        {
          "internalType": "address[]",
          "name": "path",
          "type": "address[]"
        },
        {
          "internalType": "address",
          "name": "to",
          "type": "address"
        },
        {
          "internalType": "uint256",
          "name": "deadline",
          "type": "uint256"
        }
      ],
      "name": "swapTokensForExactETH",
      "outputs": [
        {
          "internalType": "uint256[]",
          "name": "amounts",
          "type": "uint256[]"
        }
      ],
      "stateMutability": "nonpayable",
      "type": "function"
    },
    {
      "inputs": [
        {
          "internalType": "uint256",
          "name": "amountOut",
          "type": "uint256"
        },
        {
          "internalType": "uint256",
          "name": "amountInMax",
          "type": "uint256"
        },
        {
          "internalType": "address[]",
          "name": "path",
          "type": "address[]"
        },
        {
          "internalType": "address",
          "name": "to",
          "type": "address"
        },
        {
          "internalType": "uint256",
          "name": "deadline",
          "type": "uint256"
        }
      ],
      "name": "swapTokensForExactTokens",
      "outputs": [
        {
          "internalType": "uint256[]",
          "name": "amounts",
          "type": "uint256[]"
        }
      ],
      "stateMutability": "nonpayable",
      "type": "function"
    },
    {
      "stateMutability": "payable",
      "type": "receive"
    }
  ],
  "transactionHash": "0x4fbeb8d233fa7d57b43fa8ed7d9eed8b0a0b0fad91e107d81d00166b87bba538",
  "args": [
    "0xDc64a140Aa3E981100a9becA4E685f962f0cF6C9",
    "0x0000000000000000000000000000000000000000"
  ],
  "numDeployments": 1,
  "solcInputHash": "83ecd918593d40c5f73271ad7639100d",
  "bytecode": "0x60c06040523480156200001157600080fd5b50604051620070e6380380620070e6833981810160405260408110156200003757600080fd5b8101908080519060200190929190805190602001909291905050508173ffffffffffffffffffffffffffffffffffffffff1660808173ffffffffffffffffffffffffffffffffffffffff1660601b815250508073ffffffffffffffffffffffffffffffffffffffff1660a08173ffffffffffffffffffffffffffffffffffffffff1660601b81525050505060805160601c60a05160601c616ed86200020e6000398061018c5280611638528061167652806117a65280611a845280612185528061246052806125565280612af65280612ce35280612e165280612f2e52806130f6528061318b528061364752806136fe52806137f1528061390852806139f75280613a78528061426f528061460d5280614666528061469a528061471b528061495b5280614b205280614bb552508061189852806119a45280611b575280611b8f5280611d885280611f15528061202152806122775280612380528061253452806127705280612c16528061301b52806131ca52806133eb52806134f45280613ab75280613eea52806141ec5280614215528061424d528061447f52806146445280614a485280614bf452806157d6528061581a5280615d265280615f8d528061657e52806166a652806167bc5250616ed86000f3fe6080604052600436106101855760003560e01c8063a22d4832116100d1578063baa2abde1161008a578063ded9382a11610064578063ded9382a14611240578063e8e3370014611322578063f305d71914611408578063fb3bdb41146114b6576101e1565b8063baa2abde14610ff1578063c45a0155146110c5578063d06ca61f1461111c576101e1565b8063a22d483214610d35578063a8b0898214610d86578063ad5c464814610ddd578063ad615dec14610e34578063af2979eb14610e97578063b6f9de9514610f44576101e1565b80634a25d94a1161013e578063791ac94711610118578063791ac947146109f35780637ff36ab514610ab757806385f8c25914610bb95780638803dbee14610c1c576101e1565b80634a25d94a146107485780635b0d5984146108615780635c11d7951461093c576101e1565b806302751cec146101e6578063054d50d41461029a57806318cbafe5146102fd5780631f00ca74146104165780632195995c1461053a57806338ed17391461063c576101e1565b366101e1577f000000000000000000000000000000000000000000000000000000000000000073ffffffffffffffffffffffffffffffffffffffff163373ffffffffffffffffffffffffffffffffffffffff16146101df57fe5b005b600080fd5b3480156101f257600080fd5b5061027d600480360360c081101561020957600080fd5b81019080803573ffffffffffffffffffffffffffffffffffffffff169060200190929190803590602001909291908035906020019092919080359060200190929190803573ffffffffffffffffffffffffffffffffffffffff169060200190929190803590602001909291905050506115b8565b604051808381526020018281526020019250505060405180910390f35b3480156102a657600080fd5b506102e7600480360360608110156102bd57600080fd5b81019080803590602001909291908035906020019092919080359060200190929190505050611715565b6040518082815260200191505060405180910390f35b34801561030957600080fd5b506103bf600480360360a081101561032057600080fd5b8101908080359060200190929190803590602001909291908035906020019064010000000081111561035157600080fd5b82018360208201111561036357600080fd5b8035906020019184602083028401116401000000008311171561038557600080fd5b9091929391929390803573ffffffffffffffffffffffffffffffffffffffff1690602001909291908035906020019092919050505061172b565b6040518080602001828103825283818151815260200191508051906020019060200280838360005b838110156104025780820151818401526020810190506103e7565b505050509050019250505060405180910390f35b34801561042257600080fd5b506104e36004803603604081101561043957600080fd5b81019080803590602001909291908035906020019064010000000081111561046057600080fd5b82018360208201111561047257600080fd5b8035906020019184602083028401116401000000008311171561049457600080fd5b919080806020026020016040519081016040528093929190818152602001838360200280828437600081840152601f19601f820116905080830192505050505050509192919290505050611b50565b6040518080602001828103825283818151815260200191508051906020019060200280838360005b8381101561052657808201518184015260208101905061050b565b505050509050019250505060405180910390f35b34801561054657600080fd5b5061061f600480360361016081101561055e57600080fd5b81019080803573ffffffffffffffffffffffffffffffffffffffff169060200190929190803573ffffffffffffffffffffffffffffffffffffffff169060200190929190803590602001909291908035906020019092919080359060200190929190803573ffffffffffffffffffffffffffffffffffffffff16906020019092919080359060200190929190803515159060200190929190803560ff1690602001909291908035906020019092919080359060200190929190505050611b85565b604051808381526020018281526020019250505060405180910390f35b6106f1600480360360a081101561065257600080fd5b8101908080359060200190929190803590602001909291908035906020019064010000000081111561068357600080fd5b82018360208201111561069557600080fd5b803590602001918460208302840111640100000000831117156106b757600080fd5b9091929391929390803573ffffffffffffffffffffffffffffffffffffffff16906020019092919080359060200190929190505050611d0a565b6040518080602001828103825283818151815260200191508051906020019060200280838360005b83811015610734578082015181840152602081019050610719565b505050509050019250505060405180910390f35b34801561075457600080fd5b5061080a600480360360a081101561076b57600080fd5b8101908080359060200190929190803590602001909291908035906020019064010000000081111561079c57600080fd5b8201836020820111156107ae57600080fd5b803590602001918460208302840111640100000000831117156107d057600080fd5b9091929391929390803573ffffffffffffffffffffffffffffffffffffffff1690602001909291908035906020019092919050505061210a565b6040518080602001828103825283818151815260200191508051906020019060200280838360005b8381101561084d578082015181840152602081019050610832565b505050509050019250505060405180910390f35b34801561086d57600080fd5b50610926600480360361014081101561088557600080fd5b81019080803573ffffffffffffffffffffffffffffffffffffffff169060200190929190803590602001909291908035906020019092919080359060200190929190803573ffffffffffffffffffffffffffffffffffffffff16906020019092919080359060200190929190803515159060200190929190803560ff169060200190929190803590602001909291908035906020019092919050505061252c565b6040518082815260200191505060405180910390f35b6109f1600480360360a081101561095257600080fd5b8101908080359060200190929190803590602001909291908035906020019064010000000081111561098357600080fd5b82018360208201111561099557600080fd5b803590602001918460208302840111640100000000831117156109b757600080fd5b9091929391929390803573ffffffffffffffffffffffffffffffffffffffff169060200190929190803590602001909291905050506126c6565b005b3480156109ff57600080fd5b50610ab5600480360360a0811015610a1657600080fd5b81019080803590602001909291908035906020019092919080359060200190640100000000811115610a4757600080fd5b820183602082011115610a5957600080fd5b80359060200191846020830284011164010000000083111715610a7b57600080fd5b9091929391929390803573ffffffffffffffffffffffffffffffffffffffff16906020019092919080359060200190929190505050612a7d565b005b610b6260048036036080811015610acd57600080fd5b810190808035906020019092919080359060200190640100000000811115610af457600080fd5b820183602082011115610b0657600080fd5b80359060200191846020830284011164010000000083111715610b2857600080fd5b9091929391929390803573ffffffffffffffffffffffffffffffffffffffff16906020019092919080359060200190929190505050612eb3565b6040518080602001828103825283818151815260200191508051906020019060200280838360005b83811015610ba5578082015181840152602081019050610b8a565b505050509050019250505060405180910390f35b348015610bc557600080fd5b50610c0660048036036060811015610bdc57600080fd5b81019080803590602001909291908035906020019092919080359060200190929190505050613357565b6040518082815260200191505060405180910390f35b348015610c2857600080fd5b50610cde600480360360a0811015610c3f57600080fd5b81019080803590602001909291908035906020019092919080359060200190640100000000811115610c7057600080fd5b820183602082011115610c8257600080fd5b80359060200191846020830284011164010000000083111715610ca457600080fd5b9091929391929390803573ffffffffffffffffffffffffffffffffffffffff1690602001909291908035906020019092919050505061336d565b6040518080602001828103825283818151815260200191508051906020019060200280838360005b83811015610d21578082015181840152602081019050610d06565b505050509050019250505060405180910390f35b348015610d4157600080fd5b50610d8460048036036020811015610d5857600080fd5b81019080803573ffffffffffffffffffffffffffffffffffffffff1690602001909291905050506135dd565b005b348015610d9257600080fd5b50610d9b613620565b604051808273ffffffffffffffffffffffffffffffffffffffff1673ffffffffffffffffffffffffffffffffffffffff16815260200191505060405180910390f35b348015610de957600080fd5b50610df2613645565b604051808273ffffffffffffffffffffffffffffffffffffffff1673ffffffffffffffffffffffffffffffffffffffff16815260200191505060405180910390f35b348015610e4057600080fd5b50610e8160048036036060811015610e5757600080fd5b81019080803590602001909291908035906020019092919080359060200190929190505050613669565b6040518082815260200191505060405180910390f35b348015610ea357600080fd5b50610f2e600480360360c0811015610eba57600080fd5b81019080803573ffffffffffffffffffffffffffffffffffffffff169060200190929190803590602001909291908035906020019092919080359060200190929190803573ffffffffffffffffffffffffffffffffffffffff1690602001909291908035906020019092919050505061367f565b6040518082815260200191505060405180910390f35b610fef60048036036080811015610f5a57600080fd5b810190808035906020019092919080359060200190640100000000811115610f8157600080fd5b820183602082011115610f9357600080fd5b80359060200191846020830284011164010000000083111715610fb557600080fd5b9091929391929390803573ffffffffffffffffffffffffffffffffffffffff1690602001909291908035906020019092919050505061388f565b005b348015610ffd57600080fd5b506110a8600480360360e081101561101457600080fd5b81019080803573ffffffffffffffffffffffffffffffffffffffff169060200190929190803573ffffffffffffffffffffffffffffffffffffffff169060200190929190803590602001909291908035906020019092919080359060200190929190803573ffffffffffffffffffffffffffffffffffffffff16906020019092919080359060200190929190505050613e69565b604051808381526020018281526020019250505060405180910390f35b3480156110d157600080fd5b506110da6141ea565b604051808273ffffffffffffffffffffffffffffffffffffffff1673ffffffffffffffffffffffffffffffffffffffff16815260200191505060405180910390f35b34801561112857600080fd5b506111e96004803603604081101561113f57600080fd5b81019080803590602001909291908035906020019064010000000081111561116657600080fd5b82018360208201111561117857600080fd5b8035906020019184602083028401116401000000008311171561119a57600080fd5b919080806020026020016040519081016040528093929190818152602001838360200280828437600081840152601f19601f82011690508083019250505050505050919291929050505061420e565b6040518080602001828103825283818151815260200191508051906020019060200280838360005b8381101561122c578082015181840152602081019050611211565b505050509050019250505060405180910390f35b34801561124c57600080fd5b50611305600480360361014081101561126457600080fd5b81019080803573ffffffffffffffffffffffffffffffffffffffff169060200190929190803590602001909291908035906020019092919080359060200190929190803573ffffffffffffffffffffffffffffffffffffffff16906020019092919080359060200190929190803515159060200190929190803560ff1690602001909291908035906020019092919080359060200190929190505050614243565b604051808381526020018281526020019250505060405180910390f35b34801561132e57600080fd5b506113e4600480360361010081101561134657600080fd5b81019080803573ffffffffffffffffffffffffffffffffffffffff169060200190929190803573ffffffffffffffffffffffffffffffffffffffff16906020019092919080359060200190929190803590602001909291908035906020019092919080359060200190929190803573ffffffffffffffffffffffffffffffffffffffff169060200190929190803590602001909291905050506143e6565b60405180848152602001838152602001828152602001935050505060405180910390f35b611492600480360360c081101561141e57600080fd5b81019080803573ffffffffffffffffffffffffffffffffffffffff169060200190929190803590602001909291908035906020019092919080359060200190929190803573ffffffffffffffffffffffffffffffffffffffff1690602001909291908035906020019092919050505061458b565b60405180848152602001838152602001828152602001935050505060405180910390f35b611561600480360360808110156114cc57600080fd5b8101908080359060200190929190803590602001906401000000008111156114f357600080fd5b82018360208201111561150557600080fd5b8035906020019184602083028401116401000000008311171561152757600080fd5b9091929391929390803573ffffffffffffffffffffffffffffffffffffffff169060200190929190803590602001909291905050506148e0565b6040518080602001828103825283818151815260200191508051906020019060200280838360005b838110156115a4578082015181840152602081019050611589565b505050509050019250505060405180910390f35b6000808242811015611632576040517f08c379a00000000000000000000000000000000000000000000000000000000081526004018080602001828103825260168152602001807f50616e63616b65526f757465723a20455850495245440000000000000000000081525060200191505060405180910390fd5b611661897f00000000000000000000000000000000000000000000000000000000000000008a8a8a308a613e69565b8093508194505050611674898685614dbe565b7f000000000000000000000000000000000000000000000000000000000000000073ffffffffffffffffffffffffffffffffffffffff16632e1a7d4d836040518263ffffffff1660e01b815260040180828152602001915050600060405180830381600087803b1580156116e757600080fd5b505af11580156116fb573d6000803e3d6000fd5b505050506117098583614f9a565b50965096945050505050565b60006117228484846150f9565b90509392505050565b606081428110156117a4576040517f08c379a00000000000000000000000000000000000000000000000000000000081526004018080602001828103825260168152602001807f50616e63616b65526f757465723a20455850495245440000000000000000000081525060200191505060405180910390fd5b7f000000000000000000000000000000000000000000000000000000000000000073ffffffffffffffffffffffffffffffffffffffff168686600189899050038181106117ed57fe5b9050602002013573ffffffffffffffffffffffffffffffffffffffff1673ffffffffffffffffffffffffffffffffffffffff1614611893576040517f08c379a000000000000000000000000000000000000000000000000000000000815260040180806020018281038252601b8152602001807f50616e63616b65526f757465723a20494e56414c49445f50415448000000000081525060200191505060405180910390fd5b6118ff7f000000000000000000000000000000000000000000000000000000000000000089888880806020026020016040519081016040528093929190818152602001838360200280828437600081840152601f19601f82011690508083019250505050505050615229565b9150868260018451038151811061191257fe5b60200260200101511015611971576040517f08c379a0000000000000000000000000000000000000000000000000000000008152600401808060200182810382526029815260200180616d746029913960400191505060405180910390fd5b611a368686600081811061198157fe5b9050602002013573ffffffffffffffffffffffffffffffffffffffff1633611a1c7f00000000000000000000000000000000000000000000000000000000000000008a8a60008181106119d057fe5b9050602002013573ffffffffffffffffffffffffffffffffffffffff168b8b60018181106119fa57fe5b9050602002013573ffffffffffffffffffffffffffffffffffffffff166153a1565b85600081518110611a2957fe5b60200260200101516154fc565b611a8282878780806020026020016040519081016040528093929190818152602001838360200280828437600081840152601f19601f820116905080830192505050505050503061570d565b7f000000000000000000000000000000000000000000000000000000000000000073ffffffffffffffffffffffffffffffffffffffff16632e1a7d4d83600185510381518110611ace57fe5b60200260200101516040518263ffffffff1660e01b815260040180828152602001915050600060405180830381600087803b158015611b0c57600080fd5b505af1158015611b20573d6000803e3d6000fd5b50505050611b458483600185510381518110611b3857fe5b6020026020010151614f9a565b509695505050505050565b6060611b7d7f000000000000000000000000000000000000000000000000000000000000000084846159b8565b905092915050565b6000806000611bb57f00000000000000000000000000000000000000000000000000000000000000008f8f6153a1565b9050600087611bc4578c611be6565b7fffffffffffffffffffffffffffffffffffffffffffffffffffffffffffffffff5b90508173ffffffffffffffffffffffffffffffffffffffff1663d505accf3330848d8c8c8c6040518863ffffffff1660e01b8152600401808873ffffffffffffffffffffffffffffffffffffffff1673ffffffffffffffffffffffffffffffffffffffff1681526020018773ffffffffffffffffffffffffffffffffffffffff1673ffffffffffffffffffffffffffffffffffffffff1681526020018681526020018581526020018460ff1660ff168152602001838152602001828152602001975050505050505050600060405180830381600087803b158015611cc957600080fd5b505af1158015611cdd573d6000803e3d6000fd5b50505050611cf08f8f8f8f8f8f8f613e69565b809450819550505050509b509b9950505050505050505050565b60608142811015611d83576040517f08c379a00000000000000000000000000000000000000000000000000000000081526004018080602001828103825260168152602001807f50616e63616b65526f757465723a20455850495245440000000000000000000081525060200191505060405180910390fd5b611def7f000000000000000000000000000000000000000000000000000000000000000089888880806020026020016040519081016040528093929190818152602001838360200280828437600081840152601f19601f82011690508083019250505050505050615229565b9150611e2f6040518060400160405280600781526020017f6462677374727400000000000000000000000000000000000000000000000000815250615b38565b611e398251615c36565b611e5982600184510381518110611e4c57fe5b6020026020010151615c36565b611e6287615c36565b611ea06040518060400160405280600681526020017f646267656e640000000000000000000000000000000000000000000000000000815250615b38565b8682600184510381518110611eb157fe5b60200260200101511015611f10576040517f08c379a0000000000000000000000000000000000000000000000000000000008152600401808060200182810382526029815260200180616d746029913960400191505060405180910390fd5b611f7c7f000000000000000000000000000000000000000000000000000000000000000089888880806020026020016040519081016040528093929190818152602001838360200280828437600081840152601f19601f82011690508083019250505050505050615229565b91508682600184510381518110611f8f57fe5b60200260200101511015611fee576040517f08c379a0000000000000000000000000000000000000000000000000000000008152600401808060200182810382526029815260200180616d746029913960400191505060405180910390fd5b6120b386866000818110611ffe57fe5b9050602002013573ffffffffffffffffffffffffffffffffffffffff16336120997f00000000000000000000000000000000000000000000000000000000000000008a8a600081811061204d57fe5b9050602002013573ffffffffffffffffffffffffffffffffffffffff168b8b600181811061207757fe5b9050602002013573ffffffffffffffffffffffffffffffffffffffff166153a1565b856000815181106120a657fe5b60200260200101516154fc565b6120ff82878780806020026020016040519081016040528093929190818152602001838360200280828437600081840152601f19601f820116905080830192505050505050508661570d565b509695505050505050565b60608142811015612183576040517f08c379a00000000000000000000000000000000000000000000000000000000081526004018080602001828103825260168152602001807f50616e63616b65526f757465723a20455850495245440000000000000000000081525060200191505060405180910390fd5b7f000000000000000000000000000000000000000000000000000000000000000073ffffffffffffffffffffffffffffffffffffffff168686600189899050038181106121cc57fe5b9050602002013573ffffffffffffffffffffffffffffffffffffffff1673ffffffffffffffffffffffffffffffffffffffff1614612272576040517f08c379a000000000000000000000000000000000000000000000000000000000815260040180806020018281038252601b8152602001807f50616e63616b65526f757465723a20494e56414c49445f50415448000000000081525060200191505060405180910390fd5b6122de7f000000000000000000000000000000000000000000000000000000000000000089888880806020026020016040519081016040528093929190818152602001838360200280828437600081840152601f19601f820116905080830192505050505050506159b8565b915086826000815181106122ee57fe5b6020026020010151111561234d576040517f08c379a0000000000000000000000000000000000000000000000000000000008152600401808060200182810382526025815260200180616e346025913960400191505060405180910390fd5b6124128686600081811061235d57fe5b9050602002013573ffffffffffffffffffffffffffffffffffffffff16336123f87f00000000000000000000000000000000000000000000000000000000000000008a8a60008181106123ac57fe5b9050602002013573ffffffffffffffffffffffffffffffffffffffff168b8b60018181106123d657fe5b9050602002013573ffffffffffffffffffffffffffffffffffffffff166153a1565b8560008151811061240557fe5b60200260200101516154fc565b61245e82878780806020026020016040519081016040528093929190818152602001838360200280828437600081840152601f19601f820116905080830192505050505050503061570d565b7f000000000000000000000000000000000000000000000000000000000000000073ffffffffffffffffffffffffffffffffffffffff16632e1a7d4d836001855103815181106124aa57fe5b60200260200101516040518263ffffffff1660e01b815260040180828152602001915050600060405180830381600087803b1580156124e857600080fd5b505af11580156124fc573d6000803e3d6000fd5b50505050612521848360018551038151811061251457fe5b6020026020010151614f9a565b509695505050505050565b60008061257a7f00000000000000000000000000000000000000000000000000000000000000008d7f00000000000000000000000000000000000000000000000000000000000000006153a1565b9050600086612589578b6125ab565b7fffffffffffffffffffffffffffffffffffffffffffffffffffffffffffffffff5b90508173ffffffffffffffffffffffffffffffffffffffff1663d505accf3330848c8b8b8b6040518863ffffffff1660e01b8152600401808873ffffffffffffffffffffffffffffffffffffffff1673ffffffffffffffffffffffffffffffffffffffff1681526020018773ffffffffffffffffffffffffffffffffffffffff1673ffffffffffffffffffffffffffffffffffffffff1681526020018681526020018581526020018460ff1660ff168152602001838152602001828152602001975050505050505050600060405180830381600087803b15801561268e57600080fd5b505af11580156126a2573d6000803e3d6000fd5b505050506126b48d8d8d8d8d8d61367f565b925050509a9950505050505050505050565b804281101561273d576040517f08c379a00000000000000000000000000000000000000000000000000000000081526004018080602001828103825260168152602001807f50616e63616b65526f757465723a20455850495245440000000000000000000081525060200191505060405180910390fd5b6127ee8585600081811061274d57fe5b9050602002013573ffffffffffffffffffffffffffffffffffffffff16336127e87f00000000000000000000000000000000000000000000000000000000000000008989600081811061279c57fe5b9050602002013573ffffffffffffffffffffffffffffffffffffffff168a8a60018181106127c657fe5b9050602002013573ffffffffffffffffffffffffffffffffffffffff166153a1565b8a6154fc565b600085856001888890500381811061280257fe5b9050602002013573ffffffffffffffffffffffffffffffffffffffff1673ffffffffffffffffffffffffffffffffffffffff166370a08231856040518263ffffffff1660e01b8152600401808273ffffffffffffffffffffffffffffffffffffffff1673ffffffffffffffffffffffffffffffffffffffff16815260200191505060206040518083038186803b15801561289b57600080fd5b505afa1580156128af573d6000803e3d6000fd5b505050506040513d60208110156128c557600080fd5b81019080805190602001909291905050509050612923868680806020026020016040519081016040528093929190818152602001838360200280828437600081840152601f19601f8201169050808301925050505050505085615ccf565b86612a1c82888860018b8b90500381811061293a57fe5b9050602002013573ffffffffffffffffffffffffffffffffffffffff1673ffffffffffffffffffffffffffffffffffffffff166370a08231886040518263ffffffff1660e01b8152600401808273ffffffffffffffffffffffffffffffffffffffff1673ffffffffffffffffffffffffffffffffffffffff16815260200191505060206040518083038186803b1580156129d357600080fd5b505afa1580156129e7573d6000803e3d6000fd5b505050506040513d60208110156129fd57600080fd5b810190808051906020019092919050505061614690919063ffffffff16565b1015612a73576040517f08c379a0000000000000000000000000000000000000000000000000000000008152600401808060200182810382526029815260200180616d746029913960400191505060405180910390fd5b5050505050505050565b8042811015612af4576040517f08c379a00000000000000000000000000000000000000000000000000000000081526004018080602001828103825260168152602001807f50616e63616b65526f757465723a20455850495245440000000000000000000081525060200191505060405180910390fd5b7f000000000000000000000000000000000000000000000000000000000000000073ffffffffffffffffffffffffffffffffffffffff16858560018888905003818110612b3d57fe5b9050602002013573ffffffffffffffffffffffffffffffffffffffff1673ffffffffffffffffffffffffffffffffffffffff1614612be3576040517f08c379a000000000000000000000000000000000000000000000000000000000815260040180806020018281038252601b8152602001807f50616e63616b65526f757465723a20494e56414c49445f50415448000000000081525060200191505060405180910390fd5b612c9485856000818110612bf357fe5b9050602002013573ffffffffffffffffffffffffffffffffffffffff1633612c8e7f000000000000000000000000000000000000000000000000000000000000000089896000818110612c4257fe5b9050602002013573ffffffffffffffffffffffffffffffffffffffff168a8a6001818110612c6c57fe5b9050602002013573ffffffffffffffffffffffffffffffffffffffff166153a1565b8a6154fc565b612cdf858580806020026020016040519081016040528093929190818152602001838360200280828437600081840152601f19601f8201169050808301925050505050505030615ccf565b60007f000000000000000000000000000000000000000000000000000000000000000073ffffffffffffffffffffffffffffffffffffffff166370a08231306040518263ffffffff1660e01b8152600401808273ffffffffffffffffffffffffffffffffffffffff1673ffffffffffffffffffffffffffffffffffffffff16815260200191505060206040518083038186803b158015612d7e57600080fd5b505afa158015612d92573d6000803e3d6000fd5b505050506040513d6020811015612da857600080fd5b8101908080519060200190929190505050905086811015612e14576040517f08c379a0000000000000000000000000000000000000000000000000000000008152600401808060200182810382526029815260200180616d746029913960400191505060405180910390fd5b7f000000000000000000000000000000000000000000000000000000000000000073ffffffffffffffffffffffffffffffffffffffff16632e1a7d4d826040518263ffffffff1660e01b815260040180828152602001915050600060405180830381600087803b158015612e8757600080fd5b505af1158015612e9b573d6000803e3d6000fd5b50505050612ea98482614f9a565b5050505050505050565b60608142811015612f2c576040517f08c379a00000000000000000000000000000000000000000000000000000000081526004018080602001828103825260168152602001807f50616e63616b65526f757465723a20455850495245440000000000000000000081525060200191505060405180910390fd5b7f000000000000000000000000000000000000000000000000000000000000000073ffffffffffffffffffffffffffffffffffffffff1686866000818110612f7057fe5b9050602002013573ffffffffffffffffffffffffffffffffffffffff1673ffffffffffffffffffffffffffffffffffffffff1614613016576040517f08c379a000000000000000000000000000000000000000000000000000000000815260040180806020018281038252601b8152602001807f50616e63616b65526f757465723a20494e56414c49445f50415448000000000081525060200191505060405180910390fd5b6130827f000000000000000000000000000000000000000000000000000000000000000034888880806020026020016040519081016040528093929190818152602001838360200280828437600081840152601f19601f82011690508083019250505050505050615229565b9150868260018451038151811061309557fe5b602002602001015110156130f4576040517f08c379a0000000000000000000000000000000000000000000000000000000008152600401808060200182810382526029815260200180616d746029913960400191505060405180910390fd5b7f000000000000000000000000000000000000000000000000000000000000000073ffffffffffffffffffffffffffffffffffffffff1663d0e30db08360008151811061313d57fe5b60200260200101516040518263ffffffff1660e01b81526004016000604051808303818588803b15801561317057600080fd5b505af1158015613184573d6000803e3d6000fd5b50505050507f000000000000000000000000000000000000000000000000000000000000000073ffffffffffffffffffffffffffffffffffffffff1663a9059cbb6132427f0000000000000000000000000000000000000000000000000000000000000000898960008181106131f657fe5b9050602002013573ffffffffffffffffffffffffffffffffffffffff168a8a600181811061322057fe5b9050602002013573ffffffffffffffffffffffffffffffffffffffff166153a1565b8460008151811061324f57fe5b60200260200101516040518363ffffffff1660e01b8152600401808373ffffffffffffffffffffffffffffffffffffffff1673ffffffffffffffffffffffffffffffffffffffff16815260200182815260200192505050602060405180830381600087803b1580156132c057600080fd5b505af11580156132d4573d6000803e3d6000fd5b505050506040513d60208110156132ea57600080fd5b810190808051906020019092919050505061330157fe5b61334d82878780806020026020016040519081016040528093929190818152602001838360200280828437600081840152601f19601f820116905080830192505050505050508661570d565b5095945050505050565b60006133648484846161c9565b90509392505050565b606081428110156133e6576040517f08c379a00000000000000000000000000000000000000000000000000000000081526004018080602001828103825260168152602001807f50616e63616b65526f757465723a20455850495245440000000000000000000081525060200191505060405180910390fd5b6134527f000000000000000000000000000000000000000000000000000000000000000089888880806020026020016040519081016040528093929190818152602001838360200280828437600081840152601f19601f820116905080830192505050505050506159b8565b9150868260008151811061346257fe5b602002602001015111156134c1576040517f08c379a0000000000000000000000000000000000000000000000000000000008152600401808060200182810382526025815260200180616e346025913960400191505060405180910390fd5b613586868660008181106134d157fe5b9050602002013573ffffffffffffffffffffffffffffffffffffffff163361356c7f00000000000000000000000000000000000000000000000000000000000000008a8a600081811061352057fe5b9050602002013573ffffffffffffffffffffffffffffffffffffffff168b8b600181811061354a57fe5b9050602002013573ffffffffffffffffffffffffffffffffffffffff166153a1565b8560008151811061357957fe5b60200260200101516154fc565b6135d282878780806020026020016040519081016040528093929190818152602001838360200280828437600081840152601f19601f820116905080830192505050505050508661570d565b509695505050505050565b806000806101000a81548173ffffffffffffffffffffffffffffffffffffffff021916908373ffffffffffffffffffffffffffffffffffffffff16021790555050565b6000809054906101000a900473ffffffffffffffffffffffffffffffffffffffff1681565b7f000000000000000000000000000000000000000000000000000000000000000081565b6000613676848484616306565b90509392505050565b600081428110156136f8576040517f08c379a00000000000000000000000000000000000000000000000000000000081526004018080602001828103825260168152602001807f50616e63616b65526f757465723a20455850495245440000000000000000000081525060200191505060405180910390fd5b613727887f00000000000000000000000000000000000000000000000000000000000000008989893089613e69565b9050809250506137ef88858a73ffffffffffffffffffffffffffffffffffffffff166370a08231306040518263ffffffff1660e01b8152600401808273ffffffffffffffffffffffffffffffffffffffff1673ffffffffffffffffffffffffffffffffffffffff16815260200191505060206040518083038186803b1580156137af57600080fd5b505afa1580156137c3573d6000803e3d6000fd5b505050506040513d60208110156137d957600080fd5b8101908080519060200190929190505050614dbe565b7f000000000000000000000000000000000000000000000000000000000000000073ffffffffffffffffffffffffffffffffffffffff16632e1a7d4d836040518263ffffffff1660e01b815260040180828152602001915050600060405180830381600087803b15801561386257600080fd5b505af1158015613876573d6000803e3d6000fd5b505050506138848483614f9a565b509695505050505050565b8042811015613906576040517f08c379a00000000000000000000000000000000000000000000000000000000081526004018080602001828103825260168152602001807f50616e63616b65526f757465723a20455850495245440000000000000000000081525060200191505060405180910390fd5b7f000000000000000000000000000000000000000000000000000000000000000073ffffffffffffffffffffffffffffffffffffffff168585600081811061394a57fe5b9050602002013573ffffffffffffffffffffffffffffffffffffffff1673ffffffffffffffffffffffffffffffffffffffff16146139f0576040517f08c379a000000000000000000000000000000000000000000000000000000000815260040180806020018281038252601b8152602001807f50616e63616b65526f757465723a20494e56414c49445f50415448000000000081525060200191505060405180910390fd5b60003490507f000000000000000000000000000000000000000000000000000000000000000073ffffffffffffffffffffffffffffffffffffffff1663d0e30db0826040518263ffffffff1660e01b81526004016000604051808303818588803b158015613a5d57600080fd5b505af1158015613a71573d6000803e3d6000fd5b50505050507f000000000000000000000000000000000000000000000000000000000000000073ffffffffffffffffffffffffffffffffffffffff1663a9059cbb613b2f7f000000000000000000000000000000000000000000000000000000000000000089896000818110613ae357fe5b9050602002013573ffffffffffffffffffffffffffffffffffffffff168a8a6001818110613b0d57fe5b9050602002013573ffffffffffffffffffffffffffffffffffffffff166153a1565b836040518363ffffffff1660e01b8152600401808373ffffffffffffffffffffffffffffffffffffffff1673ffffffffffffffffffffffffffffffffffffffff16815260200182815260200192505050602060405180830381600087803b158015613b9957600080fd5b505af1158015613bad573d6000803e3d6000fd5b505050506040513d6020811015613bc357600080fd5b8101908080519060200190929190505050613bda57fe5b6000868660018989905003818110613bee57fe5b9050602002013573ffffffffffffffffffffffffffffffffffffffff1673ffffffffffffffffffffffffffffffffffffffff166370a08231866040518263ffffffff1660e01b8152600401808273ffffffffffffffffffffffffffffffffffffffff1673ffffffffffffffffffffffffffffffffffffffff16815260200191505060206040518083038186803b158015613c8757600080fd5b505afa158015613c9b573d6000803e3d6000fd5b505050506040513d6020811015613cb157600080fd5b81019080805190602001909291905050509050613d0f878780806020026020016040519081016040528093929190818152602001838360200280828437600081840152601f19601f8201169050808301925050505050505086615ccf565b87613e0882898960018c8c905003818110613d2657fe5b9050602002013573ffffffffffffffffffffffffffffffffffffffff1673ffffffffffffffffffffffffffffffffffffffff166370a08231896040518263ffffffff1660e01b8152600401808273ffffffffffffffffffffffffffffffffffffffff1673ffffffffffffffffffffffffffffffffffffffff16815260200191505060206040518083038186803b158015613dbf57600080fd5b505afa158015613dd3573d6000803e3d6000fd5b505050506040513d6020811015613de957600080fd5b810190808051906020019092919050505061614690919063ffffffff16565b1015613e5f576040517f08c379a0000000000000000000000000000000000000000000000000000000008152600401808060200182810382526029815260200180616d746029913960400191505060405180910390fd5b5050505050505050565b6000808242811015613ee3576040517f08c379a00000000000000000000000000000000000000000000000000000000081526004018080602001828103825260168152602001807f50616e63616b65526f757465723a20455850495245440000000000000000000081525060200191505060405180910390fd5b6000613f107f00000000000000000000000000000000000000000000000000000000000000008c8c6153a1565b90508073ffffffffffffffffffffffffffffffffffffffff166323b872dd33838c6040518463ffffffff1660e01b8152600401808473ffffffffffffffffffffffffffffffffffffffff1673ffffffffffffffffffffffffffffffffffffffff1681526020018373ffffffffffffffffffffffffffffffffffffffff1673ffffffffffffffffffffffffffffffffffffffff1681526020018281526020019350505050602060405180830381600087803b158015613fcd57600080fd5b505af1158015613fe1573d6000803e3d6000fd5b505050506040513d6020811015613ff757600080fd5b8101908080519060200190929190505050506000808273ffffffffffffffffffffffffffffffffffffffff166389afcb44896040518263ffffffff1660e01b8152600401808273ffffffffffffffffffffffffffffffffffffffff1673ffffffffffffffffffffffffffffffffffffffff1681526020019150506040805180830381600087803b15801561408a57600080fd5b505af115801561409e573d6000803e3d6000fd5b505050506040513d60408110156140b457600080fd5b8101908080519060200190929190805190602001909291905050509150915060006140df8e8e6163ea565b5090508073ffffffffffffffffffffffffffffffffffffffff168e73ffffffffffffffffffffffffffffffffffffffff161461411c57818361411f565b82825b80975081985050508a871015614180576040517f08c379a0000000000000000000000000000000000000000000000000000000008152600401808060200182810382526024815260200180616dc06024913960400191505060405180910390fd5b898610156141d9576040517f08c379a0000000000000000000000000000000000000000000000000000000008152600401808060200182810382526024815260200180616e7f6024913960400191505060405180910390fd5b505050505097509795505050505050565b7f000000000000000000000000000000000000000000000000000000000000000081565b606061423b7f00000000000000000000000000000000000000000000000000000000000000008484615229565b905092915050565b60008060006142937f00000000000000000000000000000000000000000000000000000000000000008e7f00000000000000000000000000000000000000000000000000000000000000006153a1565b90506000876142a2578c6142c4565b7fffffffffffffffffffffffffffffffffffffffffffffffffffffffffffffffff5b90508173ffffffffffffffffffffffffffffffffffffffff1663d505accf3330848d8c8c8c6040518863ffffffff1660e01b8152600401808873ffffffffffffffffffffffffffffffffffffffff1673ffffffffffffffffffffffffffffffffffffffff1681526020018773ffffffffffffffffffffffffffffffffffffffff1673ffffffffffffffffffffffffffffffffffffffff1681526020018681526020018581526020018460ff1660ff168152602001838152602001828152602001975050505050505050600060405180830381600087803b1580156143a757600080fd5b505af11580156143bb573d6000803e3d6000fd5b505050506143cd8e8e8e8e8e8e6115b8565b809450819550505050509a509a98505050505050505050565b60008060008342811015614462576040517f08c379a00000000000000000000000000000000000000000000000000000000081526004018080602001828103825260168152602001807f50616e63616b65526f757465723a20455850495245440000000000000000000081525060200191505060405180910390fd5b6144708c8c8c8c8c8c616561565b809450819550505060006144a57f00000000000000000000000000000000000000000000000000000000000000008e8e6153a1565b90506144b38d3383886154fc565b6144bf8c3383876154fc565b8073ffffffffffffffffffffffffffffffffffffffff16636a627842886040518263ffffffff1660e01b8152600401808273ffffffffffffffffffffffffffffffffffffffff1673ffffffffffffffffffffffffffffffffffffffff168152602001915050602060405180830381600087803b15801561453e57600080fd5b505af1158015614552573d6000803e3d6000fd5b505050506040513d602081101561456857600080fd5b810190808051906020019092919050505092505050985098509895505050505050565b60008060008342811015614607576040517f08c379a00000000000000000000000000000000000000000000000000000000081526004018080602001828103825260168152602001807f50616e63616b65526f757465723a20455850495245440000000000000000000081525060200191505060405180910390fd5b6146358a7f00000000000000000000000000000000000000000000000000000000000000008b348c8c616561565b8094508195505050600061468a7f00000000000000000000000000000000000000000000000000000000000000008c7f00000000000000000000000000000000000000000000000000000000000000006153a1565b90506146988b3383886154fc565b7f000000000000000000000000000000000000000000000000000000000000000073ffffffffffffffffffffffffffffffffffffffff1663d0e30db0856040518263ffffffff1660e01b81526004016000604051808303818588803b15801561470057600080fd5b505af1158015614714573d6000803e3d6000fd5b50505050507f000000000000000000000000000000000000000000000000000000000000000073ffffffffffffffffffffffffffffffffffffffff1663a9059cbb82866040518363ffffffff1660e01b8152600401808373ffffffffffffffffffffffffffffffffffffffff1673ffffffffffffffffffffffffffffffffffffffff16815260200182815260200192505050602060405180830381600087803b1580156147c057600080fd5b505af11580156147d4573d6000803e3d6000fd5b505050506040513d60208110156147ea57600080fd5b810190808051906020019092919050505061480157fe5b8073ffffffffffffffffffffffffffffffffffffffff16636a627842886040518263ffffffff1660e01b8152600401808273ffffffffffffffffffffffffffffffffffffffff1673ffffffffffffffffffffffffffffffffffffffff168152602001915050602060405180830381600087803b15801561488057600080fd5b505af1158015614894573d6000803e3d6000fd5b505050506040513d60208110156148aa57600080fd5b81019080805190602001909291905050509250833411156148d2576148d133853403614f9a565b5b505096509650969350505050565b60608142811015614959576040517f08c379a00000000000000000000000000000000000000000000000000000000081526004018080602001828103825260168152602001807f50616e63616b65526f757465723a20455850495245440000000000000000000081525060200191505060405180910390fd5b7f000000000000000000000000000000000000000000000000000000000000000073ffffffffffffffffffffffffffffffffffffffff168686600081811061499d57fe5b9050602002013573ffffffffffffffffffffffffffffffffffffffff1673ffffffffffffffffffffffffffffffffffffffff1614614a43576040517f08c379a000000000000000000000000000000000000000000000000000000000815260040180806020018281038252601b8152602001807f50616e63616b65526f757465723a20494e56414c49445f50415448000000000081525060200191505060405180910390fd5b614aaf7f000000000000000000000000000000000000000000000000000000000000000088888880806020026020016040519081016040528093929190818152602001838360200280828437600081840152601f19601f820116905080830192505050505050506159b8565b91503482600081518110614abf57fe5b60200260200101511115614b1e576040517f08c379a0000000000000000000000000000000000000000000000000000000008152600401808060200182810382526025815260200180616e346025913960400191505060405180910390fd5b7f000000000000000000000000000000000000000000000000000000000000000073ffffffffffffffffffffffffffffffffffffffff1663d0e30db083600081518110614b6757fe5b60200260200101516040518263ffffffff1660e01b81526004016000604051808303818588803b158015614b9a57600080fd5b505af1158015614bae573d6000803e3d6000fd5b50505050507f000000000000000000000000000000000000000000000000000000000000000073ffffffffffffffffffffffffffffffffffffffff1663a9059cbb614c6c7f000000000000000000000000000000000000000000000000000000000000000089896000818110614c2057fe5b9050602002013573ffffffffffffffffffffffffffffffffffffffff168a8a6001818110614c4a57fe5b9050602002013573ffffffffffffffffffffffffffffffffffffffff166153a1565b84600081518110614c7957fe5b60200260200101516040518363ffffffff1660e01b8152600401808373ffffffffffffffffffffffffffffffffffffffff1673ffffffffffffffffffffffffffffffffffffffff16815260200182815260200192505050602060405180830381600087803b158015614cea57600080fd5b505af1158015614cfe573d6000803e3d6000fd5b505050506040513d6020811015614d1457600080fd5b8101908080519060200190929190505050614d2b57fe5b614d7782878780806020026020016040519081016040528093929190818152602001838360200280828437600081840152601f19601f820116905080830192505050505050508661570d565b81600081518110614d8457fe5b6020026020010151341115614db457614db33383600081518110614da457fe5b60200260200101513403614f9a565b5b5095945050505050565b600060608473ffffffffffffffffffffffffffffffffffffffff1663a9059cbb8585604051602401808373ffffffffffffffffffffffffffffffffffffffff1673ffffffffffffffffffffffffffffffffffffffff168152602001828152602001925050506040516020818303038152906040529060e01b6020820180517bffffffffffffffffffffffffffffffffffffffffffffffffffffffff83818316178352505050506040518082805190602001908083835b60208310614e975780518252602082019150602081019050602083039250614e74565b6001836020036101000a0380198251168184511680821785525050505050509050019150506000604051808303816000865af19150503d8060008114614ef9576040519150601f19603f3d011682016040523d82523d6000602084013e614efe565b606091505b5091509150818015614f3e5750600081511480614f3d5750808060200190516020811015614f2b57600080fd5b81019080805190602001909291905050505b5b614f93576040517f08c379a000000000000000000000000000000000000000000000000000000000815260040180806020018281038252602d815260200180616e07602d913960400191505060405180910390fd5b5050505050565b60008273ffffffffffffffffffffffffffffffffffffffff1682600067ffffffffffffffff81118015614fcc57600080fd5b506040519080825280601f01601f191660200182016040528015614fff5781602001600182028036833780820191505090505b506040518082805190602001908083835b602083106150335780518252602082019150602081019050602083039250615010565b6001836020036101000a03801982511681845116808217855250505050505090500191505060006040518083038185875af1925050503d8060008114615095576040519150601f19603f3d011682016040523d82523d6000602084013e61509a565b606091505b50509050806150f4576040517f08c379a0000000000000000000000000000000000000000000000000000000008152600401808060200182810382526034815260200180616d406034913960400191505060405180910390fd5b505050565b6000808411615153576040517f08c379a0000000000000000000000000000000000000000000000000000000008152600401808060200182810382526029815260200180616cbc6029913960400191505060405180910390fd5b6000831180156151635750600082115b6151b8576040517f08c379a0000000000000000000000000000000000000000000000000000000008152600401808060200182810382526026815260200180616e596026913960400191505060405180910390fd5b60006151cf6126f78661691590919063ffffffff16565b905060006151e6848361691590919063ffffffff16565b90506000615211836152036127108961691590919063ffffffff16565b6169aa90919063ffffffff16565b905080828161521c57fe5b0493505050509392505050565b60606002825110156152a3576040517f08c379a000000000000000000000000000000000000000000000000000000000815260040180806020018281038252601c8152602001807f50616e63616b654c6962726172793a20494e56414c49445f504154480000000081525060200191505060405180910390fd5b815167ffffffffffffffff811180156152bb57600080fd5b506040519080825280602002602001820160405280156152ea5781602001602082028036833780820191505090505b50905082816000815181106152fb57fe5b60200260200101818152505060005b60018351038110156153995760008061534d8786858151811061532957fe5b602002602001015187600187018151811061534057fe5b6020026020010151616a2d565b9150915061536f84848151811061536057fe5b602002602001015183836150f9565b84600185018151811061537e57fe5b6020026020010181815250505050808060010191505061530a565b509392505050565b60008060006153b085856163ea565b91509150858282604051602001808373ffffffffffffffffffffffffffffffffffffffff1673ffffffffffffffffffffffffffffffffffffffff1660601b81526014018273ffffffffffffffffffffffffffffffffffffffff1673ffffffffffffffffffffffffffffffffffffffff1660601b8152601401925050506040516020818303038152906040528051906020012060405160200180807fff000000000000000000000000000000000000000000000000000000000000008152506001018373ffffffffffffffffffffffffffffffffffffffff1673ffffffffffffffffffffffffffffffffffffffff1660601b8152601401828152602001807f4c5a474492614006aea9ff99894ea2f1df6ccce92605471888e23d35a5827284815250602001925050506040516020818303038152906040528051906020012060001c925050509392505050565b600060608573ffffffffffffffffffffffffffffffffffffffff166323b872dd868686604051602401808473ffffffffffffffffffffffffffffffffffffffff1673ffffffffffffffffffffffffffffffffffffffff1681526020018373ffffffffffffffffffffffffffffffffffffffff1673ffffffffffffffffffffffffffffffffffffffff16815260200182815260200193505050506040516020818303038152906040529060e01b6020820180517bffffffffffffffffffffffffffffffffffffffffffffffffffffffff83818316178352505050506040518082805190602001908083835b6020831061560957805182526020820191506020810190506020830392506155e6565b6001836020036101000a0380198251168184511680821785525050505050509050019150506000604051808303816000865af19150503d806000811461566b576040519150601f19603f3d011682016040523d82523d6000602084013e615670565b606091505b50915091508180156156b057506000815114806156af575080806020019051602081101561569d57600080fd5b81019080805190602001909291905050505b5b615705576040517f08c379a0000000000000000000000000000000000000000000000000000000008152600401808060200182810382526031815260200180616d0f6031913960400191505060405180910390fd5b505050505050565b60005b60018351038110156159b25760008084838151811061572b57fe5b602002602001015185600185018151811061574257fe5b602002602001015191509150600061575a83836163ea565b509050600087600186018151811061576e57fe5b602002602001015190506000808373ffffffffffffffffffffffffffffffffffffffff168673ffffffffffffffffffffffffffffffffffffffff16146157b6578260006157ba565b6000835b91509150600060028a510388106157d15788615813565b6158127f0000000000000000000000000000000000000000000000000000000000000000878c60028c018151811061580557fe5b60200260200101516153a1565b5b90506158407f000000000000000000000000000000000000000000000000000000000000000088886153a1565b73ffffffffffffffffffffffffffffffffffffffff1663022c0d9f848484600067ffffffffffffffff8111801561587657600080fd5b506040519080825280601f01601f1916602001820160405280156158a95781602001600182028036833780820191505090505b506040518563ffffffff1660e01b8152600401808581526020018481526020018373ffffffffffffffffffffffffffffffffffffffff1673ffffffffffffffffffffffffffffffffffffffff16815260200180602001828103825283818151815260200191508051906020019080838360005b8381101561593757808201518184015260208101905061591c565b50505050905090810190601f1680156159645780820380516001836020036101000a031916815260200191505b5095505050505050600060405180830381600087803b15801561598657600080fd5b505af115801561599a573d6000803e3d6000fd5b50505050505050505050508080600101915050615710565b50505050565b6060600282511015615a32576040517f08c379a000000000000000000000000000000000000000000000000000000000815260040180806020018281038252601c8152602001807f50616e63616b654c6962726172793a20494e56414c49445f504154480000000081525060200191505060405180910390fd5b815167ffffffffffffffff81118015615a4a57600080fd5b50604051908082528060200260200182016040528015615a795781602001602082028036833780820191505090505b5090508281600183510381518110615a8d57fe5b6020026020010181815250506000600183510390505b6000811115615b3057600080615ae387866001860381518110615ac257fe5b6020026020010151878681518110615ad657fe5b6020026020010151616a2d565b91509150615b05848481518110615af657fe5b602002602001015183836161c9565b846001850381518110615b1457fe5b6020026020010181815250505050808060019003915050615aa3565b509392505050565b615c33816040516024018080602001828103825283818151815260200191508051906020019080838360005b83811015615b7f578082015181840152602081019050615b64565b50505050905090810190601f168015615bac5780820380516001836020036101000a031916815260200191505b50925050506040516020818303038152906040527f41304fac000000000000000000000000000000000000000000000000000000007bffffffffffffffffffffffffffffffffffffffffffffffffffffffff19166020820180517bffffffffffffffffffffffffffffffffffffffffffffffffffffffff8381831617835250505050616bcd565b50565b615ccc81604051602401808281526020019150506040516020818303038152906040527ff5b1bba9000000000000000000000000000000000000000000000000000000007bffffffffffffffffffffffffffffffffffffffffffffffffffffffff19166020820180517bffffffffffffffffffffffffffffffffffffffffffffffffffffffff8381831617835250505050616bcd565b50565b60005b600183510381101561614157600080848381518110615ced57fe5b6020026020010151856001850181518110615d0457fe5b6020026020010151915091506000615d1c83836163ea565b5090506000615d4c7f000000000000000000000000000000000000000000000000000000000000000085856153a1565b90506000806000808473ffffffffffffffffffffffffffffffffffffffff16630902f1ac6040518163ffffffff1660e01b815260040160606040518083038186803b158015615d9a57600080fd5b505afa158015615dae573d6000803e3d6000fd5b505050506040513d6060811015615dc457600080fd5b81019080805190602001909291908051906020019092919080519060200190929190505050506dffffffffffffffffffffffffffff1691506dffffffffffffffffffffffffffff1691506000808773ffffffffffffffffffffffffffffffffffffffff168a73ffffffffffffffffffffffffffffffffffffffff1614615e4b578284615e4e565b83835b91509150615f1c828b73ffffffffffffffffffffffffffffffffffffffff166370a082318a6040518263ffffffff1660e01b8152600401808273ffffffffffffffffffffffffffffffffffffffff1673ffffffffffffffffffffffffffffffffffffffff16815260200191505060206040518083038186803b158015615ed357600080fd5b505afa158015615ee7573d6000803e3d6000fd5b505050506040513d6020811015615efd57600080fd5b810190808051906020019092919050505061614690919063ffffffff16565b9550615f298683836150f9565b9450505050506000808573ffffffffffffffffffffffffffffffffffffffff168873ffffffffffffffffffffffffffffffffffffffff1614615f6d57826000615f71565b6000835b91509150600060028c51038a10615f88578a615fca565b615fc97f0000000000000000000000000000000000000000000000000000000000000000898e60028e0181518110615fbc57fe5b60200260200101516153a1565b5b90508573ffffffffffffffffffffffffffffffffffffffff1663022c0d9f848484600067ffffffffffffffff8111801561600357600080fd5b506040519080825280601f01601f1916602001820160405280156160365781602001600182028036833780820191505090505b506040518563ffffffff1660e01b8152600401808581526020018481526020018373ffffffffffffffffffffffffffffffffffffffff1673ffffffffffffffffffffffffffffffffffffffff16815260200180602001828103825283818151815260200191508051906020019080838360005b838110156160c45780820151818401526020810190506160a9565b50505050905090810190601f1680156160f15780820380516001836020036101000a031916815260200191505b5095505050505050600060405180830381600087803b15801561611357600080fd5b505af1158015616127573d6000803e3d6000fd5b505050505050505050505050508080600101915050615cd2565b505050565b60008282840391508111156161c3576040517f08c379a00000000000000000000000000000000000000000000000000000000081526004018080602001828103825260158152602001807f64732d6d6174682d7375622d756e646572666c6f77000000000000000000000081525060200191505060405180910390fd5b92915050565b6000808411616223576040517f08c379a000000000000000000000000000000000000000000000000000000000815260040180806020018281038252602a815260200180616ce5602a913960400191505060405180910390fd5b6000831180156162335750600082115b616288576040517f08c379a0000000000000000000000000000000000000000000000000000000008152600401808060200182810382526026815260200180616e596026913960400191505060405180910390fd5b60006162b16127106162a3878761691590919063ffffffff16565b61691590919063ffffffff16565b905060006162dc6126f76162ce888761614690919063ffffffff16565b61691590919063ffffffff16565b90506162fb60018284816162ec57fe5b046169aa90919063ffffffff16565b925050509392505050565b6000808411616360576040517f08c379a0000000000000000000000000000000000000000000000000000000008152600401808060200182810382526023815260200180616de46023913960400191505060405180910390fd5b6000831180156163705750600082115b6163c5576040517f08c379a0000000000000000000000000000000000000000000000000000000008152600401808060200182810382526026815260200180616e596026913960400191505060405180910390fd5b826163d9838661691590919063ffffffff16565b816163e057fe5b0490509392505050565b6000808273ffffffffffffffffffffffffffffffffffffffff168473ffffffffffffffffffffffffffffffffffffffff161415616472576040517f08c379a0000000000000000000000000000000000000000000000000000000008152600401808060200182810382526023815260200180616d9d6023913960400191505060405180910390fd5b8273ffffffffffffffffffffffffffffffffffffffff168473ffffffffffffffffffffffffffffffffffffffff16106164ac5782846164af565b83835b8092508193505050600073ffffffffffffffffffffffffffffffffffffffff168273ffffffffffffffffffffffffffffffffffffffff16141561655a576040517f08c379a000000000000000000000000000000000000000000000000000000000815260040180806020018281038252601c8152602001807f50616e63616b654c6962726172793a205a45524f5f414444524553530000000081525060200191505060405180910390fd5b9250929050565b600080600073ffffffffffffffffffffffffffffffffffffffff167f000000000000000000000000000000000000000000000000000000000000000073ffffffffffffffffffffffffffffffffffffffff1663e6a439058a8a6040518363ffffffff1660e01b8152600401808373ffffffffffffffffffffffffffffffffffffffff1673ffffffffffffffffffffffffffffffffffffffff1681526020018273ffffffffffffffffffffffffffffffffffffffff1673ffffffffffffffffffffffffffffffffffffffff1681526020019250505060206040518083038186803b15801561664d57600080fd5b505afa158015616661573d6000803e3d6000fd5b505050506040513d602081101561667757600080fd5b810190808051906020019092919050505073ffffffffffffffffffffffffffffffffffffffff1614156167b4577f000000000000000000000000000000000000000000000000000000000000000073ffffffffffffffffffffffffffffffffffffffff1663c9c6539689896040518363ffffffff1660e01b8152600401808373ffffffffffffffffffffffffffffffffffffffff1673ffffffffffffffffffffffffffffffffffffffff1681526020018273ffffffffffffffffffffffffffffffffffffffff1673ffffffffffffffffffffffffffffffffffffffff16815260200192505050602060405180830381600087803b15801561677757600080fd5b505af115801561678b573d6000803e3d6000fd5b505050506040513d60208110156167a157600080fd5b8101908080519060200190929190505050505b6000806167e27f00000000000000000000000000000000000000000000000000000000000000008b8b616a2d565b915091506000821480156167f65750600081145b1561680a5787878094508195505050616908565b6000616817898484616306565b90508781116168885785811015616879576040517f08c379a0000000000000000000000000000000000000000000000000000000008152600401808060200182810382526024815260200180616e7f6024913960400191505060405180910390fd5b88818095508196505050616906565b6000616895898486616306565b9050898111156168a157fe5b878110156168fa576040517f08c379a0000000000000000000000000000000000000000000000000000000008152600401808060200182810382526024815260200180616dc06024913960400191505060405180910390fd5b80898096508197505050505b505b5050965096945050505050565b600080821480616932575082828385029250828161692f57fe5b04145b6169a4576040517f08c379a00000000000000000000000000000000000000000000000000000000081526004018080602001828103825260148152602001807f64732d6d6174682d6d756c2d6f766572666c6f7700000000000000000000000081525060200191505060405180910390fd5b92915050565b6000828284019150811015616a27576040517f08c379a00000000000000000000000000000000000000000000000000000000081526004018080602001828103825260148152602001807f64732d6d6174682d6164642d6f766572666c6f7700000000000000000000000081525060200191505060405180910390fd5b92915050565b6000806000616a3c85856163ea565b509050616a4a8686866153a1565b50616a5486616bf6565b616a5d85616bf6565b616a6684616bf6565b600080616a748888886153a1565b73ffffffffffffffffffffffffffffffffffffffff16630902f1ac6040518163ffffffff1660e01b815260040160606040518083038186803b158015616ab957600080fd5b505afa158015616acd573d6000803e3d6000fd5b505050506040513d6060811015616ae357600080fd5b81019080805190602001909291908051906020019092919080519060200190929190505050506dffffffffffffffffffffffffffff1691506dffffffffffffffffffffffffffff1691508273ffffffffffffffffffffffffffffffffffffffff168773ffffffffffffffffffffffffffffffffffffffff1614616b67578082616b6a565b81815b8095508196505050616bb06040518060400160405280600981526020017f52657365727665733a0000000000000000000000000000000000000000000000815250615b38565b616bb985615c36565b616bc284615c36565b505050935093915050565b60008151905060006a636f6e736f6c652e6c6f679050602083016000808483855afa5050505050565b616cb881604051602401808273ffffffffffffffffffffffffffffffffffffffff1673ffffffffffffffffffffffffffffffffffffffff1681526020019150506040516020818303038152906040527f2c2ecbc2000000000000000000000000000000000000000000000000000000007bffffffffffffffffffffffffffffffffffffffffffffffffffffffff19166020820180517bffffffffffffffffffffffffffffffffffffffffffffffffffffffff8381831617835250505050616bcd565b5056fe50616e63616b654c6962726172793a20494e53554646494349454e545f494e5055545f414d4f554e5450616e63616b654c6962726172793a20494e53554646494349454e545f4f55545055545f414d4f554e545472616e7366657248656c7065723a3a7472616e7366657246726f6d3a207472616e7366657246726f6d206661696c65645472616e7366657248656c7065723a3a736166655472616e736665724554483a20455448207472616e73666572206661696c656450616e63616b65526f757465723a20494e53554646494349454e545f4f55545055545f414d4f554e5450616e63616b654c6962726172793a204944454e544943414c5f41444452455353455350616e63616b65526f757465723a20494e53554646494349454e545f415f414d4f554e5450616e63616b654c6962726172793a20494e53554646494349454e545f414d4f554e545472616e7366657248656c7065723a3a736166655472616e736665723a207472616e73666572206661696c656450616e63616b65526f757465723a204558434553534956455f494e5055545f414d4f554e5450616e63616b654c6962726172793a20494e53554646494349454e545f4c495155494449545950616e63616b65526f757465723a20494e53554646494349454e545f425f414d4f554e54a2646970667358221220e74a1181dfde185038fe49ad13996d5283acaf927a42846b6a8db4e3c3b6eba764736f6c63430006060033",
  "devdoc": {
    "methods": {}
  },
  "userdoc": {
    "methods": {}
  },
  "storageLayout": {
    "storage": [
      {
        "astId": 880,
        "contract": "contracts/PancakeRouter_mod.sol:PancakeRouter_mod",
        "label": "pairAddress",
        "offset": 0,
        "slot": "0",
        "type": "t_address"
      }
    ],
    "types": {
      "t_address": {
        "encoding": "inplace",
        "label": "address",
        "numberOfBytes": "20"
      }
    }
  }
}