{"address":"0xA51c1fc2f0D1a1b8494Ed1FE312d7C3a78Ed91C0","bytecode":"0x60806040523480156200001157600080fd5b506040518060400160405280600581526020017f4170706c650000000000000000000000000000000000000000000000000000008152506040518060400160405280600381526020017f41504c00000000000000000000000000000000000000000000000000000000008152508181816003908051906020019062000098929190620001aa565b508060049080519060200190620000b1929190620001aa565b5050505050620000d6620000ca620000dc60201b60201c565b620000e460201b60201c565b620002bf565b600033905090565b6000600560009054906101000a900473ffffffffffffffffffffffffffffffffffffffff16905081600560006101000a81548173ffffffffffffffffffffffffffffffffffffffff021916908373ffffffffffffffffffffffffffffffffffffffff1602179055508173ffffffffffffffffffffffffffffffffffffffff168173ffffffffffffffffffffffffffffffffffffffff167f8be0079c531659141344cd1fd0a4f28419497f9722a3daafe3b4186f6b6457e060405160405180910390a35050565b828054620001b8906200025a565b90600052602060002090601f016020900481019282620001dc576000855562000228565b82601f10620001f757805160ff191683800117855562000228565b8280016001018555821562000228579182015b82811115620002275782518255916020019190600101906200020a565b5b5090506200023791906200023b565b5090565b5b80821115620002565760008160009055506001016200023c565b5090565b600060028204905060018216806200027357607f821691505b602082108114156200028a576200028962000290565b5b50919050565b7f4e487b7100000000000000000000000000000000000000000000000000000000600052602260045260246000fd5b61182f80620002cf6000396000f3fe608060405234801561001057600080fd5b50600436106100f55760003560e01c8063715018a611610097578063a9059cbb11610066578063a9059cbb1461028a578063d3c9cc26146102ba578063dd62ed3e146102d6578063f2fde38b14610306576100f5565b8063715018a6146102145780638da5cb5b1461021e57806395d89b411461023c578063a457c2d71461025a576100f5565b806323b872dd116100d357806323b872dd14610166578063313ce5671461019657806339509351146101b457806370a08231146101e4576100f5565b806306fdde03146100fa578063095ea7b31461011857806318160ddd14610148575b600080fd5b610102610322565b60405161010f91906111f4565b60405180910390f35b610132600480360381019061012d9190610f86565b6103b4565b60405161013f91906111d9565b60405180910390f35b6101506103d7565b60405161015d9190611356565b60405180910390f35b610180600480360381019061017b9190610f37565b6103e1565b60405161018d91906111d9565b60405180910390f35b61019e610410565b6040516101ab9190611371565b60405180910390f35b6101ce60048036038101906101c99190610f86565b610419565b6040516101db91906111d9565b60405180910390f35b6101fe60048036038101906101f99190610ed2565b610450565b60405161020b9190611356565b60405180910390f35b61021c610498565b005b6102266104ac565b60405161023391906111be565b60405180910390f35b6102446104d6565b60405161025191906111f4565b60405180910390f35b610274600480360381019061026f9190610f86565b610568565b60405161028191906111d9565b60405180910390f35b6102a4600480360381019061029f9190610f86565b6105df565b6040516102b191906111d9565b60405180910390f35b6102d460048036038101906102cf9190610fc2565b610602565b005b6102f060048036038101906102eb9190610efb565b61060f565b6040516102fd9190611356565b60405180910390f35b610320600480360381019061031b9190610ed2565b610696565b005b60606003805461033190611486565b80601f016020809104026020016040519081016040528092919081815260200182805461035d90611486565b80156103aa5780601f1061037f576101008083540402835291602001916103aa565b820191906000526020600020905b81548152906001019060200180831161038d57829003601f168201915b5050505050905090565b6000806103bf61071a565b90506103cc818585610722565b600191505092915050565b6000600254905090565b6000806103ec61071a565b90506103f98582856108ed565b610404858585610979565b60019150509392505050565b60006001905090565b60008061042461071a565b9050610445818585610436858961060f565b61044091906113a8565b610722565b600191505092915050565b60008060008373ffffffffffffffffffffffffffffffffffffffff1673ffffffffffffffffffffffffffffffffffffffff168152602001908152602001600020549050919050565b6104a0610bfa565b6104aa6000610c78565b565b6000600560009054906101000a900473ffffffffffffffffffffffffffffffffffffffff16905090565b6060600480546104e590611486565b80601f016020809104026020016040519081016040528092919081815260200182805461051190611486565b801561055e5780601f106105335761010080835404028352916020019161055e565b820191906000526020600020905b81548152906001019060200180831161054157829003601f168201915b5050505050905090565b60008061057361071a565b90506000610581828661060f565b9050838110156105c6576040517f08c379a00000000000000000000000000000000000000000000000000000000081526004016105bd90611316565b60405180910390fd5b6105d38286868403610722565b60019250505092915050565b6000806105ea61071a565b90506105f7818585610979565b600191505092915050565b61060c3382610d3e565b50565b6000600160008473ffffffffffffffffffffffffffffffffffffffff1673ffffffffffffffffffffffffffffffffffffffff16815260200190815260200160002060008373ffffffffffffffffffffffffffffffffffffffff1673ffffffffffffffffffffffffffffffffffffffff16815260200190815260200160002054905092915050565b61069e610bfa565b600073ffffffffffffffffffffffffffffffffffffffff168173ffffffffffffffffffffffffffffffffffffffff16141561070e576040517f08c379a000000000000000000000000000000000000000000000000000000000815260040161070590611236565b60405180910390fd5b61071781610c78565b50565b600033905090565b600073ffffffffffffffffffffffffffffffffffffffff168373ffffffffffffffffffffffffffffffffffffffff161415610792576040517f08c379a0000000000000000000000000000000000000000000000000000000008152600401610789906112f6565b60405180910390fd5b600073ffffffffffffffffffffffffffffffffffffffff168273ffffffffffffffffffffffffffffffffffffffff161415610802576040517f08c379a00000000000000000000000000000000000000000000000000000000081526004016107f990611256565b60405180910390fd5b80600160008573ffffffffffffffffffffffffffffffffffffffff1673ffffffffffffffffffffffffffffffffffffffff16815260200190815260200160002060008473ffffffffffffffffffffffffffffffffffffffff1673ffffffffffffffffffffffffffffffffffffffff168152602001908152602001600020819055508173ffffffffffffffffffffffffffffffffffffffff168373ffffffffffffffffffffffffffffffffffffffff167f8c5be1e5ebec7d5bd14f71427d1e84f3dd0314c0f7b2291e5b200ac8c7c3b925836040516108e09190611356565b60405180910390a3505050565b60006108f9848461060f565b90507fffffffffffffffffffffffffffffffffffffffffffffffffffffffffffffffff81146109735781811015610965576040517f08c379a000000000000000000000000000000000000000000000000000000000815260040161095c90611276565b60405180910390fd5b6109728484848403610722565b5b50505050565b600073ffffffffffffffffffffffffffffffffffffffff168373ffffffffffffffffffffffffffffffffffffffff1614156109e9576040517f08c379a00000000000000000000000000000000000000000000000000000000081526004016109e0906112d6565b60405180910390fd5b600073ffffffffffffffffffffffffffffffffffffffff168273ffffffffffffffffffffffffffffffffffffffff161415610a59576040517f08c379a0000000000000000000000000000000000000000000000000000000008152600401610a5090611216565b60405180910390fd5b610a64838383610e9e565b60008060008573ffffffffffffffffffffffffffffffffffffffff1673ffffffffffffffffffffffffffffffffffffffff16815260200190815260200160002054905081811015610aea576040517f08c379a0000000000000000000000000000000000000000000000000000000008152600401610ae190611296565b60405180910390fd5b8181036000808673ffffffffffffffffffffffffffffffffffffffff1673ffffffffffffffffffffffffffffffffffffffff16815260200190815260200160002081905550816000808573ffffffffffffffffffffffffffffffffffffffff1673ffffffffffffffffffffffffffffffffffffffff1681526020019081526020016000206000828254610b7d91906113a8565b925050819055508273ffffffffffffffffffffffffffffffffffffffff168473ffffffffffffffffffffffffffffffffffffffff167fddf252ad1be2c89b69c2b068fc378daa952ba7f163c4a11628f55a4df523b3ef84604051610be19190611356565b60405180910390a3610bf4848484610ea3565b50505050565b610c0261071a565b73ffffffffffffffffffffffffffffffffffffffff16610c206104ac565b73ffffffffffffffffffffffffffffffffffffffff1614610c76576040517f08c379a0000000000000000000000000000000000000000000000000000000008152600401610c6d906112b6565b60405180910390fd5b565b6000600560009054906101000a900473ffffffffffffffffffffffffffffffffffffffff16905081600560006101000a81548173ffffffffffffffffffffffffffffffffffffffff021916908373ffffffffffffffffffffffffffffffffffffffff1602179055508173ffffffffffffffffffffffffffffffffffffffff168173ffffffffffffffffffffffffffffffffffffffff167f8be0079c531659141344cd1fd0a4f28419497f9722a3daafe3b4186f6b6457e060405160405180910390a35050565b600073ffffffffffffffffffffffffffffffffffffffff168273ffffffffffffffffffffffffffffffffffffffff161415610dae576040517f08c379a0000000000000000000000000000000000000000000000000000000008152600401610da590611336565b60405180910390fd5b610dba60008383610e9e565b8060026000828254610dcc91906113a8565b92505081905550806000808473ffffffffffffffffffffffffffffffffffffffff1673ffffffffffffffffffffffffffffffffffffffff1681526020019081526020016000206000828254610e2191906113a8565b925050819055508173ffffffffffffffffffffffffffffffffffffffff16600073ffffffffffffffffffffffffffffffffffffffff167fddf252ad1be2c89b69c2b068fc378daa952ba7f163c4a11628f55a4df523b3ef83604051610e869190611356565b60405180910390a3610e9a60008383610ea3565b5050565b505050565b505050565b600081359050610eb7816117cb565b92915050565b600081359050610ecc816117e2565b92915050565b600060208284031215610ee457600080fd5b6000610ef284828501610ea8565b91505092915050565b60008060408385031215610f0e57600080fd5b6000610f1c85828601610ea8565b9250506020610f2d85828601610ea8565b9150509250929050565b600080600060608486031215610f4c57600080fd5b6000610f5a86828701610ea8565b9350506020610f6b86828701610ea8565b9250506040610f7c86828701610ebd565b9150509250925092565b60008060408385031215610f9957600080fd5b6000610fa785828601610ea8565b9250506020610fb885828601610ebd565b9150509250929050565b600060208284031215610fd457600080fd5b6000610fe284828501610ebd565b91505092915050565b610ff4816113fe565b82525050565b61100381611410565b82525050565b60006110148261138c565b61101e8185611397565b935061102e818560208601611453565b61103781611516565b840191505092915050565b600061104f602383611397565b915061105a82611527565b604082019050919050565b6000611072602683611397565b915061107d82611576565b604082019050919050565b6000611095602283611397565b91506110a0826115c5565b604082019050919050565b60006110b8601d83611397565b91506110c382611614565b602082019050919050565b60006110db602683611397565b91506110e68261163d565b604082019050919050565b60006110fe602083611397565b91506111098261168c565b602082019050919050565b6000611121602583611397565b915061112c826116b5565b604082019050919050565b6000611144602483611397565b915061114f82611704565b604082019050919050565b6000611167602583611397565b915061117282611753565b604082019050919050565b600061118a601f83611397565b9150611195826117a2565b602082019050919050565b6111a98161143c565b82525050565b6111b881611446565b82525050565b60006020820190506111d36000830184610feb565b92915050565b60006020820190506111ee6000830184610ffa565b92915050565b6000602082019050818103600083015261120e8184611009565b905092915050565b6000602082019050818103600083015261122f81611042565b9050919050565b6000602082019050818103600083015261124f81611065565b9050919050565b6000602082019050818103600083015261126f81611088565b9050919050565b6000602082019050818103600083015261128f816110ab565b9050919050565b600060208201905081810360008301526112af816110ce565b9050919050565b600060208201905081810360008301526112cf816110f1565b9050919050565b600060208201905081810360008301526112ef81611114565b9050919050565b6000602082019050818103600083015261130f81611137565b9050919050565b6000602082019050818103600083015261132f8161115a565b9050919050565b6000602082019050818103600083015261134f8161117d565b9050919050565b600060208201905061136b60008301846111a0565b92915050565b600060208201905061138660008301846111af565b92915050565b600081519050919050565b600082825260208201905092915050565b60006113b38261143c565b91506113be8361143c565b9250827fffffffffffffffffffffffffffffffffffffffffffffffffffffffffffffffff038211156113f3576113f26114b8565b5b828201905092915050565b60006114098261141c565b9050919050565b60008115159050919050565b600073ffffffffffffffffffffffffffffffffffffffff82169050919050565b6000819050919050565b600060ff82169050919050565b60005b83811015611471578082015181840152602081019050611456565b83811115611480576000848401525b50505050565b6000600282049050600182168061149e57607f821691505b602082108114156114b2576114b16114e7565b5b50919050565b7f4e487b7100000000000000000000000000000000000000000000000000000000600052601160045260246000fd5b7f4e487b7100000000000000000000000000000000000000000000000000000000600052602260045260246000fd5b6000601f19601f8301169050919050565b7f45524332303a207472616e7366657220746f20746865207a65726f206164647260008201527f6573730000000000000000000000000000000000000000000000000000000000602082015250565b7f4f776e61626c653a206e6577206f776e657220697320746865207a65726f206160008201527f6464726573730000000000000000000000000000000000000000000000000000602082015250565b7f45524332303a20617070726f766520746f20746865207a65726f20616464726560008201527f7373000000000000000000000000000000000000000000000000000000000000602082015250565b7f45524332303a20696e73756666696369656e7420616c6c6f77616e6365000000600082015250565b7f45524332303a207472616e7366657220616d6f756e742065786365656473206260008201527f616c616e63650000000000000000000000000000000000000000000000000000602082015250565b7f4f776e61626c653a2063616c6c6572206973206e6f7420746865206f776e6572600082015250565b7f45524332303a207472616e736665722066726f6d20746865207a65726f20616460008201527f6472657373000000000000000000000000000000000000000000000000000000602082015250565b7f45524332303a20617070726f76652066726f6d20746865207a65726f2061646460008201527f7265737300000000000000000000000000000000000000000000000000000000602082015250565b7f45524332303a2064656372656173656420616c6c6f77616e63652062656c6f7760008201527f207a65726f000000000000000000000000000000000000000000000000000000602082015250565b7f45524332303a206d696e7420746f20746865207a65726f206164647265737300600082015250565b6117d4816113fe565b81146117df57600080fd5b50565b6117eb8161143c565b81146117f657600080fd5b5056fea2646970667358221220da94e32fb6ef9a5b6a9218b0406c02d995d1e9afdfcb307e126ec891c097f53764736f6c63430008040033","abi":[{"anonymous":false,"inputs":[{"indexed":true,"internalType":"address","name":"owner","type":"address"},{"indexed":true,"internalType":"address","name":"spender","type":"address"},{"indexed":false,"internalType":"uint256","name":"value","type":"uint256"}],"name":"Approval","type":"event"},{"anonymous":false,"inputs":[{"indexed":true,"internalType":"address","name":"previousOwner","type":"address"},{"indexed":true,"internalType":"address","name":"newOwner","type":"address"}],"name":"OwnershipTransferred","type":"event"},{"anonymous":false,"inputs":[{"indexed":true,"internalType":"address","name":"from","type":"address"},{"indexed":true,"internalType":"address","name":"to","type":"address"},{"indexed":false,"internalType":"uint256","name":"value","type":"uint256"}],"name":"Transfer","type":"event"},{"inputs":[{"internalType":"address","name":"owner","type":"address"},{"internalType":"address","name":"spender","type":"address"}],"name":"allowance","outputs":[{"internalType":"uint256","name":"","type":"uint256"}],"stateMutability":"view","type":"function"},{"inputs":[{"internalType":"address","name":"spender","type":"address"},{"internalType":"uint256","name":"amount","type":"uint256"}],"name":"approve","outputs":[{"internalType":"bool","name":"","type":"bool"}],"stateMutability":"nonpayable","type":"function"},{"inputs":[{"internalType":"address","name":"account","type":"address"}],"name":"balanceOf","outputs":[{"internalType":"uint256","name":"","type":"uint256"}],"stateMutability":"view","type":"function"},{"inputs":[],"name":"decimals","outputs":[{"internalType":"uint8","name":"","type":"uint8"}],"stateMutability":"view","type":"function"},{"inputs":[{"internalType":"address","name":"spender","type":"address"},{"internalType":"uint256","name":"subtractedValue","type":"uint256"}],"name":"decreaseAllowance","outputs":[{"internalType":"bool","name":"","type":"bool"}],"stateMutability":"nonpayable","type":"function"},{"inputs":[{"internalType":"uint256","name":"_amount","type":"uint256"}],"name":"getTokens","outputs":[],"stateMutability":"nonpayable","type":"function"},{"inputs":[{"internalType":"address","name":"spender","type":"address"},{"internalType":"uint256","name":"addedValue","type":"uint256"}],"name":"increaseAllowance","outputs":[{"internalType":"bool","name":"","type":"bool"}],"stateMutability":"nonpayable","type":"function"},{"inputs":[],"name":"name","outputs":[{"internalType":"string","name":"","type":"string"}],"stateMutability":"view","type":"function"},{"inputs":[],"name":"owner","outputs":[{"internalType":"address","name":"","type":"address"}],"stateMutability":"view","type":"function"},{"inputs":[],"name":"renounceOwnership","outputs":[],"stateMutability":"nonpayable","type":"function"},{"inputs":[],"name":"symbol","outputs":[{"internalType":"string","name":"","type":"string"}],"stateMutability":"view","type":"function"},{"inputs":[],"name":"totalSupply","outputs":[{"internalType":"uint256","name":"","type":"uint256"}],"stateMutability":"view","type":"function"},{"inputs":[{"internalType":"address","name":"to","type":"address"},{"internalType":"uint256","name":"amount","type":"uint256"}],"name":"transfer","outputs":[{"internalType":"bool","name":"","type":"bool"}],"stateMutability":"nonpayable","type":"function"},{"inputs":[{"internalType":"address","name":"from","type":"address"},{"internalType":"address","name":"to","type":"address"},{"internalType":"uint256","name":"amount","type":"uint256"}],"name":"transferFrom","outputs":[{"internalType":"bool","name":"","type":"bool"}],"stateMutability":"nonpayable","type":"function"},{"inputs":[{"internalType":"address","name":"newOwner","type":"address"}],"name":"transferOwnership","outputs":[],"stateMutability":"nonpayable","type":"function"}]}